{
  "address": "0x26a954D0Eb10aD349A97f273A4dB020e11FE350f",
  "abi": [
    {
      "anonymous": false,
      "inputs": [
        {
          "indexed": false,
          "internalType": "bytes32",
          "name": "dsuIncentiveId",
          "type": "bytes32"
        },
        {
          "indexed": false,
          "internalType": "bytes32",
          "name": "essIncentiveId",
          "type": "bytes32"
        }
      ],
      "name": "IncentivesInitialized",
      "type": "event"
    },
    {
      "inputs": [],
      "name": "DSU_USDC_POOL",
      "outputs": [
        {
          "internalType": "address",
          "name": "",
          "type": "address"
        }
      ],
      "stateMutability": "view",
      "type": "function"
    },
    {
      "inputs": [],
      "name": "ESS_WETH_POOL",
      "outputs": [
        {
          "internalType": "address",
          "name": "",
          "type": "address"
        }
      ],
      "stateMutability": "view",
      "type": "function"
    },
    {
      "inputs": [],
      "name": "RESERVE",
      "outputs": [
        {
          "internalType": "address",
          "name": "",
          "type": "address"
        }
      ],
      "stateMutability": "view",
      "type": "function"
    },
    {
      "inputs": [],
      "name": "STAKE",
      "outputs": [
        {
          "internalType": "contract IERC20",
          "name": "",
          "type": "address"
        }
      ],
      "stateMutability": "view",
      "type": "function"
    },
    {
      "inputs": [],
      "name": "STAKER",
      "outputs": [
        {
          "internalType": "contract IUniswapV3Staker",
          "name": "",
          "type": "address"
        }
      ],
      "stateMutability": "view",
      "type": "function"
    },
    {
      "inputs": [],
      "name": "TIMELOCK",
      "outputs": [
        {
          "internalType": "address",
          "name": "",
          "type": "address"
        }
      ],
      "stateMutability": "view",
      "type": "function"
    },
    {
      "inputs": [],
      "name": "cancel",
      "outputs": [],
      "stateMutability": "nonpayable",
      "type": "function"
    },
    {
      "inputs": [],
      "name": "start",
      "outputs": [],
      "stateMutability": "nonpayable",
      "type": "function"
    }
  ],
  "transactionHash": "0xebbe08bb0909b24e591bc2b1c79d5ff34bc0c9fec31a19d6723289d9b34d48cd",
  "args": [],
  "solcInputHash": "0b15d035d2af0d9b6c86f12ed3650c66",
  "bytecode": "0x608060405234801561001057600080fd5b50610f70806100206000396000f3fe608060405234801561001057600080fd5b50600436106100885760003560e01c8063b0df4cab1161005b578063b0df4cab14610105578063be9a655514610123578063cc7c64111461012d578063ea8a1af01461014b57610088565b8063125fdbbc1461008d57806318983b5d146100ab5780637aadef8b146100c95780639d2cc436146100e7575b600080fd5b610095610155565b6040516100a29190610bd7565b60405180910390f35b6100b361016d565b6040516100c09190610b41565b60405180910390f35b6100d1610185565b6040516100de9190610b41565b60405180910390f35b6100ef61019d565b6040516100fc9190610b41565b60405180910390f35b61010d6101b5565b60405161011a9190610bf2565b60405180910390f35b61012b6101cd565b005b610135610729565b6040516101429190610b41565b60405180910390f35b610153610741565b005b7324ae124c4cc33d6791f8e8b63520ed7107ac8b3e81565b73d2ef54450ec52347bde3dab7b086bf2a005601d881565b731bba92f379375387bf8f927058da14d47464cb7a81565b73d05ace63789ccb35b9ce71d01e4d632a0486da4b81565b731f98407aab862cddef78ed252d6f557aa5b0f00d81565b6a09ed194db19b238c0000007324ae124c4cc33d6791f8e8b63520ed7107ac8b3e73ffffffffffffffffffffffffffffffffffffffff166370a08231306040518263ffffffff1660e01b81526004016102269190610b41565b60206040518083038186803b15801561023e57600080fd5b505afa158015610252573d6000803e3d6000fd5b505050506040513d601f19601f82011682018060405250810190610276919061099e565b146102b6576040517f08c379a00000000000000000000000000000000000000000000000000000000081526004016102ad90610c0d565b60405180910390fd5b7324ae124c4cc33d6791f8e8b63520ed7107ac8b3e73ffffffffffffffffffffffffffffffffffffffff1663095ea7b3731f98407aab862cddef78ed252d6f557aa5b0f00d6a09ed194db19b238c0000006040518363ffffffff1660e01b8152600401610324929190610b5c565b602060405180830381600087803b15801561033e57600080fd5b505af1158015610352573d6000803e3d6000fd5b505050506040513d601f19601f820116820180604052508101906103769190610971565b5060006040518060a001604052807324ae124c4cc33d6791f8e8b63520ed7107ac8b3e73ffffffffffffffffffffffffffffffffffffffff168152602001733432ef874a39bb3013e4d574017e0ccc6f937efd73ffffffffffffffffffffffffffffffffffffffff1681526020014281526020016276a700426103f99190610ceb565b815260200173d05ace63789ccb35b9ce71d01e4d632a0486da4b73ffffffffffffffffffffffffffffffffffffffff16815250905060006040518060a001604052807324ae124c4cc33d6791f8e8b63520ed7107ac8b3e73ffffffffffffffffffffffffffffffffffffffff16815260200173d2ef54450ec52347bde3dab7b086bf2a005601d873ffffffffffffffffffffffffffffffffffffffff1681526020014281526020016276a700426104b09190610ceb565b815260200173d05ace63789ccb35b9ce71d01e4d632a0486da4b73ffffffffffffffffffffffffffffffffffffffff168152509050731f98407aab862cddef78ed252d6f557aa5b0f00d73ffffffffffffffffffffffffffffffffffffffff16635cc5e3d9836a069e10de76676d080000006040518363ffffffff1660e01b815260040161053f929190610cb1565b600060405180830381600087803b15801561055957600080fd5b505af115801561056d573d6000803e3d6000fd5b50505050731f98407aab862cddef78ed252d6f557aa5b0f00d73ffffffffffffffffffffffffffffffffffffffff16635cc5e3d9826a034f086f3b33b6840000006040518363ffffffff1660e01b81526004016105cb929190610c88565b600060405180830381600087803b1580156105e557600080fd5b505af11580156105f9573d6000803e3d6000fd5b5050505060007324ae124c4cc33d6791f8e8b63520ed7107ac8b3e73ffffffffffffffffffffffffffffffffffffffff166370a08231306040518263ffffffff1660e01b815260040161064c9190610b41565b60206040518083038186803b15801561066457600080fd5b505afa158015610678573d6000803e3d6000fd5b505050506040513d601f19601f8201168201806040525081019061069c919061099e565b146106dc576040517f08c379a00000000000000000000000000000000000000000000000000000000081526004016106d390610c4d565b60405180910390fd5b7f6f45f35304b72fa982ec8eaf953a79b1d80733e701e881526cc0d27b7b21d38d61070683610917565b61070f83610917565b60405161071d929190610bae565b60405180910390a15050565b733432ef874a39bb3013e4d574017e0ccc6f937efd81565b731bba92f379375387bf8f927058da14d47464cb7a73ffffffffffffffffffffffffffffffffffffffff163373ffffffffffffffffffffffffffffffffffffffff16146107c3576040517f08c379a00000000000000000000000000000000000000000000000000000000081526004016107ba90610c2d565b60405180910390fd5b7324ae124c4cc33d6791f8e8b63520ed7107ac8b3e73ffffffffffffffffffffffffffffffffffffffff1663a9059cbb73d05ace63789ccb35b9ce71d01e4d632a0486da4b7324ae124c4cc33d6791f8e8b63520ed7107ac8b3e73ffffffffffffffffffffffffffffffffffffffff166370a08231306040518263ffffffff1660e01b81526004016108559190610b41565b60206040518083038186803b15801561086d57600080fd5b505afa158015610881573d6000803e3d6000fd5b505050506040513d601f19601f820116820180604052508101906108a5919061099e565b6040518363ffffffff1660e01b81526004016108c2929190610b85565b602060405180830381600087803b1580156108dc57600080fd5b505af11580156108f0573d6000803e3d6000fd5b505050506040513d601f19601f820116820180604052508101906109149190610971565b50565b60008160405160200161092a9190610c6d565b604051602081830303815290604052805190602001209050919050565b60008151905061095681610f0c565b92915050565b60008151905061096b81610f23565b92915050565b60006020828403121561098757610986610e40565b5b600061099584828501610947565b91505092915050565b6000602082840312156109b4576109b3610e40565b5b60006109c28482850161095c565b91505092915050565b6109d481610d41565b82525050565b6109e381610d41565b82525050565b6109f281610d5f565b82525050565b610a0181610d93565b82525050565b610a1081610d93565b82525050565b610a1f81610db7565b82525050565b610a2e81610ddb565b82525050565b610a3d81610ded565b82525050565b610a4c81610dff565b82525050565b6000610a5f602183610cda565b9150610a6a82610e45565b604082019050919050565b6000610a82601e83610cda565b9150610a8d82610e94565b602082019050919050565b6000610aa5602183610cda565b9150610ab082610ebd565b604082019050919050565b60a082016000820151610ad160008501826109f8565b506020820151610ae460208501826109cb565b506040820151610af76040850182610b23565b506060820151610b0a6060850182610b23565b506080820151610b1d60808501826109cb565b50505050565b610b2c81610d89565b82525050565b610b3b81610d89565b82525050565b6000602082019050610b5660008301846109da565b92915050565b6000604082019050610b7160008301856109da565b610b7e6020830184610a25565b9392505050565b6000604082019050610b9a60008301856109da565b610ba76020830184610b32565b9392505050565b6000604082019050610bc360008301856109e9565b610bd060208301846109e9565b9392505050565b6000602082019050610bec6000830184610a07565b92915050565b6000602082019050610c076000830184610a16565b92915050565b60006020820190508181036000830152610c2681610a52565b9050919050565b60006020820190508181036000830152610c4681610a75565b9050919050565b60006020820190508181036000830152610c6681610a98565b9050919050565b600060a082019050610c826000830184610abb565b92915050565b600060c082019050610c9d6000830185610abb565b610caa60a0830184610a34565b9392505050565b600060c082019050610cc66000830185610abb565b610cd360a0830184610a43565b9392505050565b600082825260208201905092915050565b6000610cf682610d89565b9150610d0183610d89565b9250827fffffffffffffffffffffffffffffffffffffffffffffffffffffffffffffffff03821115610d3657610d35610e11565b5b828201905092915050565b6000610d4c82610d69565b9050919050565b60008115159050919050565b6000819050919050565b600073ffffffffffffffffffffffffffffffffffffffff82169050919050565b6000819050919050565b6000610d9e82610da5565b9050919050565b6000610db082610d69565b9050919050565b6000610dc282610dc9565b9050919050565b6000610dd482610d69565b9050919050565b6000610de682610d89565b9050919050565b6000610df882610d89565b9050919050565b6000610e0a82610d89565b9050919050565b7f4e487b7100000000000000000000000000000000000000000000000000000000600052601160045260246000fd5b600080fd5b7f50726f7031496e697469616c697a65723a20696e636f7272656374207374616b60008201527f6500000000000000000000000000000000000000000000000000000000000000602082015250565b7f50726f7031496e697469616c697a65723a206e6f742074696d656c6f636b0000600082015250565b7f50726f7031496e697469616c697a65723a207374616b65206c656674206f766560008201527f7200000000000000000000000000000000000000000000000000000000000000602082015250565b610f1581610d53565b8114610f2057600080fd5b50565b610f2c81610d89565b8114610f3757600080fd5b5056fea2646970667358221220dc9cb5aa73781a60d33d609291f4c3522d53d6e623f2284896fb484af5f0700764736f6c63430008060033",
  "devdoc": {
    "kind": "dev",
    "methods": {},
    "version": 1
  },
  "userdoc": {
    "kind": "user",
    "methods": {},
    "version": 1
  },
  "storageLayout": {
    "storage": [],
    "types": null
  }
}