{
  "contractName": "GovernorAlpha",
  "abi": [
    {
      "inputs": [
        {
          "internalType": "address",
          "name": "timelock_",
          "type": "address"
        },
        {
          "internalType": "address",
          "name": "stake_",
          "type": "address"
        },
        {
          "internalType": "address",
          "name": "guardian_",
          "type": "address"
        }
      ],
      "payable": false,
      "stateMutability": "nonpayable",
      "type": "constructor"
    },
    {
      "anonymous": false,
      "inputs": [
        {
          "indexed": false,
          "internalType": "uint256",
          "name": "id",
          "type": "uint256"
        }
      ],
      "name": "ProposalCanceled",
      "type": "event"
    },
    {
      "anonymous": false,
      "inputs": [
        {
          "indexed": false,
          "internalType": "uint256",
          "name": "id",
          "type": "uint256"
        },
        {
          "indexed": false,
          "internalType": "address",
          "name": "proposer",
          "type": "address"
        },
        {
          "indexed": false,
          "internalType": "address[]",
          "name": "targets",
          "type": "address[]"
        },
        {
          "indexed": false,
          "internalType": "uint256[]",
          "name": "values",
          "type": "uint256[]"
        },
        {
          "indexed": false,
          "internalType": "string[]",
          "name": "signatures",
          "type": "string[]"
        },
        {
          "indexed": false,
          "internalType": "bytes[]",
          "name": "calldatas",
          "type": "bytes[]"
        },
        {
          "indexed": false,
          "internalType": "uint256",
          "name": "startBlock",
          "type": "uint256"
        },
        {
          "indexed": false,
          "internalType": "uint256",
          "name": "endBlock",
          "type": "uint256"
        },
        {
          "indexed": false,
          "internalType": "string",
          "name": "description",
          "type": "string"
        }
      ],
      "name": "ProposalCreated",
      "type": "event"
    },
    {
      "anonymous": false,
      "inputs": [
        {
          "indexed": false,
          "internalType": "uint256",
          "name": "id",
          "type": "uint256"
        }
      ],
      "name": "ProposalExecuted",
      "type": "event"
    },
    {
      "anonymous": false,
      "inputs": [
        {
          "indexed": false,
          "internalType": "uint256",
          "name": "id",
          "type": "uint256"
        },
        {
          "indexed": false,
          "internalType": "uint256",
          "name": "eta",
          "type": "uint256"
        }
      ],
      "name": "ProposalQueued",
      "type": "event"
    },
    {
      "anonymous": false,
      "inputs": [
        {
          "indexed": false,
          "internalType": "address",
          "name": "voter",
          "type": "address"
        },
        {
          "indexed": false,
          "internalType": "uint256",
          "name": "proposalId",
          "type": "uint256"
        },
        {
          "indexed": false,
          "internalType": "bool",
          "name": "support",
          "type": "bool"
        },
        {
          "indexed": false,
          "internalType": "uint256",
          "name": "votes",
          "type": "uint256"
        }
      ],
      "name": "VoteCast",
      "type": "event"
    },
    {
      "constant": true,
      "inputs": [],
      "name": "BALLOT_TYPEHASH",
      "outputs": [
        {
          "internalType": "bytes32",
          "name": "",
          "type": "bytes32"
        }
      ],
      "payable": false,
      "stateMutability": "view",
      "type": "function"
    },
    {
      "constant": true,
      "inputs": [],
      "name": "DOMAIN_TYPEHASH",
      "outputs": [
        {
          "internalType": "bytes32",
          "name": "",
          "type": "bytes32"
        }
      ],
      "payable": false,
      "stateMutability": "view",
      "type": "function"
    },
    {
      "constant": true,
      "inputs": [],
      "name": "guardian",
      "outputs": [
        {
          "internalType": "address",
          "name": "",
          "type": "address"
        }
      ],
      "payable": false,
      "stateMutability": "view",
      "type": "function"
    },
    {
      "constant": true,
      "inputs": [
        {
          "internalType": "address",
          "name": "",
          "type": "address"
        }
      ],
      "name": "latestProposalIds",
      "outputs": [
        {
          "internalType": "uint256",
          "name": "",
          "type": "uint256"
        }
      ],
      "payable": false,
      "stateMutability": "view",
      "type": "function"
    },
    {
      "constant": true,
      "inputs": [],
      "name": "name",
      "outputs": [
        {
          "internalType": "string",
          "name": "",
          "type": "string"
        }
      ],
      "payable": false,
      "stateMutability": "view",
      "type": "function"
    },
    {
      "constant": true,
      "inputs": [],
      "name": "proposalCount",
      "outputs": [
        {
          "internalType": "uint256",
          "name": "",
          "type": "uint256"
        }
      ],
      "payable": false,
      "stateMutability": "view",
      "type": "function"
    },
    {
      "constant": true,
      "inputs": [
        {
          "internalType": "uint256",
          "name": "",
          "type": "uint256"
        }
      ],
      "name": "proposals",
      "outputs": [
        {
          "internalType": "uint256",
          "name": "id",
          "type": "uint256"
        },
        {
          "internalType": "address",
          "name": "proposer",
          "type": "address"
        },
        {
          "internalType": "uint256",
          "name": "eta",
          "type": "uint256"
        },
        {
          "internalType": "uint256",
          "name": "startBlock",
          "type": "uint256"
        },
        {
          "internalType": "uint256",
          "name": "endBlock",
          "type": "uint256"
        },
        {
          "internalType": "uint256",
          "name": "forVotes",
          "type": "uint256"
        },
        {
          "internalType": "uint256",
          "name": "againstVotes",
          "type": "uint256"
        },
        {
          "internalType": "bool",
          "name": "canceled",
          "type": "bool"
        },
        {
          "internalType": "bool",
          "name": "executed",
          "type": "bool"
        }
      ],
      "payable": false,
      "stateMutability": "view",
      "type": "function"
    },
    {
      "constant": true,
      "inputs": [],
      "name": "stake",
      "outputs": [
        {
          "internalType": "contract StakeInterface",
          "name": "",
          "type": "address"
        }
      ],
      "payable": false,
      "stateMutability": "view",
      "type": "function"
    },
    {
      "constant": true,
      "inputs": [],
      "name": "timelock",
      "outputs": [
        {
          "internalType": "contract TimelockInterface",
          "name": "",
          "type": "address"
        }
      ],
      "payable": false,
      "stateMutability": "view",
      "type": "function"
    },
    {
      "constant": true,
      "inputs": [],
      "name": "quorumVotes",
      "outputs": [
        {
          "internalType": "uint256",
          "name": "",
          "type": "uint256"
        }
      ],
      "payable": false,
      "stateMutability": "pure",
      "type": "function"
    },
    {
      "constant": true,
      "inputs": [],
      "name": "proposalThreshold",
      "outputs": [
        {
          "internalType": "uint256",
          "name": "",
          "type": "uint256"
        }
      ],
      "payable": false,
      "stateMutability": "pure",
      "type": "function"
    },
    {
      "constant": true,
      "inputs": [],
      "name": "proposalMaxOperations",
      "outputs": [
        {
          "internalType": "uint256",
          "name": "",
          "type": "uint256"
        }
      ],
      "payable": false,
      "stateMutability": "pure",
      "type": "function"
    },
    {
      "constant": true,
      "inputs": [],
      "name": "votingDelay",
      "outputs": [
        {
          "internalType": "uint256",
          "name": "",
          "type": "uint256"
        }
      ],
      "payable": false,
      "stateMutability": "pure",
      "type": "function"
    },
    {
      "constant": true,
      "inputs": [],
      "name": "votingPeriod",
      "outputs": [
        {
          "internalType": "uint256",
          "name": "",
          "type": "uint256"
        }
      ],
      "payable": false,
      "stateMutability": "pure",
      "type": "function"
    },
    {
      "constant": false,
      "inputs": [
        {
          "internalType": "address[]",
          "name": "targets",
          "type": "address[]"
        },
        {
          "internalType": "uint256[]",
          "name": "values",
          "type": "uint256[]"
        },
        {
          "internalType": "string[]",
          "name": "signatures",
          "type": "string[]"
        },
        {
          "internalType": "bytes[]",
          "name": "calldatas",
          "type": "bytes[]"
        },
        {
          "internalType": "string",
          "name": "description",
          "type": "string"
        }
      ],
      "name": "propose",
      "outputs": [
        {
          "internalType": "uint256",
          "name": "",
          "type": "uint256"
        }
      ],
      "payable": false,
      "stateMutability": "nonpayable",
      "type": "function"
    },
    {
      "constant": false,
      "inputs": [
        {
          "internalType": "uint256",
          "name": "proposalId",
          "type": "uint256"
        }
      ],
      "name": "queue",
      "outputs": [],
      "payable": false,
      "stateMutability": "nonpayable",
      "type": "function"
    },
    {
      "constant": false,
      "inputs": [
        {
          "internalType": "uint256",
          "name": "proposalId",
          "type": "uint256"
        }
      ],
      "name": "execute",
      "outputs": [],
      "payable": true,
      "stateMutability": "payable",
      "type": "function"
    },
    {
      "constant": false,
      "inputs": [
        {
          "internalType": "uint256",
          "name": "proposalId",
          "type": "uint256"
        }
      ],
      "name": "cancel",
      "outputs": [],
      "payable": false,
      "stateMutability": "nonpayable",
      "type": "function"
    },
    {
      "constant": true,
      "inputs": [
        {
          "internalType": "uint256",
          "name": "proposalId",
          "type": "uint256"
        }
      ],
      "name": "getActions",
      "outputs": [
        {
          "internalType": "address[]",
          "name": "targets",
          "type": "address[]"
        },
        {
          "internalType": "uint256[]",
          "name": "values",
          "type": "uint256[]"
        },
        {
          "internalType": "string[]",
          "name": "signatures",
          "type": "string[]"
        },
        {
          "internalType": "bytes[]",
          "name": "calldatas",
          "type": "bytes[]"
        }
      ],
      "payable": false,
      "stateMutability": "view",
      "type": "function"
    },
    {
      "constant": true,
      "inputs": [
        {
          "internalType": "uint256",
          "name": "proposalId",
          "type": "uint256"
        },
        {
          "internalType": "address",
          "name": "voter",
          "type": "address"
        }
      ],
      "name": "getReceipt",
      "outputs": [
        {
          "components": [
            {
              "internalType": "bool",
              "name": "hasVoted",
              "type": "bool"
            },
            {
              "internalType": "bool",
              "name": "support",
              "type": "bool"
            },
            {
              "internalType": "uint96",
              "name": "votes",
              "type": "uint96"
            }
          ],
          "internalType": "struct GovernorAlpha.Receipt",
          "name": "",
          "type": "tuple"
        }
      ],
      "payable": false,
      "stateMutability": "view",
      "type": "function"
    },
    {
      "constant": true,
      "inputs": [
        {
          "internalType": "uint256",
          "name": "proposalId",
          "type": "uint256"
        }
      ],
      "name": "state",
      "outputs": [
        {
          "internalType": "enum GovernorAlpha.ProposalState",
          "name": "",
          "type": "uint8"
        }
      ],
      "payable": false,
      "stateMutability": "view",
      "type": "function"
    },
    {
      "constant": false,
      "inputs": [
        {
          "internalType": "uint256",
          "name": "proposalId",
          "type": "uint256"
        },
        {
          "internalType": "bool",
          "name": "support",
          "type": "bool"
        }
      ],
      "name": "castVote",
      "outputs": [],
      "payable": false,
      "stateMutability": "nonpayable",
      "type": "function"
    },
    {
      "constant": false,
      "inputs": [
        {
          "internalType": "uint256",
          "name": "proposalId",
          "type": "uint256"
        },
        {
          "internalType": "bool",
          "name": "support",
          "type": "bool"
        },
        {
          "internalType": "uint8",
          "name": "v",
          "type": "uint8"
        },
        {
          "internalType": "bytes32",
          "name": "r",
          "type": "bytes32"
        },
        {
          "internalType": "bytes32",
          "name": "s",
          "type": "bytes32"
        }
      ],
      "name": "castVoteBySig",
      "outputs": [],
      "payable": false,
      "stateMutability": "nonpayable",
      "type": "function"
    },
    {
      "constant": false,
      "inputs": [],
      "name": "__acceptAdmin",
      "outputs": [],
      "payable": false,
      "stateMutability": "nonpayable",
      "type": "function"
    },
    {
      "constant": false,
      "inputs": [],
      "name": "__abdicate",
      "outputs": [],
      "payable": false,
      "stateMutability": "nonpayable",
      "type": "function"
    },
    {
      "constant": false,
      "inputs": [
        {
          "internalType": "address",
          "name": "newPendingAdmin",
          "type": "address"
        },
        {
          "internalType": "uint256",
          "name": "eta",
          "type": "uint256"
        }
      ],
      "name": "__queueSetTimelockPendingAdmin",
      "outputs": [],
      "payable": false,
      "stateMutability": "nonpayable",
      "type": "function"
    },
    {
      "constant": false,
      "inputs": [
        {
          "internalType": "address",
          "name": "newPendingAdmin",
          "type": "address"
        },
        {
          "internalType": "uint256",
          "name": "eta",
          "type": "uint256"
        }
      ],
      "name": "__executeSetTimelockPendingAdmin",
      "outputs": [],
      "payable": false,
      "stateMutability": "nonpayable",
      "type": "function"
    }
  ],
  "bytecode": "0x60806040523480156200001157600080fd5b50604051620039223803806200392283398101604081905262000034916200008a565b600080546001600160a01b039485166001600160a01b0319918216179091556001805493851693821693909317909255600280549190931691161790556200010a565b80516200008481620000f0565b92915050565b600080600060608486031215620000a057600080fd5b6000620000ae868662000077565b9350506020620000c18682870162000077565b9250506040620000d48682870162000077565b9150509250925092565b60006001600160a01b03821662000084565b620000fb81620000de565b81146200010757600080fd5b50565b613808806200011a6000396000f3fe60806040526004361061019c5760003560e01c8063452a9320116100ec578063d33219b41161008a578063ddf0b00911610064578063ddf0b00914610463578063deaaa7cc14610483578063e23a9a5214610498578063fe0d94c1146104c55761019c565b8063d33219b414610419578063da35c6641461042e578063da95691a146104435761019c565b80637bdbe4d0116100c65780637bdbe4d0146103ba57806391500671146103cf578063b58131b0146103ef578063b9a61961146104045761019c565b8063452a9320146103635780634634c61f14610385578063760fbc13146103a55761019c565b806321f43e42116101595780633932abb1116101335780633932abb1146102df5780633a4b66f1146102f45780633e4f49e61461031657806340e58ee5146103435761019c565b806321f43e421461027a57806324bc1a641461029a578063328dd982146102af5761019c565b8063013cf08b146101a157806302a251a3146101df57806306fdde031461020157806315373e3d1461022357806317977c611461024557806320606b7014610265575b600080fd5b3480156101ad57600080fd5b506101c16101bc36600461244e565b6104d8565b6040516101d6999897969594939291906135b3565b60405180910390f35b3480156101eb57600080fd5b506101f4610531565b6040516101d691906132e0565b34801561020d57600080fd5b50610216610538565b6040516101d6919061339c565b34801561022f57600080fd5b5061024361023e36600461249c565b61056c565b005b34801561025157600080fd5b506101f4610260366004612291565b61057b565b34801561027157600080fd5b506101f461058d565b34801561028657600080fd5b506102436102953660046122b7565b6105a4565b3480156102a657600080fd5b506101f461068b565b3480156102bb57600080fd5b506102cf6102ca36600461244e565b61069a565b6040516101d69493929190613293565b3480156102eb57600080fd5b506101f4610929565b34801561030057600080fd5b5061030961092f565b6040516101d69190613380565b34801561032257600080fd5b5061033661033136600461244e565b61093e565b6040516101d6919061338e565b34801561034f57600080fd5b5061024361035e36600461244e565b610ac0565b34801561036f57600080fd5b50610378610d29565b6040516101d6919061313d565b34801561039157600080fd5b506102436103a03660046124cc565b610d38565b3480156103b157600080fd5b50610243610ed0565b3480156103c657600080fd5b506101f4610f0c565b3480156103db57600080fd5b506102436103ea3660046122b7565b610f11565b3480156103fb57600080fd5b506101f4610fe6565b34801561041057600080fd5b50610243610ff5565b34801561042557600080fd5b5061030961107a565b34801561043a57600080fd5b506101f4611089565b34801561044f57600080fd5b506101f461045e3660046122f1565b61108f565b34801561046f57600080fd5b5061024361047e36600461244e565b6114b1565b34801561048f57600080fd5b506101f461171b565b3480156104a457600080fd5b506104b86104b336600461246c565b611727565b6040516101d691906134fd565b6102436104d336600461244e565b611796565b6004602052600090815260409020805460018201546002830154600784015460088501546009860154600a870154600b9097015495966001600160a01b0390951695939492939192909160ff8082169161010090041689565b61b5bb5b90565b60405180604001604052806018815260200177456d7074792053657420476f7665726e6f7220416c70686160401b81525081565b61057733838361195b565b5050565b60056020526000908152604090205481565b60405161059990613127565b604051809103902081565b6002546001600160a01b031633146105d75760405162461bcd60e51b81526004016105ce906133dd565b60405180910390fd5b600080546040516001600160a01b0390911691630825f38f9183919061060190879060200161313d565b604051602081830303815290604052856040518563ffffffff1660e01b81526004016106309493929190613166565b600060405180830381600087803b15801561064a57600080fd5b505af115801561065e573d6000803e3d6000fd5b505050506040513d6000823e601f3d908101601f191682016040526106869190810190612419565b505050565b6aa56fa5b99019a5c800000090565b6060806060806000600460008781526020019081526020016000209050806003018160040182600501836006018380548060200260200160405190810160405280929190818152602001828054801561071c57602002820191906000526020600020905b81546001600160a01b031681526001909101906020018083116106fe575b505050505093508280548060200260200160405190810160405280929190818152602001828054801561076e57602002820191906000526020600020905b81548152602001906001019080831161075a575b5050505050925081805480602002602001604051908101604052809291908181526020016000905b828210156108415760008481526020908190208301805460408051601f600260001961010060018716150201909416939093049283018590048502810185019091528181529283018282801561082d5780601f106108025761010080835404028352916020019161082d565b820191906000526020600020905b81548152906001019060200180831161081057829003601f168201915b505050505081526020019060010190610796565b50505050915080805480602002602001604051908101604052809291908181526020016000905b828210156109135760008481526020908190208301805460408051601f60026000196101006001871615020190941693909304928301859004850281018501909152818152928301828280156108ff5780601f106108d4576101008083540402835291602001916108ff565b820191906000526020600020905b8154815290600101906020018083116108e257829003601f168201915b505050505081526020019060010190610868565b5050505090509450945094509450509193509193565b6133ec90565b6001546001600160a01b031681565b600081600354101580156109525750600082115b61096e5760405162461bcd60e51b81526004016105ce906133ed565b6000828152600460205260409020600b81015460ff1615610993576002915050610abb565b806007015443116109a8576000915050610abb565b806008015443116109bd576001915050610abb565b80600a015481600901541115806109de57506109d761068b565b8160090154105b156109ed576003915050610abb565b6002810154610a00576004915050610abb565b600b810154610100900460ff1615610a1c576007915050610abb565b6002810154600054604080516360d143f160e11b81529051610aa593926001600160a01b03169163c1a287e2916004808301926020929190829003018186803b158015610a6857600080fd5b505afa158015610a7c573d6000803e3d6000fd5b505050506040513d601f19601f82011682018060405250610aa091908101906123fb565b611b24565b4210610ab5576006915050610abb565b60059150505b919050565b6000610acb8261093e565b90506007816007811115610adb57fe5b1415610af95760405162461bcd60e51b81526004016105ce906134bd565b60008281526004602052604090206002546001600160a01b0316331480610bc45750610b23610fe6565b60018054838201546001600160a01b039182169263782d6fe19290911690610b4c904390611b50565b6040518363ffffffff1660e01b8152600401610b699291906131b5565b60206040518083038186803b158015610b8157600080fd5b505afa158015610b95573d6000803e3d6000fd5b505050506040513d601f19601f82011682018060405250610bb99190810190612534565b6001600160601b0316105b610be05760405162461bcd60e51b81526004016105ce9061345d565b600b8101805460ff1916600117905560005b6003820154811015610cec576000546003830180546001600160a01b039092169163591fcdfe919084908110610c2457fe5b6000918252602090912001546004850180546001600160a01b039092169185908110610c4c57fe5b9060005260206000200154856005018581548110610c6657fe5b90600052602060002001866006018681548110610c7f57fe5b9060005260206000200187600201546040518663ffffffff1660e01b8152600401610cae959493929190613252565b600060405180830381600087803b158015610cc857600080fd5b505af1158015610cdc573d6000803e3d6000fd5b505060019092019150610bf29050565b507f789cf55be980739dad1d0699b93b58e806b51c9d96619bfa8fe0a28abaa7b30c83604051610d1c91906132e0565b60405180910390a1505050565b6002546001600160a01b031681565b6000604051610d4690613127565b604080519182900382208282019091526018825277456d7074792053657420476f7665726e6f7220416c70686160401b6020909201919091527fc8c7cdd5af5eea5a174c290055ed8b6db2bf1bb0fa604ed68de0480544c02a11610da8611b78565b30604051602001610dbc94939291906132ee565b6040516020818303038152906040528051906020012090506000604051610de290613132565b604051908190038120610dfb9189908990602001613323565b60405160208183030381529060405280519060200120905060008282604051602001610e289291906130f6565b604051602081830303815290604052805190602001209050600060018288888860405160008152602001604052604051610e65949392919061334b565b6020604051602081039080840390855afa158015610e87573d6000803e3d6000fd5b5050604051601f1901519150506001600160a01b038116610eba5760405162461bcd60e51b81526004016105ce9061349d565b610ec5818a8a61195b565b505050505050505050565b6002546001600160a01b03163314610efa5760405162461bcd60e51b81526004016105ce906134ed565b600280546001600160a01b0319169055565b600a90565b6002546001600160a01b03163314610f3b5760405162461bcd60e51b81526004016105ce9061341d565b600080546040516001600160a01b0390911691633a66f90191839190610f6590879060200161313d565b604051602081830303815290604052856040518563ffffffff1660e01b8152600401610f949493929190613166565b602060405180830381600087803b158015610fae57600080fd5b505af1158015610fc2573d6000803e3d6000fd5b505050506040513d601f19601f8201168201806040525061068691908101906123fb565b6a211654585005212800000090565b6002546001600160a01b0316331461101f5760405162461bcd60e51b81526004016105ce906133ad565b6000805460408051630e18b68160e01b815290516001600160a01b0390921692630e18b6819260048084019382900301818387803b15801561106057600080fd5b505af1158015611074573d6000803e3d6000fd5b50505050565b6000546001600160a01b031681565b60035481565b6000611099610fe6565b600180546001600160a01b03169063782d6fe19033906110ba904390611b50565b6040518363ffffffff1660e01b81526004016110d792919061314b565b60206040518083038186803b1580156110ef57600080fd5b505afa158015611103573d6000803e3d6000fd5b505050506040513d601f19601f820116820180604052506111279190810190612534565b6001600160601b03161161114d5760405162461bcd60e51b81526004016105ce9061348d565b8451865114801561115f575083518651145b801561116c575082518651145b6111885760405162461bcd60e51b81526004016105ce9061344d565b85516111a65760405162461bcd60e51b81526004016105ce9061347d565b6111ae610f0c565b865111156111ce5760405162461bcd60e51b81526004016105ce9061342d565b33600090815260056020526040902054801561124b5760006111ef8261093e565b905060018160078111156111ff57fe5b141561121d5760405162461bcd60e51b81526004016105ce906134ad565b600081600781111561122b57fe5b14156112495760405162461bcd60e51b81526004016105ce9061340d565b505b600061125943610aa0610929565b9050600061126982610aa0610531565b600380546001019055905061127c611cdb565b604051806101a001604052806003548152602001336001600160a01b03168152602001600081526020018b81526020018a815260200189815260200188815260200184815260200183815260200160008152602001600081526020016000151581526020016000151581525090508060046000836000015181526020019081526020016000206000820151816000015560208201518160010160006101000a8154816001600160a01b0302191690836001600160a01b0316021790555060408201518160020155606082015181600301908051906020019061135f929190611d50565b506080820151805161137b916004840191602090910190611db5565b5060a08201518051611397916005840191602090910190611dfc565b5060c082015180516113b3916006840191602090910190611e55565b5060e082015181600701556101008201518160080155610120820151816009015561014082015181600a015561016082015181600b0160006101000a81548160ff02191690831515021790555061018082015181600b0160016101000a81548160ff02191690831515021790555090505080600001516005600083602001516001600160a01b03166001600160a01b03168152602001908152602001600020819055507f7d84a6263ae0d98d3329bd7b46bb4e8d6f98cd35a7adb45c274c8b7fd5ebd5e08160000151338c8c8c8c89898e6040516114999998979695949392919061350b565b60405180910390a15193505050505b95945050505050565b60046114bc8261093e565b60078111156114c757fe5b146114e45760405162461bcd60e51b81526004016105ce906133bd565b600081815260046020818152604080842084548251630d48571f60e31b815292519195946115399442946001600160a01b0390931693636a42b8f8938084019390829003018186803b158015610a6857600080fd5b905060005b60038301548110156116e1576116d983600301828154811061155c57fe5b6000918252602090912001546004850180546001600160a01b03909216918490811061158457fe5b906000526020600020015485600501848154811061159e57fe5b600091825260209182902001805460408051601f600260001961010060018716150201909416939093049283018590048502810185019091528181529283018282801561162c5780601f106116015761010080835404028352916020019161162c565b820191906000526020600020905b81548152906001019060200180831161160f57829003601f168201915b505050505086600601858154811061164057fe5b600091825260209182902001805460408051601f60026000196101006001871615020190941693909304928301859004850281018501909152818152928301828280156116ce5780601f106116a3576101008083540402835291602001916116ce565b820191906000526020600020905b8154815290600101906020018083116116b157829003601f168201915b505050505086611b7c565b60010161153e565b50600282018190556040517f9a2e42fd6722813d69113e7d0079d3d940171428df7373df9c7f7617cfda289290610d1c9085908490613639565b60405161059990613132565b61172f611eae565b5060008281526004602090815260408083206001600160a01b0385168452600c018252918290208251606081018452905460ff80821615158352610100820416151592820192909252620100009091046001600160601b0316918101919091525b92915050565b60056117a18261093e565b60078111156117ac57fe5b146117c95760405162461bcd60e51b81526004016105ce906133cd565b6000818152600460205260408120600b8101805461ff001916610100179055905b600382015481101561191f576000546004830180546001600160a01b0390921691630825f38f91908490811061181c57fe5b906000526020600020015484600301848154811061183657fe5b6000918252602090912001546004860180546001600160a01b03909216918690811061185e57fe5b906000526020600020015486600501868154811061187857fe5b9060005260206000200187600601878154811061189157fe5b9060005260206000200188600201546040518763ffffffff1660e01b81526004016118c0959493929190613252565b6000604051808303818588803b1580156118d957600080fd5b505af11580156118ed573d6000803e3d6000fd5b50505050506040513d6000823e601f3d908101601f191682016040526119169190810190612419565b506001016117ea565b507f712ae1383f79ac853f8d882153778e0260ef8f03b504e2866e0593e04d2b291f8260405161194f91906132e0565b60405180910390a15050565b60016119668361093e565b600781111561197157fe5b1461198e5760405162461bcd60e51b81526004016105ce906134cd565b60008281526004602090815260408083206001600160a01b0387168452600c8101909252909120805460ff16156119d75760405162461bcd60e51b81526004016105ce906133fd565b600154600783015460405163782d6fe160e01b81526000926001600160a01b03169163782d6fe191611a0d918a916004016131b5565b60206040518083038186803b158015611a2557600080fd5b505afa158015611a39573d6000803e3d6000fd5b505050506040513d601f19601f82011682018060405250611a5d9190810190612534565b90508315611a8657611a7c8360090154826001600160601b0316611b24565b6009840155611aa3565b611a9d83600a0154826001600160601b0316611b24565b600a8401555b8154600160ff199091161761ff00191661010085151502176dffffffffffffffffffffffff00001916620100006001600160601b038316021782556040517f877856338e13f63d0c36822ff0ef736b80934cd90574a3a5bc9262c39d217c4690611b149088908890889086906131c3565b60405180910390a1505050505050565b600082820183811015611b495760405162461bcd60e51b81526004016105ce9061343d565b9392505050565b600082821115611b725760405162461bcd60e51b81526004016105ce906134dd565b50900390565b4690565b6000546040516001600160a01b039091169063f2b0653790611baa90889088908890889088906020016131f8565b604051602081830303815290604052805190602001206040518263ffffffff1660e01b8152600401611bdc91906132e0565b60206040518083038186803b158015611bf457600080fd5b505afa158015611c08573d6000803e3d6000fd5b505050506040513d601f19601f82011682018060405250611c2c91908101906123dd565b15611c495760405162461bcd60e51b81526004016105ce9061346d565b600054604051633a66f90160e01b81526001600160a01b0390911690633a66f90190611c8190889088908890889088906004016131f8565b602060405180830381600087803b158015611c9b57600080fd5b505af1158015611caf573d6000803e3d6000fd5b505050506040513d601f19601f82011682018060405250611cd391908101906123fb565b505050505050565b604051806101a001604052806000815260200160006001600160a01b031681526020016000815260200160608152602001606081526020016060815260200160608152602001600081526020016000815260200160008152602001600081526020016000151581526020016000151581525090565b828054828255906000526020600020908101928215611da5579160200282015b82811115611da557825182546001600160a01b0319166001600160a01b03909116178255602090920191600190910190611d70565b50611db1929150611ece565b5090565b828054828255906000526020600020908101928215611df0579160200282015b82811115611df0578251825591602001919060010190611dd5565b50611db1929150611ef2565b828054828255906000526020600020908101928215611e49579160200282015b82811115611e495782518051611e39918491602090910190611f0c565b5091602001919060010190611e1c565b50611db1929150611f79565b828054828255906000526020600020908101928215611ea2579160200282015b82811115611ea25782518051611e92918491602090910190611f0c565b5091602001919060010190611e75565b50611db1929150611f9c565b604080516060810182526000808252602082018190529181019190915290565b61053591905b80821115611db15780546001600160a01b0319168155600101611ed4565b61053591905b80821115611db15760008155600101611ef8565b828054600181600116156101000203166002900490600052602060002090601f016020900481019282601f10611f4d57805160ff1916838001178555611df0565b82800160010185558215611df05791820182811115611df0578251825591602001919060010190611dd5565b61053591905b80821115611db1576000611f938282611fbf565b50600101611f7f565b61053591905b80821115611db1576000611fb68282611fbf565b50600101611fa2565b50805460018160011615610100020316600290046000825580601f10611fe55750612003565b601f0160209004906000526020600020908101906120039190611ef2565b50565b80356117908161378d565b600082601f83011261202257600080fd5b81356120356120308261366e565b613647565b9150818183526020840193506020810190508385602084028201111561205a57600080fd5b60005b8381101561208657816120708882612006565b845250602092830192919091019060010161205d565b5050505092915050565b600082601f8301126120a157600080fd5b81356120af6120308261366e565b81815260209384019390925082018360005b8381101561208657813586016120d788826121e6565b84525060209283019291909101906001016120c1565b600082601f8301126120fe57600080fd5b813561210c6120308261366e565b81815260209384019390925082018360005b83811015612086578135860161213488826121e6565b845250602092830192919091019060010161211e565b600082601f83011261215b57600080fd5b81356121696120308261366e565b9150818183526020840193506020810190508385602084028201111561218e57600080fd5b60005b8381101561208657816121a488826121d0565b8452506020928301929190910190600101612191565b8035611790816137a1565b8051611790816137a1565b8035611790816137aa565b8051611790816137aa565b600082601f8301126121f757600080fd5b81356122056120308261368f565b9150808252602083016020830185838301111561222157600080fd5b61222c838284613741565b50505092915050565b600082601f83011261224657600080fd5b81516122546120308261368f565b9150808252602083016020830185838301111561227057600080fd5b61222c83828461374d565b8035611790816137b3565b8051611790816137bc565b6000602082840312156122a357600080fd5b60006122af8484612006565b949350505050565b600080604083850312156122ca57600080fd5b60006122d68585612006565b92505060206122e7858286016121d0565b9150509250929050565b600080600080600060a0868803121561230957600080fd5b853567ffffffffffffffff81111561232057600080fd5b61232c88828901612011565b955050602086013567ffffffffffffffff81111561234957600080fd5b6123558882890161214a565b945050604086013567ffffffffffffffff81111561237257600080fd5b61237e888289016120ed565b935050606086013567ffffffffffffffff81111561239b57600080fd5b6123a788828901612090565b925050608086013567ffffffffffffffff8111156123c457600080fd5b6123d0888289016121e6565b9150509295509295909350565b6000602082840312156123ef57600080fd5b60006122af84846121c5565b60006020828403121561240d57600080fd5b60006122af84846121db565b60006020828403121561242b57600080fd5b815167ffffffffffffffff81111561244257600080fd5b6122af84828501612235565b60006020828403121561246057600080fd5b60006122af84846121d0565b6000806040838503121561247f57600080fd5b600061248b85856121d0565b92505060206122e785828601612006565b600080604083850312156124af57600080fd5b60006124bb85856121d0565b92505060206122e7858286016121ba565b600080600080600060a086880312156124e457600080fd5b60006124f088886121d0565b9550506020612501888289016121ba565b94505060406125128882890161227b565b9350506060612523888289016121d0565b92505060806123d0888289016121d0565b60006020828403121561254657600080fd5b60006122af8484612286565b600061255e838361258d565b505060200190565b6000611b49838361272f565b600061255e8383612715565b6125878161370e565b82525050565b612587816136d6565b60006125a1826136c9565b6125ab81856136cd565b93506125b6836136b7565b8060005b838110156125e45781516125ce8882612552565b97506125d9836136b7565b9250506001016125ba565b509495945050505050565b60006125fa826136c9565b61260481856136cd565b935083602082028501612616856136b7565b8060005b8581101561265057848403895281516126338582612566565b945061263e836136b7565b60209a909a019992505060010161261a565b5091979650505050505050565b6000612668826136c9565b61267281856136cd565b935083602082028501612684856136b7565b8060005b8581101561265057848403895281516126a18582612566565b94506126ac836136b7565b60209a909a0199925050600101612688565b60006126c9826136c9565b6126d381856136cd565b93506126de836136b7565b8060005b838110156125e45781516126f68882612572565b9750612701836136b7565b9250506001016126e2565b612587816136e1565b61258781610535565b61258761272a82610535565b610535565b600061273a826136c9565b61274481856136cd565b935061275481856020860161374d565b61275d81613779565b9093019392505050565b60008154600181166000811461278457600181146127aa576127e9565b607f600283041661279581876136cd565b60ff19841681529550506020850192506127e9565b600282046127b881876136cd565b95506127c3856136bd565b60005b828110156127e2578154888201526001909101906020016127c6565b8701945050505b505092915050565b61258781613715565b61258781613720565b6125878161372b565b60006128196039836136cd565b7f476f7665726e6f72416c7068613a3a5f5f61636365707441646d696e3a20736581527f6e646572206d75737420626520676f7620677561726469616e00000000000000602082015260400192915050565b60006128786044836136cd565b7f476f7665726e6f72416c7068613a3a71756575653a2070726f706f73616c206381527f616e206f6e6c79206265207175657565642069662069742069732073756363656020820152631959195960e21b604082015260600192915050565b60006128e46045836136cd565b7f476f7665726e6f72416c7068613a3a657865637574653a2070726f706f73616c81527f2063616e206f6e6c7920626520657865637574656420696620697420697320716020820152641d595d595960da1b604082015260600192915050565b6000612951600283610abb565b61190160f01b815260020192915050565b600061296f604c836136cd565b7f476f7665726e6f72416c7068613a3a5f5f6578656375746553657454696d656c81527f6f636b50656e64696e6741646d696e3a2073656e646572206d7573742062652060208201526b33b7bb1033bab0b93234b0b760a11b604082015260600192915050565b60006129e36018836136cd565b7f73657450656e64696e6741646d696e2861646472657373290000000000000000815260200192915050565b6000612a1c6029836136cd565b7f476f7665726e6f72416c7068613a3a73746174653a20696e76616c69642070728152681bdc1bdcd85b081a5960ba1b602082015260400192915050565b6000612a67602d836136cd565b7f476f7665726e6f72416c7068613a3a5f63617374566f74653a20766f7465722081526c185b1c9958591e481d9bdd1959609a1b602082015260400192915050565b6000612ab66059836136cd565b7f476f7665726e6f72416c7068613a3a70726f706f73653a206f6e65206c69766581527f2070726f706f73616c207065722070726f706f7365722c20666f756e6420616e60208201527f20616c72656164792070656e64696e672070726f706f73616c00000000000000604082015260600192915050565b6000612b3b604a836136cd565b7f476f7665726e6f72416c7068613a3a5f5f717565756553657454696d656c6f6381527f6b50656e64696e6741646d696e3a2073656e646572206d75737420626520676f6020820152693b1033bab0b93234b0b760b11b604082015260600192915050565b6000612bad6028836136cd565b7f476f7665726e6f72416c7068613a3a70726f706f73653a20746f6f206d616e7981526720616374696f6e7360c01b602082015260400192915050565b6000612bf76011836136cd565b706164646974696f6e206f766572666c6f7760781b815260200192915050565b6000612c24604383610abb565b7f454950373132446f6d61696e28737472696e67206e616d652c75696e7432353681527f20636861696e49642c6164647265737320766572696679696e67436f6e74726160208201526263742960e81b604082015260430192915050565b6000612c8f602783610abb565b7f42616c6c6f742875696e743235362070726f706f73616c49642c626f6f6c20738152667570706f72742960c81b602082015260270192915050565b6000612cd86044836136cd565b7f476f7665726e6f72416c7068613a3a70726f706f73653a2070726f706f73616c81527f2066756e6374696f6e20696e666f726d6174696f6e206172697479206d69736d6020820152630c2e8c6d60e31b604082015260600192915050565b6000612d44602f836136cd565b7f476f7665726e6f72416c7068613a3a63616e63656c3a2070726f706f7365722081526e18589bdd99481d1a1c995cda1bdb19608a1b602082015260400192915050565b6000612d956044836136cd565b7f476f7665726e6f72416c7068613a3a5f71756575654f725265766572743a207081527f726f706f73616c20616374696f6e20616c7265616479207175657565642061746020820152632065746160e01b604082015260600192915050565b6000612e01602c836136cd565b7f476f7665726e6f72416c7068613a3a70726f706f73653a206d7573742070726f81526b7669646520616374696f6e7360a01b602082015260400192915050565b6000612e4f603f836136cd565b7f476f7665726e6f72416c7068613a3a70726f706f73653a2070726f706f73657281527f20766f7465732062656c6f772070726f706f73616c207468726573686f6c6400602082015260400192915050565b6000612eae602f836136cd565b7f476f7665726e6f72416c7068613a3a63617374566f746542795369673a20696e81526e76616c6964207369676e617475726560881b602082015260400192915050565b6000612eff6058836136cd565b7f476f7665726e6f72416c7068613a3a70726f706f73653a206f6e65206c69766581527f2070726f706f73616c207065722070726f706f7365722c20666f756e6420616e60208201527f20616c7265616479206163746976652070726f706f73616c0000000000000000604082015260600192915050565b6000612f846036836136cd565b7f476f7665726e6f72416c7068613a3a63616e63656c3a2063616e6e6f742063618152751b98d95b08195e1958dd5d1959081c1c9bdc1bdcd85b60521b602082015260400192915050565b6000612fdc602a836136cd565b7f476f7665726e6f72416c7068613a3a5f63617374566f74653a20766f74696e67815269081a5cc818db1bdcd95960b21b602082015260400192915050565b60006130286015836136cd565b747375627472616374696f6e20756e646572666c6f7760581b815260200192915050565b60006130596036836136cd565b7f476f7665726e6f72416c7068613a3a5f5f61626469636174653a2073656e6465815275391036bab9ba1031329033b7bb1033bab0b93234b0b760511b602082015260400192915050565b805160608301906130b5848261270c565b5060208201516130c8602085018261270c565b50604082015161107460408501826130ed565b612587816136fc565b61258781613736565b61258781613702565b600061310182612944565b915061310d828561271e565b60208201915061311d828461271e565b5060200192915050565b600061179082612c17565b600061179082612c82565b60208101611790828461258d565b60408101613159828561257e565b611b496020830184612715565b60a08101613174828761258d565b6131816020830186612803565b8181036040830152613192816129d6565b905081810360608301526131a6818561272f565b90506114a86080830184612715565b60408101613159828561258d565b608081016131d1828761258d565b6131de6020830186612715565b6131eb604083018561270c565b6114a860608301846130e4565b60a08101613206828861258d565b6132136020830187612715565b8181036040830152613225818661272f565b90508181036060830152613239818561272f565b90506132486080830184612715565b9695505050505050565b60a08101613260828861258d565b61326d6020830187612715565b818103604083015261327f8186612767565b905081810360608301526132398185612767565b608080825281016132a48187612596565b905081810360208301526132b881866126be565b905081810360408301526132cc818561265d565b9050818103606083015261324881846125ef565b602081016117908284612715565b608081016132fc8287612715565b6133096020830186612715565b6133166040830185612715565b6114a8606083018461258d565b606081016133318286612715565b61333e6020830185612715565b6122af604083018461270c565b608081016133598287612715565b61336660208301866130db565b6133736040830185612715565b6114a86060830184612715565b6020810161179082846127f1565b6020810161179082846127fa565b60208082528101611b49818461272f565b602080825281016117908161280c565b602080825281016117908161286b565b60208082528101611790816128d7565b6020808252810161179081612962565b6020808252810161179081612a0f565b6020808252810161179081612a5a565b6020808252810161179081612aa9565b6020808252810161179081612b2e565b6020808252810161179081612ba0565b6020808252810161179081612bea565b6020808252810161179081612ccb565b6020808252810161179081612d37565b6020808252810161179081612d88565b6020808252810161179081612df4565b6020808252810161179081612e42565b6020808252810161179081612ea1565b6020808252810161179081612ef2565b6020808252810161179081612f77565b6020808252810161179081612fcf565b602080825281016117908161301b565b602080825281016117908161304c565b6060810161179082846130a4565b610120810161351a828c612715565b613527602083018b61257e565b8181036040830152613539818a612596565b9050818103606083015261354d81896126be565b90508181036080830152613561818861265d565b905081810360a083015261357581876125ef565b905061358460c0830186612715565b61359160e0830185612715565b8181036101008301526135a4818461272f565b9b9a5050505050505050505050565b61012081016135c2828c612715565b6135cf602083018b61258d565b6135dc604083018a612715565b6135e96060830189612715565b6135f66080830188612715565b61360360a0830187612715565b61361060c0830186612715565b61361d60e083018561270c565b61362b61010083018461270c565b9a9950505050505050505050565b604081016131598285612715565b60405181810167ffffffffffffffff8111828210171561366657600080fd5b604052919050565b600067ffffffffffffffff82111561368557600080fd5b5060209081020190565b600067ffffffffffffffff8211156136a657600080fd5b506020601f91909101601f19160190565b60200190565b60009081526020902090565b5190565b90815260200190565b6000611790826136f0565b151590565b80610abb81613783565b6001600160a01b031690565b60ff1690565b6001600160601b031690565b6000611790825b6000611790826136d6565b6000611790826136e6565b600061179082610535565b600061179082613702565b82818337506000910152565b60005b83811015613768578181015183820152602001613750565b838111156110745750506000910152565b601f01601f191690565b6008811061200357fe5b613796816136d6565b811461200357600080fd5b613796816136e1565b61379681610535565b613796816136fc565b6137968161370256fea365627a7a72315820ceef92dc19945b6dd66c7a78686b93353c50acd8ff9d3a75ca170788267de2fe6c6578706572696d656e74616cf564736f6c63430005110040",
  "source": "/*\n    Copyright 2021 Empty Set Squad <emptysetsquad@protonmail.com>\n\n    Licensed under the Apache License, Version 2.0 (the \"License\");\n    you may not use this file except in compliance with the License.\n    You may obtain a copy of the License at\n\n    http://www.apache.org/licenses/LICENSE-2.0\n\n    Unless required by applicable law or agreed to in writing, software\n    distributed under the License is distributed on an \"AS IS\" BASIS,\n    WITHOUT WARRANTIES OR CONDITIONS OF ANY KIND, either express or implied.\n    See the License for the specific language governing permissions and\n    limitations under the License.\n*/\n\npragma solidity 0.5.17;\npragma experimental ABIEncoderV2;\n\n/*\n * audit-info: Forked from Compound's GovernorAlpha contract:\n *             https://github.com/compound-finance/compound-protocol/blob/master/contracts/Governance/GovernorAlpha.sol\n *\n *             Sections that have been changed from the original have been denoted with audit notes\n *             Additionally \"Comp\" has been renamed to \"Stake\" throughout\n */\ncontract GovernorAlpha {\n    /*\n     * audit-info: Beginning of modified code section\n     */\n\n    /// @notice The name of this contract\n    string public constant name = \"Empty Set Governor Alpha\";\n\n    /// @notice The number of votes in support of a proposal required in order for a quorum to be reached and for a vote to succeed\n    /// @dev Initial ESDS supply will be approximately 1.6b - 2.0b depending on initial incentive programs\n    function quorumVotes() public pure returns (uint) { return 200_000_000e18; } // ~10% of Stake\n\n    /// @notice The number of votes required in order for a voter to become a proposer\n    function proposalThreshold() public pure returns (uint) { return 40_000_000e18; } // ~2.0% of Stake\n\n    /// @notice The maximum number of actions that can be included in a proposal\n    function proposalMaxOperations() public pure returns (uint) { return 10; } // 10 actions\n\n    /// @notice The delay before voting on a proposal may take place, once proposed\n    function votingDelay() public pure returns (uint) { return 13292; } // ~2 days in blocks (assuming 13s blocks)\n\n    /// @notice The duration of voting on a proposal, in blocks\n    function votingPeriod() public pure returns (uint) { return 46523; } // ~7 days in blocks (assuming 13s blocks)\n\n    /*\n     * audit-info: End of modified code section\n     */\n\n    /// @notice The address of the Empty Set Dollar Protocol Timelock\n    TimelockInterface public timelock;\n\n    /// @notice The address of the Empty Set Dollar governance token\n    StakeInterface public stake;\n\n    /// @notice The address of the Governor Guardian\n    address public guardian;\n\n    /// @notice The total number of proposals\n    uint public proposalCount;\n\n    struct Proposal {\n        /// @notice Unique id for looking up a proposal\n        uint id;\n\n        /// @notice Creator of the proposal\n        address proposer;\n\n        /// @notice The timestamp that the proposal will be available for execution, set once the vote succeeds\n        uint eta;\n\n        /// @notice the ordered list of target addresses for calls to be made\n        address[] targets;\n\n        /// @notice The ordered list of values (i.e. msg.value) to be passed to the calls to be made\n        uint[] values;\n\n        /// @notice The ordered list of function signatures to be called\n        string[] signatures;\n\n        /// @notice The ordered list of calldata to be passed to each call\n        bytes[] calldatas;\n\n        /// @notice The block at which voting begins: holders must delegate their votes prior to this block\n        uint startBlock;\n\n        /// @notice The block at which voting ends: votes must be cast prior to this block\n        uint endBlock;\n\n        /// @notice Current number of votes in favor of this proposal\n        uint forVotes;\n\n        /// @notice Current number of votes in opposition to this proposal\n        uint againstVotes;\n\n        /// @notice Flag marking whether the proposal has been canceled\n        bool canceled;\n\n        /// @notice Flag marking whether the proposal has been executed\n        bool executed;\n\n        /// @notice Receipts of ballots for the entire set of voters\n        mapping (address => Receipt) receipts;\n    }\n\n    /// @notice Ballot receipt record for a voter\n    struct Receipt {\n        /// @notice Whether or not a vote has been cast\n        bool hasVoted;\n\n        /// @notice Whether or not the voter supports the proposal\n        bool support;\n\n        /// @notice The number of votes the voter had, which were cast\n        uint96 votes;\n    }\n\n    /// @notice Possible states that a proposal may be in\n    enum ProposalState {\n        Pending,\n        Active,\n        Canceled,\n        Defeated,\n        Succeeded,\n        Queued,\n        Expired,\n        Executed\n    }\n\n    /// @notice The official record of all proposals ever proposed\n    mapping (uint => Proposal) public proposals;\n\n    /// @notice The latest proposal for each proposer\n    mapping (address => uint) public latestProposalIds;\n\n    /// @notice The EIP-712 typehash for the contract's domain\n    bytes32 public constant DOMAIN_TYPEHASH = keccak256(\"EIP712Domain(string name,uint256 chainId,address verifyingContract)\");\n\n    /// @notice The EIP-712 typehash for the ballot struct used by the contract\n    bytes32 public constant BALLOT_TYPEHASH = keccak256(\"Ballot(uint256 proposalId,bool support)\");\n\n    /// @notice An event emitted when a new proposal is created\n    event ProposalCreated(uint id, address proposer, address[] targets, uint[] values, string[] signatures, bytes[] calldatas, uint startBlock, uint endBlock, string description);\n\n    /// @notice An event emitted when a vote has been cast on a proposal\n    event VoteCast(address voter, uint proposalId, bool support, uint votes);\n\n    /// @notice An event emitted when a proposal has been canceled\n    event ProposalCanceled(uint id);\n\n    /// @notice An event emitted when a proposal has been queued in the Timelock\n    event ProposalQueued(uint id, uint eta);\n\n    /// @notice An event emitted when a proposal has been executed in the Timelock\n    event ProposalExecuted(uint id);\n\n    constructor(address timelock_, address stake_, address guardian_) public {\n        timelock = TimelockInterface(timelock_);\n        stake = StakeInterface(stake_);\n        guardian = guardian_;\n    }\n\n    function propose(address[] memory targets, uint[] memory values, string[] memory signatures, bytes[] memory calldatas, string memory description) public returns (uint) {\n        require(stake.getPriorVotes(msg.sender, sub256(block.number, 1)) > proposalThreshold(), \"GovernorAlpha::propose: proposer votes below proposal threshold\");\n        require(targets.length == values.length && targets.length == signatures.length && targets.length == calldatas.length, \"GovernorAlpha::propose: proposal function information arity mismatch\");\n        require(targets.length != 0, \"GovernorAlpha::propose: must provide actions\");\n        require(targets.length <= proposalMaxOperations(), \"GovernorAlpha::propose: too many actions\");\n\n        uint latestProposalId = latestProposalIds[msg.sender];\n        if (latestProposalId != 0) {\n            ProposalState proposersLatestProposalState = state(latestProposalId);\n            require(proposersLatestProposalState != ProposalState.Active, \"GovernorAlpha::propose: one live proposal per proposer, found an already active proposal\");\n            require(proposersLatestProposalState != ProposalState.Pending, \"GovernorAlpha::propose: one live proposal per proposer, found an already pending proposal\");\n        }\n\n        uint startBlock = add256(block.number, votingDelay());\n        uint endBlock = add256(startBlock, votingPeriod());\n\n        proposalCount++;\n        Proposal memory newProposal = Proposal({\n        id: proposalCount,\n        proposer: msg.sender,\n        eta: 0,\n        targets: targets,\n        values: values,\n        signatures: signatures,\n        calldatas: calldatas,\n        startBlock: startBlock,\n        endBlock: endBlock,\n        forVotes: 0,\n        againstVotes: 0,\n        canceled: false,\n        executed: false\n        });\n\n        proposals[newProposal.id] = newProposal;\n        latestProposalIds[newProposal.proposer] = newProposal.id;\n\n        emit ProposalCreated(newProposal.id, msg.sender, targets, values, signatures, calldatas, startBlock, endBlock, description);\n        return newProposal.id;\n    }\n\n    function queue(uint proposalId) public {\n        require(state(proposalId) == ProposalState.Succeeded, \"GovernorAlpha::queue: proposal can only be queued if it is succeeded\");\n        Proposal storage proposal = proposals[proposalId];\n        uint eta = add256(block.timestamp, timelock.delay());\n        for (uint i = 0; i < proposal.targets.length; i++) {\n            _queueOrRevert(proposal.targets[i], proposal.values[i], proposal.signatures[i], proposal.calldatas[i], eta);\n        }\n        proposal.eta = eta;\n        emit ProposalQueued(proposalId, eta);\n    }\n\n    function _queueOrRevert(address target, uint value, string memory signature, bytes memory data, uint eta) internal {\n        require(!timelock.queuedTransactions(keccak256(abi.encode(target, value, signature, data, eta))), \"GovernorAlpha::_queueOrRevert: proposal action already queued at eta\");\n        timelock.queueTransaction(target, value, signature, data, eta);\n    }\n\n    function execute(uint proposalId) public payable {\n        require(state(proposalId) == ProposalState.Queued, \"GovernorAlpha::execute: proposal can only be executed if it is queued\");\n        Proposal storage proposal = proposals[proposalId];\n        proposal.executed = true;\n        for (uint i = 0; i < proposal.targets.length; i++) {\n            timelock.executeTransaction.value(proposal.values[i])(proposal.targets[i], proposal.values[i], proposal.signatures[i], proposal.calldatas[i], proposal.eta);\n        }\n        emit ProposalExecuted(proposalId);\n    }\n\n    function cancel(uint proposalId) public {\n        ProposalState state = state(proposalId);\n        require(state != ProposalState.Executed, \"GovernorAlpha::cancel: cannot cancel executed proposal\");\n\n        Proposal storage proposal = proposals[proposalId];\n        require(msg.sender == guardian || stake.getPriorVotes(proposal.proposer, sub256(block.number, 1)) < proposalThreshold(), \"GovernorAlpha::cancel: proposer above threshold\");\n\n        proposal.canceled = true;\n        for (uint i = 0; i < proposal.targets.length; i++) {\n            timelock.cancelTransaction(proposal.targets[i], proposal.values[i], proposal.signatures[i], proposal.calldatas[i], proposal.eta);\n        }\n\n        emit ProposalCanceled(proposalId);\n    }\n\n    function getActions(uint proposalId) public view returns (address[] memory targets, uint[] memory values, string[] memory signatures, bytes[] memory calldatas) {\n        Proposal storage p = proposals[proposalId];\n        return (p.targets, p.values, p.signatures, p.calldatas);\n    }\n\n    function getReceipt(uint proposalId, address voter) public view returns (Receipt memory) {\n        return proposals[proposalId].receipts[voter];\n    }\n\n    function state(uint proposalId) public view returns (ProposalState) {\n        require(proposalCount >= proposalId && proposalId > 0, \"GovernorAlpha::state: invalid proposal id\");\n        Proposal storage proposal = proposals[proposalId];\n        if (proposal.canceled) {\n            return ProposalState.Canceled;\n        } else if (block.number <= proposal.startBlock) {\n            return ProposalState.Pending;\n        } else if (block.number <= proposal.endBlock) {\n            return ProposalState.Active;\n        } else if (proposal.forVotes <= proposal.againstVotes || proposal.forVotes < quorumVotes()) {\n            return ProposalState.Defeated;\n        } else if (proposal.eta == 0) {\n            return ProposalState.Succeeded;\n        } else if (proposal.executed) {\n            return ProposalState.Executed;\n        } else if (block.timestamp >= add256(proposal.eta, timelock.GRACE_PERIOD())) {\n            return ProposalState.Expired;\n        } else {\n            return ProposalState.Queued;\n        }\n    }\n\n    function castVote(uint proposalId, bool support) public {\n        return _castVote(msg.sender, proposalId, support);\n    }\n\n    function castVoteBySig(uint proposalId, bool support, uint8 v, bytes32 r, bytes32 s) public {\n        bytes32 domainSeparator = keccak256(abi.encode(DOMAIN_TYPEHASH, keccak256(bytes(name)), getChainId(), address(this)));\n        bytes32 structHash = keccak256(abi.encode(BALLOT_TYPEHASH, proposalId, support));\n        bytes32 digest = keccak256(abi.encodePacked(\"\\x19\\x01\", domainSeparator, structHash));\n        address signatory = ecrecover(digest, v, r, s);\n        require(signatory != address(0), \"GovernorAlpha::castVoteBySig: invalid signature\");\n        return _castVote(signatory, proposalId, support);\n    }\n\n    function _castVote(address voter, uint proposalId, bool support) internal {\n        require(state(proposalId) == ProposalState.Active, \"GovernorAlpha::_castVote: voting is closed\");\n        Proposal storage proposal = proposals[proposalId];\n        Receipt storage receipt = proposal.receipts[voter];\n        require(receipt.hasVoted == false, \"GovernorAlpha::_castVote: voter already voted\");\n        uint96 votes = stake.getPriorVotes(voter, proposal.startBlock);\n\n        if (support) {\n            proposal.forVotes = add256(proposal.forVotes, votes);\n        } else {\n            proposal.againstVotes = add256(proposal.againstVotes, votes);\n        }\n\n        receipt.hasVoted = true;\n        receipt.support = support;\n        receipt.votes = votes;\n\n        emit VoteCast(voter, proposalId, support, votes);\n    }\n\n    function __acceptAdmin() public {\n        require(msg.sender == guardian, \"GovernorAlpha::__acceptAdmin: sender must be gov guardian\");\n        timelock.acceptAdmin();\n    }\n\n    function __abdicate() public {\n        require(msg.sender == guardian, \"GovernorAlpha::__abdicate: sender must be gov guardian\");\n        guardian = address(0);\n    }\n\n    function __queueSetTimelockPendingAdmin(address newPendingAdmin, uint eta) public {\n        require(msg.sender == guardian, \"GovernorAlpha::__queueSetTimelockPendingAdmin: sender must be gov guardian\");\n        timelock.queueTransaction(address(timelock), 0, \"setPendingAdmin(address)\", abi.encode(newPendingAdmin), eta);\n    }\n\n    function __executeSetTimelockPendingAdmin(address newPendingAdmin, uint eta) public {\n        require(msg.sender == guardian, \"GovernorAlpha::__executeSetTimelockPendingAdmin: sender must be gov guardian\");\n        timelock.executeTransaction(address(timelock), 0, \"setPendingAdmin(address)\", abi.encode(newPendingAdmin), eta);\n    }\n\n    function add256(uint256 a, uint256 b) internal pure returns (uint) {\n        uint c = a + b;\n        require(c >= a, \"addition overflow\");\n        return c;\n    }\n\n    function sub256(uint256 a, uint256 b) internal pure returns (uint) {\n        require(b <= a, \"subtraction underflow\");\n        return a - b;\n    }\n\n    function getChainId() internal pure returns (uint) {\n        uint chainId;\n        assembly { chainId := chainid() }\n        return chainId;\n    }\n}\n\ninterface TimelockInterface {\n    function delay() external view returns (uint);\n    function GRACE_PERIOD() external view returns (uint);\n    function acceptAdmin() external;\n    function queuedTransactions(bytes32 hash) external view returns (bool);\n    function queueTransaction(address target, uint value, string calldata signature, bytes calldata data, uint eta) external returns (bytes32);\n    function cancelTransaction(address target, uint value, string calldata signature, bytes calldata data, uint eta) external;\n    function executeTransaction(address target, uint value, string calldata signature, bytes calldata data, uint eta) external payable returns (bytes memory);\n}\n\ninterface StakeInterface {\n    function getPriorVotes(address account, uint blockNumber) external view returns (uint96);\n}",
  "sourcePath": "/Users/kbrizzle/code/emptyset/protocol/contracts/src/governance/GovernorAlpha.sol",
  "compiler": {
    "name": "solc",
    "version": "0.5.17+commit.d19bba13.Emscripten.clang"
  },
  "schemaVersion": "3.4.3",
  "updatedAt": "2022-06-21T05:46:13.291Z",
  "devdoc": {
    "methods": {
      "quorumVotes()": {
        "details": "Initial ESDS supply will be approximately 1.6b - 2.0b depending on initial incentive programs"
      }
    }
  },
  "userdoc": {
    "methods": {
      "proposalMaxOperations()": {
        "notice": "The maximum number of actions that can be included in a proposal"
      },
      "proposalThreshold()": {
        "notice": "The number of votes required in order for a voter to become a proposer"
      },
      "quorumVotes()": {
        "notice": "The number of votes in support of a proposal required in order for a quorum to be reached and for a vote to succeed"
      },
      "votingDelay()": {
        "notice": "The delay before voting on a proposal may take place, once proposed"
      },
      "votingPeriod()": {
        "notice": "The duration of voting on a proposal, in blocks"
      }
    }
  }
}