{
  "contractName": "ReserveImpl",
  "abi": [
    {
      "anonymous": false,
      "inputs": [
        {
          "indexed": true,
          "internalType": "address",
          "name": "account",
          "type": "address"
        },
        {
          "indexed": false,
          "internalType": "uint256",
          "name": "borrowAmount",
          "type": "uint256"
        }
      ],
      "name": "Borrow",
      "type": "event"
    },
    {
      "anonymous": false,
      "inputs": [
        {
          "indexed": false,
          "internalType": "uint256",
          "name": "burnAmount",
          "type": "uint256"
        }
      ],
      "name": "BurnStake",
      "type": "event"
    },
    {
      "anonymous": false,
      "inputs": [
        {
          "indexed": true,
          "internalType": "address",
          "name": "account",
          "type": "address"
        },
        {
          "indexed": false,
          "internalType": "uint256",
          "name": "mintAmount",
          "type": "uint256"
        },
        {
          "indexed": false,
          "internalType": "uint256",
          "name": "costAmount",
          "type": "uint256"
        }
      ],
      "name": "Mint",
      "type": "event"
    },
    {
      "anonymous": false,
      "inputs": [
        {
          "indexed": false,
          "internalType": "address",
          "name": "account",
          "type": "address"
        },
        {
          "indexed": false,
          "internalType": "uint256",
          "name": "mintAmount",
          "type": "uint256"
        }
      ],
      "name": "MintStake",
      "type": "event"
    },
    {
      "anonymous": false,
      "inputs": [
        {
          "indexed": true,
          "internalType": "address",
          "name": "makerToken",
          "type": "address"
        },
        {
          "indexed": true,
          "internalType": "address",
          "name": "takerToken",
          "type": "address"
        },
        {
          "indexed": false,
          "internalType": "uint256",
          "name": "price",
          "type": "uint256"
        },
        {
          "indexed": false,
          "internalType": "uint256",
          "name": "amount",
          "type": "uint256"
        }
      ],
      "name": "OrderRegistered",
      "type": "event"
    },
    {
      "anonymous": false,
      "inputs": [
        {
          "indexed": false,
          "internalType": "address",
          "name": "newOwner",
          "type": "address"
        }
      ],
      "name": "OwnerUpdate",
      "type": "event"
    },
    {
      "anonymous": false,
      "inputs": [
        {
          "indexed": false,
          "internalType": "bool",
          "name": "newPaused",
          "type": "bool"
        }
      ],
      "name": "PausedUpdate",
      "type": "event"
    },
    {
      "anonymous": false,
      "inputs": [
        {
          "indexed": false,
          "internalType": "address",
          "name": "newPauser",
          "type": "address"
        }
      ],
      "name": "PauserUpdate",
      "type": "event"
    },
    {
      "anonymous": false,
      "inputs": [
        {
          "indexed": true,
          "internalType": "address",
          "name": "account",
          "type": "address"
        },
        {
          "indexed": false,
          "internalType": "uint256",
          "name": "costAmount",
          "type": "uint256"
        },
        {
          "indexed": false,
          "internalType": "uint256",
          "name": "redeemAmount",
          "type": "uint256"
        }
      ],
      "name": "Redeem",
      "type": "event"
    },
    {
      "anonymous": false,
      "inputs": [
        {
          "indexed": false,
          "internalType": "uint256",
          "name": "amount",
          "type": "uint256"
        }
      ],
      "name": "RedeemVault",
      "type": "event"
    },
    {
      "anonymous": false,
      "inputs": [
        {
          "indexed": false,
          "internalType": "address",
          "name": "newRegistry",
          "type": "address"
        }
      ],
      "name": "RegistryUpdate",
      "type": "event"
    },
    {
      "anonymous": false,
      "inputs": [
        {
          "indexed": true,
          "internalType": "address",
          "name": "account",
          "type": "address"
        },
        {
          "indexed": false,
          "internalType": "uint256",
          "name": "repayAmount",
          "type": "uint256"
        }
      ],
      "name": "Repay",
      "type": "event"
    },
    {
      "anonymous": false,
      "inputs": [
        {
          "indexed": false,
          "internalType": "uint256",
          "name": "amount",
          "type": "uint256"
        }
      ],
      "name": "SupplyVault",
      "type": "event"
    },
    {
      "anonymous": false,
      "inputs": [
        {
          "indexed": true,
          "internalType": "address",
          "name": "makerToken",
          "type": "address"
        },
        {
          "indexed": true,
          "internalType": "address",
          "name": "takerToken",
          "type": "address"
        },
        {
          "indexed": false,
          "internalType": "uint256",
          "name": "takerAmount",
          "type": "uint256"
        },
        {
          "indexed": false,
          "internalType": "uint256",
          "name": "makerAmount",
          "type": "uint256"
        }
      ],
      "name": "Swap",
      "type": "event"
    },
    {
      "constant": true,
      "inputs": [],
      "name": "admin",
      "outputs": [
        {
          "internalType": "address",
          "name": "adm",
          "type": "address"
        }
      ],
      "payable": false,
      "stateMutability": "view",
      "type": "function"
    },
    {
      "constant": false,
      "inputs": [
        {
          "internalType": "address",
          "name": "account",
          "type": "address"
        },
        {
          "internalType": "uint256",
          "name": "amount",
          "type": "uint256"
        }
      ],
      "name": "borrow",
      "outputs": [],
      "payable": false,
      "stateMutability": "nonpayable",
      "type": "function"
    },
    {
      "constant": false,
      "inputs": [],
      "name": "burnStake",
      "outputs": [],
      "payable": false,
      "stateMutability": "nonpayable",
      "type": "function"
    },
    {
      "constant": false,
      "inputs": [],
      "name": "claimVault",
      "outputs": [],
      "payable": false,
      "stateMutability": "nonpayable",
      "type": "function"
    },
    {
      "constant": true,
      "inputs": [
        {
          "internalType": "address",
          "name": "borrower",
          "type": "address"
        }
      ],
      "name": "debt",
      "outputs": [
        {
          "internalType": "uint256",
          "name": "",
          "type": "uint256"
        }
      ],
      "payable": false,
      "stateMutability": "view",
      "type": "function"
    },
    {
      "constant": false,
      "inputs": [
        {
          "internalType": "address",
          "name": "token",
          "type": "address"
        },
        {
          "internalType": "address",
          "name": "delegatee",
          "type": "address"
        }
      ],
      "name": "delegateVault",
      "outputs": [],
      "payable": false,
      "stateMutability": "nonpayable",
      "type": "function"
    },
    {
      "constant": true,
      "inputs": [],
      "name": "implementation",
      "outputs": [
        {
          "internalType": "address",
          "name": "impl",
          "type": "address"
        }
      ],
      "payable": false,
      "stateMutability": "view",
      "type": "function"
    },
    {
      "constant": false,
      "inputs": [
        {
          "internalType": "uint256",
          "name": "amount",
          "type": "uint256"
        }
      ],
      "name": "mint",
      "outputs": [],
      "payable": false,
      "stateMutability": "nonpayable",
      "type": "function"
    },
    {
      "constant": false,
      "inputs": [
        {
          "internalType": "address",
          "name": "account",
          "type": "address"
        },
        {
          "internalType": "uint256",
          "name": "amount",
          "type": "uint256"
        }
      ],
      "name": "mintStake",
      "outputs": [],
      "payable": false,
      "stateMutability": "nonpayable",
      "type": "function"
    },
    {
      "constant": true,
      "inputs": [
        {
          "internalType": "address",
          "name": "makerToken",
          "type": "address"
        },
        {
          "internalType": "address",
          "name": "takerToken",
          "type": "address"
        }
      ],
      "name": "order",
      "outputs": [
        {
          "components": [
            {
              "components": [
                {
                  "internalType": "uint256",
                  "name": "value",
                  "type": "uint256"
                }
              ],
              "internalType": "struct Decimal.D256",
              "name": "price",
              "type": "tuple"
            },
            {
              "internalType": "uint256",
              "name": "amount",
              "type": "uint256"
            }
          ],
          "internalType": "struct ReserveTypes.Order",
          "name": "",
          "type": "tuple"
        }
      ],
      "payable": false,
      "stateMutability": "view",
      "type": "function"
    },
    {
      "constant": true,
      "inputs": [],
      "name": "owner",
      "outputs": [
        {
          "internalType": "address",
          "name": "o",
          "type": "address"
        }
      ],
      "payable": false,
      "stateMutability": "view",
      "type": "function"
    },
    {
      "constant": true,
      "inputs": [],
      "name": "paused",
      "outputs": [
        {
          "internalType": "bool",
          "name": "p",
          "type": "bool"
        }
      ],
      "payable": false,
      "stateMutability": "view",
      "type": "function"
    },
    {
      "constant": true,
      "inputs": [],
      "name": "pauser",
      "outputs": [
        {
          "internalType": "address",
          "name": "p",
          "type": "address"
        }
      ],
      "payable": false,
      "stateMutability": "view",
      "type": "function"
    },
    {
      "constant": false,
      "inputs": [
        {
          "internalType": "uint256",
          "name": "amount",
          "type": "uint256"
        }
      ],
      "name": "redeem",
      "outputs": [],
      "payable": false,
      "stateMutability": "nonpayable",
      "type": "function"
    },
    {
      "constant": true,
      "inputs": [],
      "name": "redeemPrice",
      "outputs": [
        {
          "components": [
            {
              "internalType": "uint256",
              "name": "value",
              "type": "uint256"
            }
          ],
          "internalType": "struct Decimal.D256",
          "name": "",
          "type": "tuple"
        }
      ],
      "payable": false,
      "stateMutability": "view",
      "type": "function"
    },
    {
      "constant": false,
      "inputs": [
        {
          "internalType": "address",
          "name": "makerToken",
          "type": "address"
        },
        {
          "internalType": "address",
          "name": "takerToken",
          "type": "address"
        },
        {
          "internalType": "uint256",
          "name": "price",
          "type": "uint256"
        },
        {
          "internalType": "uint256",
          "name": "amount",
          "type": "uint256"
        }
      ],
      "name": "registerOrder",
      "outputs": [],
      "payable": false,
      "stateMutability": "nonpayable",
      "type": "function"
    },
    {
      "constant": true,
      "inputs": [],
      "name": "registry",
      "outputs": [
        {
          "internalType": "contract IRegistry",
          "name": "reg",
          "type": "address"
        }
      ],
      "payable": false,
      "stateMutability": "view",
      "type": "function"
    },
    {
      "constant": false,
      "inputs": [
        {
          "internalType": "address",
          "name": "account",
          "type": "address"
        },
        {
          "internalType": "uint256",
          "name": "amount",
          "type": "uint256"
        }
      ],
      "name": "repay",
      "outputs": [],
      "payable": false,
      "stateMutability": "nonpayable",
      "type": "function"
    },
    {
      "constant": true,
      "inputs": [],
      "name": "reserveBalance",
      "outputs": [
        {
          "internalType": "uint256",
          "name": "",
          "type": "uint256"
        }
      ],
      "payable": false,
      "stateMutability": "view",
      "type": "function"
    },
    {
      "constant": true,
      "inputs": [],
      "name": "reserveRatio",
      "outputs": [
        {
          "components": [
            {
              "internalType": "uint256",
              "name": "value",
              "type": "uint256"
            }
          ],
          "internalType": "struct Decimal.D256",
          "name": "",
          "type": "tuple"
        }
      ],
      "payable": false,
      "stateMutability": "view",
      "type": "function"
    },
    {
      "constant": false,
      "inputs": [
        {
          "internalType": "address",
          "name": "newOwner",
          "type": "address"
        }
      ],
      "name": "setOwner",
      "outputs": [],
      "payable": false,
      "stateMutability": "nonpayable",
      "type": "function"
    },
    {
      "constant": false,
      "inputs": [
        {
          "internalType": "bool",
          "name": "newPaused",
          "type": "bool"
        }
      ],
      "name": "setPaused",
      "outputs": [],
      "payable": false,
      "stateMutability": "nonpayable",
      "type": "function"
    },
    {
      "constant": false,
      "inputs": [
        {
          "internalType": "address",
          "name": "newPauser",
          "type": "address"
        }
      ],
      "name": "setPauser",
      "outputs": [],
      "payable": false,
      "stateMutability": "nonpayable",
      "type": "function"
    },
    {
      "constant": false,
      "inputs": [
        {
          "internalType": "address",
          "name": "newRegistry",
          "type": "address"
        }
      ],
      "name": "setRegistry",
      "outputs": [],
      "payable": false,
      "stateMutability": "nonpayable",
      "type": "function"
    },
    {
      "constant": false,
      "inputs": [],
      "name": "setup",
      "outputs": [],
      "payable": false,
      "stateMutability": "nonpayable",
      "type": "function"
    },
    {
      "constant": false,
      "inputs": [
        {
          "internalType": "address",
          "name": "makerToken",
          "type": "address"
        },
        {
          "internalType": "address",
          "name": "takerToken",
          "type": "address"
        },
        {
          "internalType": "uint256",
          "name": "takerAmount",
          "type": "uint256"
        }
      ],
      "name": "swap",
      "outputs": [],
      "payable": false,
      "stateMutability": "nonpayable",
      "type": "function"
    },
    {
      "constant": false,
      "inputs": [],
      "name": "takeOwnership",
      "outputs": [],
      "payable": false,
      "stateMutability": "nonpayable",
      "type": "function"
    },
    {
      "constant": true,
      "inputs": [],
      "name": "totalDebt",
      "outputs": [
        {
          "internalType": "uint256",
          "name": "",
          "type": "uint256"
        }
      ],
      "payable": false,
      "stateMutability": "view",
      "type": "function"
    }
  ],
  "bytecode": "0x608060405234801561001057600080fd5b50613635806100206000396000f3fe608060405234801561001057600080fd5b50600436106101c45760003560e01c80638da5cb5b116100f9578063ba0bba4011610097578063df791e5011610071578063df791e5014610366578063ea15c2e314610379578063f851a4401461038c578063fc7b9c1814610394576101c4565b8063ba0bba4014610338578063ca43c38f14610340578063db006a7514610353576101c4565b8063a0712d68116100d3578063a0712d6814610302578063a10954fe14610315578063a91ee0dc1461031d578063ab518e6e14610330576101c4565b80638da5cb5b146102d25780639b6c56ec146102da5780639fd0506d146102fa576101c4565b80634b8a3529116101665780636053617211610140578063605361721461029a5780637a233fb3146102a25780637b103999146102aa578063844201c7146102bf576101c4565b80634b8a35291461025d5780635c60da1b146102705780635c975abb14610285576101c4565b8063206eeb81116101a2578063206eeb811461020f57806322867d78146102175780632d88af4a1461022a578063326931a91461023d576101c4565b80630c7d5cd8146101c957806313af4035146101e757806316c38b3c146101fc575b600080fd5b6101d161039c565b6040516101de91906134c6565b60405180910390f35b6101fa6101f5366004612990565b610471565b005b6101fa61020a366004612ae4565b610543565b6101fa6105de565b6101fa610225366004612ab4565b6107d1565b6101fa610238366004612990565b610922565b61025061024b3660046129cc565b6109bb565b6040516101de91906134d4565b6101fa61026b366004612ab4565b610a0e565b610278610b0c565b6040516101de91906132cf565b61028d610b31565b6040516101de9190613349565b6101fa610b50565b6101d1610bc2565b6102b2610be7565b6040516101de9190613357565b6101fa6102cd366004612a53565b610bf6565b610278610cb2565b6102ed6102e8366004612990565b610cc1565b6040516101de91906134e2565b610278610cdc565b6101fa610310366004612b3e565b610ceb565b6102ed610e1b565b6101fa61032b366004612990565b610ec4565b6101fa611099565b6101fa61123d565b6101fa61034e366004612ab4565b611285565b6101fa610361366004612b3e565b611410565b6101fa610374366004612a06565b6115e1565b6101fa6103873660046129cc565b61185c565b61027861191b565b6102ed611940565b6103a4612910565b600061043d6103b1611940565b6104316103bc610be7565b6001600160a01b03166351adeb576040518163ffffffff1660e01b815260040160206040518083038186803b1580156103f457600080fd5b505afa158015610408573d6000803e3d6000fd5b505050506040513d601f19601f8201168201806040525061042c91908101906129ae565b611946565b9063ffffffff6119b916565b905080156104635761045e610458610453610e1b565b611a02565b82611a19565b61046b565b61046b611a48565b91505090565b610479610cb2565b6001600160a01b0316336001600160a01b0316146104b25760405162461bcd60e51b81526004016104a9906133e6565b60405180910390fd5b6001600160a01b0381163014156104db5760405162461bcd60e51b81526004016104a9906134a6565b6104e481611a6a565b6105005760405162461bcd60e51b81526004016104a9906133d6565b61050981611aa6565b7f803b4c11a31d301bf4cd4a8af43f64cc758f16cfb69a35cb2ff60916ff017dab8160405161053891906132cf565b60405180910390a150565b61054b610cdc565b6001600160a01b0316336001600160a01b03161461057b5760405162461bcd60e51b81526004016104a990613396565b610583610b31565b151581151514156105a65760405162461bcd60e51b81526004016104a9906133b6565b6105af81611ac4565b7f66c1341b77513e807e432ca12e9d04334ebf3897f9c252492d60f47a04351b08816040516105389190613349565b6105e6610cb2565b6001600160a01b0316336001600160a01b0316146106165760405162461bcd60e51b81526004016104a9906133e6565b61061e610b31565b1561063b5760405162461bcd60e51b81526004016104a990613456565b6000610645610be7565b6001600160a01b0316633a4b66f16040518163ffffffff1660e01b815260040160206040518083038186803b15801561067d57600080fd5b505afa158015610691573d6000803e3d6000fd5b505050506040513d601f19601f820116820180604052506106b591908101906129ae565b90506000816001600160a01b03166370a08231306040518263ffffffff1660e01b81526004016106e591906132cf565b60206040518083038186803b1580156106fd57600080fd5b505afa158015610711573d6000803e3d6000fd5b505050506040513d601f19601f820116820180604052506107359190810190612b5c565b604051630852cd8d60e31b81529091506001600160a01b038316906342966c68906107649084906004016134e2565b600060405180830381600087803b15801561077e57600080fd5b505af1158015610792573d6000803e3d6000fd5b505050507fcaff56c810a7bea77b16777c65b4374182d3a35e80b026f411610b99ad90b6b3816040516107c591906134e2565b60405180910390a15050565b6107d9611ad2565b6107f55760405162461bcd60e51b81526004016104a990613376565b6107ff6000611ae1565b610807610b31565b156108245760405162461bcd60e51b81526004016104a990613456565b61084782826040518060600160405280602581526020016135ce60259139611aef565b6108ca610852610be7565b6001600160a01b03166351adeb576040518163ffffffff1660e01b815260040160206040518083038186803b15801561088a57600080fd5b505afa15801561089e573d6000803e3d6000fd5b505050506040513d601f19601f820116820180604052506108c291908101906129ae565b333084611b50565b6108d381611b6b565b816001600160a01b03167f5c16de4f8b59bd9caf0f49a545f25819a895ed223294290b408242e72a5942318260405161090c91906134e2565b60405180910390a261091e6001611ae1565b5050565b61092a610cb2565b6001600160a01b0316336001600160a01b03161461095a5760405162461bcd60e51b81526004016104a9906133e6565b6001600160a01b0381163014156109835760405162461bcd60e51b81526004016104a9906134a6565b61098c81611c43565b7f054d681c47a9f7c5030c12fdc6db3f76b9f00f04534476909f9c1d11a12e60068160405161053891906132cf565b6109c3612923565b506001600160a01b0380831660009081526002602090815260408083209385168352928152908290208251606081018452815493810193845292835260010154908201525b92915050565b610a16610cb2565b6001600160a01b0316336001600160a01b031614610a465760405162461bcd60e51b81526004016104a9906133e6565b610a4e611ad2565b610a6a5760405162461bcd60e51b81526004016104a990613376565b610a746000611ae1565b610a7c610b31565b15610a995760405162461bcd60e51b81526004016104a990613456565b610aa38282611c51565b610abf5760405162461bcd60e51b81526004016104a990613436565b610ac98282611d03565b610ad38282611d61565b816001600160a01b03167fcbc04eca7e9da35cb1393a6135a199ca52e450d5e9251cbd99f7847d33a367508260405161090c91906134e2565b7f360894a13ba1a3210667c828492db98dca3e2076cc3735a920a3ca505d382bbc5490565b600080604051610b40906132b9565b6040519081900390205492915050565b6000610b5a610cb2565b6001600160a01b031614610b805760405162461bcd60e51b81526004016104a9906133c6565b610b8933611aa6565b7f803b4c11a31d301bf4cd4a8af43f64cc758f16cfb69a35cb2ff60916ff017dab33604051610bb891906132dd565b60405180910390a1565b610bca612910565b610be2610bd561039c565b610bdd611a48565b611e51565b905090565b600080604051610b40906132a3565b610bfe610cb2565b6001600160a01b0316336001600160a01b031614610c2e5760405162461bcd60e51b81526004016104a9906133e6565b610c36610b31565b15610c535760405162461bcd60e51b81526004016104a990613456565b610c5f84848484611e74565b826001600160a01b0316846001600160a01b03167ff229cd84adbeba8373898a1fe442b7c496d158d15a3478f290ae87d0da06da8e8484604051610ca49291906134f0565b60405180910390a350505050565b600080604051610b40906132ae565b6001600160a01b031660009081526001602052604090205490565b600080604051610b4090613298565b610cf3611ad2565b610d0f5760405162461bcd60e51b81526004016104a990613376565b610d196000611ae1565b610d21610b31565b15610d3e5760405162461bcd60e51b81526004016104a990613456565b6000610d4982611ec2565b905081610d5582611a02565b14610d7057610d6b81600163ffffffff611ed916565b610d72565b805b9050610db7610d7f610be7565b6001600160a01b0316633e413bee6040518163ffffffff1660e01b815260040160206040518083038186803b15801561088a57600080fd5b610dc081611efe565b610dca3383611d61565b336001600160a01b03167f4c209b5fc8ad50758f13e2e1088ba56a560dff690a1c6fef26394f4c03821c4f8383604051610e059291906134f0565b60405180910390a250610e186001611ae1565b50565b600080610e9f610e29610be7565b6001600160a01b0316633e413bee6040518163ffffffff1660e01b815260040160206040518083038186803b158015610e6157600080fd5b505afa158015610e75573d6000803e3d6000fd5b505050506040513d601f19601f82011682018060405250610e9991908101906129ae565b306120d7565b90506000610eab612156565b9050610ebd828263ffffffff611ed916565b9250505090565b610ecc610cb2565b6001600160a01b0316336001600160a01b031614610efc5760405162461bcd60e51b81526004016104a9906133e6565b6000610f06610be7565b90506001600160a01b038216610f2e5760405162461bcd60e51b81526004016104a990613426565b6001600160a01b038116158015610f495750610f4982611a6a565b806110455750806001600160a01b031663d33219b46040518163ffffffff1660e01b815260040160206040518083038186803b158015610f8857600080fd5b505afa158015610f9c573d6000803e3d6000fd5b505050506040513d601f19601f82011682018060405250610fc091908101906129ae565b6001600160a01b0316826001600160a01b031663d33219b46040518163ffffffff1660e01b815260040160206040518083038186803b15801561100257600080fd5b505afa158015611016573d6000803e3d6000fd5b505050506040513d601f19601f8201168201806040525061103a91908101906129ae565b6001600160a01b0316145b6110615760405162461bcd60e51b81526004016104a990613416565b61106a826122eb565b7f6eff2753cf483c93ef153a7361d0bd6b4f51aaa81c4e9fe09884bf833b8662fe826040516107c591906132cf565b6110a1610cb2565b6001600160a01b0316336001600160a01b0316146110d15760405162461bcd60e51b81526004016104a9906133e6565b6110d9610b31565b156110f65760405162461bcd60e51b81526004016104a990613456565b6110fe610be7565b6001600160a01b031663d08c96fc6040518163ffffffff1660e01b815260040160206040518083038186803b15801561113657600080fd5b505afa15801561114a573d6000803e3d6000fd5b505050506040513d601f19601f8201168201806040525061116e91908101906129ae565b6001600160a01b0316635fe3b5676040518163ffffffff1660e01b815260040160206040518083038186803b1580156111a657600080fd5b505afa1580156111ba573d6000803e3d6000fd5b505050506040513d601f19601f820116820180604052506111de9190810190612b20565b6001600160a01b031663e9af0292306040518263ffffffff1660e01b815260040161120991906132cf565b600060405180830381600087803b15801561122357600080fd5b505af1158015611237573d6000803e3d6000fd5b50505050565b611245610cb2565b6001600160a01b0316336001600160a01b0316146112755760405162461bcd60e51b81526004016104a9906133e6565b61127f6001611ae1565b6112835b565b61128d610cb2565b6001600160a01b0316336001600160a01b0316146112bd5760405162461bcd60e51b81526004016104a9906133e6565b6112c5610b31565b156112e25760405162461bcd60e51b81526004016104a990613456565b60006112ec610be7565b6001600160a01b0316633a4b66f16040518163ffffffff1660e01b815260040160206040518083038186803b15801561132457600080fd5b505afa158015611338573d6000803e3d6000fd5b505050506040513d601f19601f8201168201806040525061135c91908101906129ae565b60405163140e25ad60e31b81529091506001600160a01b0382169063a0712d689061138b9085906004016134e2565b600060405180830381600087803b1580156113a557600080fd5b505af11580156113b9573d6000803e3d6000fd5b506113d2925050506001600160a01b03821684846122f9565b7f96a9a8981a322aeae183999165c1fa2610a0c066a01fe86ae3194afade9b4968838360405161140392919061332e565b60405180910390a1505050565b611418611ad2565b6114345760405162461bcd60e51b81526004016104a990613376565b61143e6000611ae1565b611446610b31565b156114635760405162461bcd60e51b81526004016104a990613456565b600061148d61148861148384611477610bc2565b9063ffffffff61235216565b612379565b611ec2565b905061151261149a610be7565b6001600160a01b03166351adeb576040518163ffffffff1660e01b815260040160206040518083038186803b1580156114d257600080fd5b505afa1580156114e6573d6000803e3d6000fd5b505050506040513d601f19601f8201168201806040525061150a91908101906129ae565b333085611b50565b61151b82611b6b565b61152481612396565b6115a661152f610be7565b6001600160a01b0316633e413bee6040518163ffffffff1660e01b815260040160206040518083038186803b15801561156757600080fd5b505afa15801561157b573d6000803e3d6000fd5b505050506040513d601f19601f8201168201806040525061159f91908101906129ae565b33836124d7565b336001600160a01b03167fe5b754fb1abb7f01b499791d0b820ae3b6af3424ac1c59768edb53f4ec31a9298383604051610e059291906134f0565b6115e9611ad2565b6116055760405162461bcd60e51b81526004016104a990613376565b61160f6000611ae1565b611617610b31565b156116345760405162461bcd60e51b81526004016104a990613456565b600061163e610be7565b6001600160a01b03166351adeb576040518163ffffffff1660e01b815260040160206040518083038186803b15801561167657600080fd5b505afa15801561168a573d6000803e3d6000fd5b505050506040513d601f19601f820116820180604052506116ae91908101906129ae565b9050806001600160a01b0316846001600160a01b031614156116e25760405162461bcd60e51b81526004016104a9906133f6565b806001600160a01b0316836001600160a01b031614156117145760405162461bcd60e51b81526004016104a9906133f6565b826001600160a01b0316846001600160a01b031614156117465760405162461bcd60e51b81526004016104a990613446565b61174e612923565b61175885856109bb565b905060006117b361148383600001516040518060400160405280601881526020017f52657365727665537761707065723a206e6f206f7264657200000000000000008152506117a6886124f1565b919063ffffffff61252516565b90506000198260200151146117e6576117e68686836040518060600160405280602381526020016135ab6023913961255e565b6117f285333087611b50565b6117fd8633836124d7565b846001600160a01b0316866001600160a01b03167ffa2dda1cc1b86e41239702756b13effbc1a092b5c57e3ad320fbe4f3b13fe23586846040516118429291906134f0565b60405180910390a35050506118576001611ae1565b505050565b611864610cb2565b6001600160a01b0316336001600160a01b0316146118945760405162461bcd60e51b81526004016104a9906133e6565b61189c610b31565b156118b95760405162461bcd60e51b81526004016104a990613456565b6040516317066a5760e21b81526001600160a01b03831690635c19a95c906118e59084906004016132cf565b600060405180830381600087803b1580156118ff57600080fd5b505af1158015611913573d6000803e3d6000fd5b505050505050565b7fb53127684a568b3173ae13b9f8a6016e243e63b6e8ee1178d6a717850b5d61035490565b60005490565b6000816001600160a01b03166318160ddd6040518163ffffffff1660e01b815260040160206040518083038186803b15801561198157600080fd5b505afa158015611995573d6000803e3d6000fd5b505050506040513d601f19601f82011682018060405250610a089190810190612b5c565b60006119fb83836040518060400160405280601e81526020017f536166654d6174683a207375627472616374696f6e206f766572666c6f7700008152506125cd565b9392505050565b6000610a088264e8d4a5100063ffffffff6125f916565b611a21612910565b6040518060200160405280611a3f85670de0b6b3a764000086612633565b90529392505050565b611a50612910565b506040805160208101909152670de0b6b3a7640000815290565b6000813f7fc5d2460186f7233c927e7db2dcc703c0e500b653ca82273b7bfad8045d85a470818114801590611a9e57508115155b949350505050565b6000604051611ab4906132ae565b6040519081900390209190915550565b6000604051611ab4906132b9565b600080604051610b40906132c4565b6000604051611ab4906132c4565b600054611b0390838363ffffffff6125cd16565b60009081556001600160a01b038416815260016020526040902054611b2f90838363ffffffff6125cd16565b6001600160a01b039093166000908152600160205260409020929092555050565b6112376001600160a01b03851684848463ffffffff61265516565b611b73610be7565b6001600160a01b03166351adeb576040518163ffffffff1660e01b815260040160206040518083038186803b158015611bab57600080fd5b505afa158015611bbf573d6000803e3d6000fd5b505050506040513d601f19601f82011682018060405250611be391908101906129ae565b6001600160a01b03166342966c68826040518263ffffffff1660e01b8152600401611c0e91906134e2565b600060405180830381600087803b158015611c2857600080fd5b505af1158015611c3c573d6000803e3d6000fd5b5050505050565b6000604051611ab490613298565b600080611c6d83611c6186610cc1565b9063ffffffff611ed916565b90506001600160a01b038416730b663ceacef01f2f88eb7451c70aa069f19db997148015611ca5575069d3c21bcecceda10000008111155b15611cb4576001915050610a08565b6001600160a01b03841673aef566ca7e84d1e736f999765a804687f39d9094148015611cea575069d3c21bcecceda10000008111155b15611cf9576001915050610a08565b5060009392505050565b600054611d16908263ffffffff611ed916565b60009081556001600160a01b038316815260016020526040902054611d41908263ffffffff611ed916565b6001600160a01b0390921660009081526001602052604090209190915550565b6000611d6b610be7565b6001600160a01b03166351adeb576040518163ffffffff1660e01b815260040160206040518083038186803b158015611da357600080fd5b505afa158015611db7573d6000803e3d6000fd5b505050506040513d601f19601f82011682018060405250611ddb91908101906129ae565b60405163140e25ad60e31b81529091506001600160a01b0382169063a0712d6890611e0a9085906004016134e2565b600060405180830381600087803b158015611e2457600080fd5b505af1158015611e38573d6000803e3d6000fd5b50611857925050506001600160a01b03821684846122f9565b611e59612910565b611e638383612679565b611e6d57816119fb565b5090919050565b6040805160608101825280820193845292835260208084019283526001600160a01b039586166000908152600282528281209590961686529390935291909220915151825551600190910155565b6000610a088264e8d4a5100063ffffffff61268d16565b6000828201838110156119fb5760405162461bcd60e51b81526004016104a990613386565b6000611f08610be7565b6001600160a01b031663d08c96fc6040518163ffffffff1660e01b815260040160206040518083038186803b158015611f4057600080fd5b505afa158015611f54573d6000803e3d6000fd5b505050506040513d601f19601f82011682018060405250611f7891908101906129ae565b905061200d8183611f87610be7565b6001600160a01b0316633e413bee6040518163ffffffff1660e01b815260040160206040518083038186803b158015611fbf57600080fd5b505afa158015611fd3573d6000803e3d6000fd5b505050506040513d601f19601f82011682018060405250611ff791908101906129ae565b6001600160a01b0316919063ffffffff6126cf16565b60405163140e25ad60e31b81526001600160a01b0382169063a0712d68906120399085906004016134e2565b602060405180830381600087803b15801561205357600080fd5b505af1158015612067573d6000803e3d6000fd5b505050506040513d601f19601f8201168201806040525061208b9190810190612b5c565b156120a85760405162461bcd60e51b81526004016104a990613476565b7f0d6d1d31f7ee9ff1c80dce62821dacd813b40a02222da6e5d8fec989c9c6485a826040516107c591906134e2565b6040516370a0823160e01b81526000906001600160a01b038416906370a08231906121069085906004016132cf565b60206040518083038186803b15801561211e57600080fd5b505afa158015612132573d6000803e3d6000fd5b505050506040513d601f19601f820116820180604052506119fb9190810190612b5c565b600080612161610be7565b6001600160a01b031663d08c96fc6040518163ffffffff1660e01b815260040160206040518083038186803b15801561219957600080fd5b505afa1580156121ad573d6000803e3d6000fd5b505050506040513d601f19601f820116820180604052506121d191908101906129ae565b90506121db612910565b6040518060200160405280836001600160a01b031663182df0f56040518163ffffffff1660e01b815260040160206040518083038186803b15801561221f57600080fd5b505afa158015612233573d6000803e3d6000fd5b505050506040513d601f19601f820116820180604052506122579190810190612b5c565b8152509050610ebd611483836001600160a01b03166370a08231306040518263ffffffff1660e01b815260040161228e91906132cf565b60206040518083038186803b1580156122a657600080fd5b505afa1580156122ba573d6000803e3d6000fd5b505050506040513d601f19601f820116820180604052506122de9190810190612b5c565b839063ffffffff61235216565b6000604051611ab4906132a3565b60405161185790849063a9059cbb60e01b9061231b908690869060240161332e565b60408051601f198184030181529190526020810180516001600160e01b03166001600160e01b031990931692909217909152612795565b61235a612910565b604080516020810190915283518190611a3f908563ffffffff6125f916565b8051600090610a0890670de0b6b3a764000063ffffffff61268d16565b61239e610be7565b6001600160a01b031663d08c96fc6040518163ffffffff1660e01b815260040160206040518083038186803b1580156123d657600080fd5b505afa1580156123ea573d6000803e3d6000fd5b505050506040513d601f19601f8201168201806040525061240e91908101906129ae565b6001600160a01b031663852a12e3826040518263ffffffff1660e01b815260040161243991906134e2565b602060405180830381600087803b15801561245357600080fd5b505af1158015612467573d6000803e3d6000fd5b505050506040513d601f19601f8201168201806040525061248b9190810190612b5c565b156124a85760405162461bcd60e51b81526004016104a990613466565b7ff8d6fd2fbdb71e78033abedb091ff65af12e5adf780a37fae3ca6da852dabe538160405161053891906134e2565b6118576001600160a01b038416838363ffffffff6122f916565b6124f9612910565b60408051602081019091528061251d84670de0b6b3a764000063ffffffff6125f916565b905292915050565b61252d612910565b60405180602001604052806125548660000151670de0b6b3a764000087600001518761287a565b9052949350505050565b6001600160a01b0380851660009081526002602090815260408083209387168352929052206001015461259890838363ffffffff6125cd16565b6001600160a01b0394851660009081526002602090815260408083209690971682529490945293909220600101929092555050565b600081848411156125f15760405162461bcd60e51b81526004016104a99190613365565b505050900390565b60008261260857506000610a08565b8282028284828161261557fe5b04146119fb5760405162461bcd60e51b81526004016104a990613406565b6000611a9e82612649868663ffffffff6125f916565b9063ffffffff61268d16565b6040516112379085906323b872dd60e01b9061231b90879087908790602401613306565b600061268583836128a7565b159392505050565b60006119fb83836040518060400160405280601a81526020017f536166654d6174683a206469766973696f6e206279207a65726f0000000000008152506128d9565b8015806127575750604051636eb1769f60e11b81526001600160a01b0384169063dd62ed3e9061270590309086906004016132eb565b60206040518083038186803b15801561271d57600080fd5b505afa158015612731573d6000803e3d6000fd5b505050506040513d601f19601f820116820180604052506127559190810190612b5c565b155b6127735760405162461bcd60e51b81526004016104a990613496565b60405161185790849063095ea7b360e01b9061231b908690869060240161332e565b6127a7826001600160a01b0316611a6a565b6127c35760405162461bcd60e51b81526004016104a9906134b6565b60006060836001600160a01b0316836040516127df919061328c565b6000604051808303816000865af19150503d806000811461281c576040519150601f19603f3d011682016040523d82523d6000602084013e612821565b606091505b5091509150816128435760405162461bcd60e51b81526004016104a9906133a6565b805115611237578080602001905161285e9190810190612b02565b6112375760405162461bcd60e51b81526004016104a990613486565b600061289e8383612891888863ffffffff6125f916565b919063ffffffff6128d916565b95945050505050565b8051825160009114156128bc57506001610a08565b81518351116128cc5760006128cf565b60025b60ff169392505050565b600081836128fa5760405162461bcd60e51b81526004016104a99190613365565b50600083858161290657fe5b0495945050505050565b6040518060200160405280600081525090565b6040518060400160405280612936612910565b8152602001600081525090565b8035610a088161357b565b8051610a088161357b565b8035610a088161358f565b8051610a088161358f565b8051610a0881613598565b8035610a08816135a1565b8051610a08816135a1565b6000602082840312156129a257600080fd5b6000611a9e8484612943565b6000602082840312156129c057600080fd5b6000611a9e848461294e565b600080604083850312156129df57600080fd5b60006129eb8585612943565b92505060206129fc85828601612943565b9150509250929050565b600080600060608486031215612a1b57600080fd5b6000612a278686612943565b9350506020612a3886828701612943565b9250506040612a498682870161297a565b9150509250925092565b60008060008060808587031215612a6957600080fd5b6000612a758787612943565b9450506020612a8687828801612943565b9350506040612a978782880161297a565b9250506060612aa88782880161297a565b91505092959194509250565b60008060408385031215612ac757600080fd5b6000612ad38585612943565b92505060206129fc8582860161297a565b600060208284031215612af657600080fd5b6000611a9e8484612959565b600060208284031215612b1457600080fd5b6000611a9e8484612964565b600060208284031215612b3257600080fd5b6000611a9e848461296f565b600060208284031215612b5057600080fd5b6000611a9e848461297a565b600060208284031215612b6e57600080fd5b6000611a9e8484612985565b612b838161353a565b82525050565b612b8381613510565b612b838161351b565b6000612ba6826134fe565b612bb08185613502565b9350612bc0818560208601613545565b9290920192915050565b612b8381613520565b6000612bde826134fe565b612be88185613507565b9350612bf8818560208601613545565b612c0181613571565b9093019392505050565b6000612c18602183613502565b7f656d7074797365742e76322e696d706c656d656e746174696f6e2e70617573658152603960f91b602082015260210192915050565b6000612c5b601e83613507565b7f496d706c656d656e746174696f6e3a207265656e7472616e742063616c6c0000815260200192915050565b6000612c94601b83613507565b7f536166654d6174683a206164646974696f6e206f766572666c6f770000000000815260200192915050565b6000612ccd602383613502565b7f656d7074797365742e76322e696d706c656d656e746174696f6e2e726567697381526274727960e81b602082015260230192915050565b6000612d12602083613502565b7f656d7074797365742e76322e696d706c656d656e746174696f6e2e6f776e6572815260200192915050565b6000612d4b601a83613507565b7f496d706c656d656e746174696f6e3a206e6f7420706175736572000000000000815260200192915050565b6000612d84602083613507565b7f5361666545524332303a206c6f772d6c6576656c2063616c6c206661696c6564815260200192915050565b6000612dbd601a83613507565b7f496d706c656d656e746174696f6e3a2073616d65207374617465000000000000815260200192915050565b6000612df6602383613507565b7f496d706c656d656e746174696f6e3a20616c726561647920696e697469616c698152621e995960ea1b602082015260400192915050565b6000612e3b601c83613507565b7f496d706c656d656e746174696f6e3a206e6f7420636f6e747261637400000000815260200192915050565b6000612e74601983613507565b7f496d706c656d656e746174696f6e3a206e6f74206f776e657200000000000000815260200192915050565b6000612ead602183613507565b7f52657365727665537761707065723a20756e737570706f7274656420746f6b658152603760f91b602082015260400192915050565b6000612ef0602183613507565b7f536166654d6174683a206d756c7469706c69636174696f6e206f766572666c6f8152607760f81b602082015260400192915050565b6000612f33602483613507565b7f496d706c656d656e746174696f6e3a2074696d656c6f636b73206d757374206d8152630c2e8c6d60e31b602082015260400192915050565b6000612f79601c83613507565b7f496d706c656d656e746174696f6e3a207a65726f206164647265737300000000815260200192915050565b6000612fb2601f83613507565b7f52657365727665436f6d7074726f6c6c65723a2063616e7420626f72726f7700815260200192915050565b6000612feb601c83613507565b7f52657365727665537761707065723a20746f6b656e7320657175616c00000000815260200192915050565b6000613024601683613507565b75125b5c1b195b595b9d185d1a5bdb8e881c185d5cd95960521b815260200192915050565b6000613056602183613502565b7f656d7074797365742e76322e696d706c656d656e746174696f6e2e70617573658152601960fa1b602082015260210192915050565b6000613099602583613502565b7f656d7074797365742e76322e696d706c656d656e746174696f6e2e6e6f74456e8152641d195c995960da1b602082015260250192915050565b60006130e0601b83613507565b7f526573657276655661756c743a2072656465656d206661696c65640000000000815260200192915050565b6000613119601b83613507565b7f526573657276655661756c743a20737570706c79206661696c65640000000000815260200192915050565b6000613152602a83613507565b7f5361666545524332303a204552433230206f7065726174696f6e20646964206e8152691bdd081cdd58d8d9595960b21b602082015260400192915050565b600061319e603683613507565b7f5361666545524332303a20617070726f76652066726f6d206e6f6e2d7a65726f81527520746f206e6f6e2d7a65726f20616c6c6f77616e636560501b602082015260400192915050565b60006131f6601483613507565b73496d706c656d656e746174696f6e3a207468697360601b815260200192915050565b6000613226601f83613507565b7f5361666545524332303a2063616c6c20746f206e6f6e2d636f6e747261637400815260200192915050565b805160208301906112378482613283565b805160408301906132748482613252565b50602082015161123760208501825b612b8381613537565b60006119fb8284612b9b565b6000610a0882612c0b565b6000610a0882612cc0565b6000610a0882612d05565b6000610a0882613049565b6000610a088261308c565b60208101610a088284612b89565b60208101610a088284612b7a565b604081016132f98285612b89565b6119fb6020830184612b89565b606081016133148286612b89565b6133216020830185612b89565b611a9e6040830184613283565b6040810161333c8285612b89565b6119fb6020830184613283565b60208101610a088284612b92565b60208101610a088284612bca565b602080825281016119fb8184612bd3565b60208082528101610a0881612c4e565b60208082528101610a0881612c87565b60208082528101610a0881612d3e565b60208082528101610a0881612d77565b60208082528101610a0881612db0565b60208082528101610a0881612de9565b60208082528101610a0881612e2e565b60208082528101610a0881612e67565b60208082528101610a0881612ea0565b60208082528101610a0881612ee3565b60208082528101610a0881612f26565b60208082528101610a0881612f6c565b60208082528101610a0881612fa5565b60208082528101610a0881612fde565b60208082528101610a0881613017565b60208082528101610a08816130d3565b60208082528101610a088161310c565b60208082528101610a0881613145565b60208082528101610a0881613191565b60208082528101610a08816131e9565b60208082528101610a0881613219565b60208101610a088284613252565b60408101610a088284613263565b60208101610a088284613283565b6040810161333c8285613283565b5190565b919050565b90815260200190565b6000610a088261352b565b151590565b6000610a0882613510565b6001600160a01b031690565b90565b6000610a0882613520565b60005b83811015613560578181015183820152602001613548565b838111156112375750506000910152565b601f01601f191690565b61358481613510565b8114610e1857600080fd5b6135848161351b565b61358481613520565b6135848161353756fe52657365727665537761707065723a20696e73756666696369656e7420616d6f756e7452657365727665436f6d7074726f6c6c65723a20696e73756666696369656e742064656274a365627a7a723158200689a68a3555558de40f581d5cd64df813677fda8e9f7cd522785b66691236a96c6578706572696d656e74616cf564736f6c63430005110040",
  "source": "/*\n    Copyright 2021 Empty Set Squad <emptysetsquad@protonmail.com>\n\n    Licensed under the Apache License, Version 2.0 (the \"License\");\n    you may not use this file except in compliance with the License.\n    You may obtain a copy of the License at\n\n    http://www.apache.org/licenses/LICENSE-2.0\n\n    Unless required by applicable law or agreed to in writing, software\n    distributed under the License is distributed on an \"AS IS\" BASIS,\n    WITHOUT WARRANTIES OR CONDITIONS OF ANY KIND, either express or implied.\n    See the License for the specific language governing permissions and\n    limitations under the License.\n*/\n\npragma solidity 0.5.17;\npragma experimental ABIEncoderV2;\n\nimport \"./ReserveSwapper.sol\";\nimport \"../common/Implementation.sol\";\nimport \"./ReserveIssuer.sol\";\n\n/**\n * @title ReserveImpl\n * @notice Top-level Reserve contract that extends all other reserve sub-contracts\n * @dev This contract should be used an implementation contract for an AdminUpgradeabilityProxy\n */\ncontract ReserveImpl is IReserve, ReserveComptroller, ReserveIssuer, ReserveSwapper { }\n",
  "sourcePath": "/Users/kbrizzle/code/emptyset/protocol/contracts/src/reserve/ReserveImpl.sol",
  "compiler": {
    "name": "solc",
    "version": "0.5.17+commit.d19bba13.Emscripten.clang"
  },
  "schemaVersion": "3.4.3",
  "updatedAt": "2022-12-31T21:31:49.687Z",
  "networkType": "ethereum",
  "devdoc": {
    "details": "This contract should be used an implementation contract for an AdminUpgradeabilityProxy",
    "methods": {
      "admin()": {
        "return": "Address of the current proxy admin contract"
      },
      "borrow(address,uint256)": {
        "details": "Non-reentrant     Caller must be owner     Used to pre-fund trusted contracts with ESD without backing (e.g. batchers)",
        "params": {
          "account": "Address to send the borrowed ESD to",
          "amount": "Amount of ESD to borrow"
        }
      },
      "burnStake()": {
        "details": "Non-reentrant     Owner only - governance hook"
      },
      "claimVault()": {
        "details": "Owner only - governance hook     Claims COMP accrued from lending on the USDC pool"
      },
      "debt(address)": {
        "return": "Total debt for borrower"
      },
      "delegateVault(address,address)": {
        "details": "Owner only - governance hook     Works for all COMP-based governance tokens",
        "params": {
          "delegatee": "Account to receive reserve's voting power",
          "token": "Governance token to delegate voting power"
        }
      },
      "implementation()": {
        "return": "Address of the current implementation"
      },
      "mint(uint256)": {
        "details": "Non-reentrant     Normalizes for decimals     Caller must approve reserve to transfer USDC",
        "params": {
          "amount": "Amount of ESD to mint"
        }
      },
      "mintStake(address,uint256)": {
        "details": "Non-reentrant     Owner only - governance hook     ESDS maxes out at ~79b total supply (2^96/10^18) due to its 96-bit limitation     Will revert if totalSupply exceeds this maximum",
        "params": {
          "account": "Account to mint ESDS to",
          "amount": "Amount of ESDS to mint"
        }
      },
      "order(address,address)": {
        "params": {
          "makerToken": "Token that the reserve wishes to sell",
          "takerToken": "Token that the reserve wishes to buy"
        },
        "return": "Specified order"
      },
      "owner()": {
        "return": "Owner contract"
      },
      "paused()": {
        "return": "paused status"
      },
      "pauser()": {
        "return": "Pauser address"
      },
      "redeem(uint256)": {
        "details": "Non-reentrant     Normalizes for decimals     Caller must approve reserve to transfer ESD",
        "params": {
          "amount": "Amount of ESD to mint"
        }
      },
      "redeemPrice()": {
        "details": "Returned as a Decimal.D256     Normalizes for decimals (e.g. 1.00 USDC == Decimal.one())     Equivalent to the current reserve ratio less the current redemption tax (if any)",
        "return": "Current ESD redemption price"
      },
      "registerOrder(address,address,uint256,uint256)": {
        "details": "Owner only - governance hook",
        "params": {
          "amount": "Amount of the makerToken that reserve wishes to sell - uint256(-1) indicates all reserve funds",
          "makerToken": "Token that the reserve wishes to sell",
          "price": "Price as a ratio of takerAmount:makerAmount times 10^18",
          "takerToken": "Token that the reserve wishes to buy"
        }
      },
      "registry()": {
        "return": "Address of the current registry contract"
      },
      "repay(address,uint256)": {
        "details": "Non-reentrant",
        "params": {
          "account": "Address to repay ESD on behalf of",
          "amount": "Amount of ESD to repay"
        }
      },
      "reserveBalance()": {
        "return": "Reserve total value"
      },
      "reserveRatio()": {
        "details": "Assumes 1 ESD = 1 USDC, normalizing for decimals",
        "return": "Reserve ratio"
      },
      "setOwner(address)": {
        "details": "Owner only - governance hook",
        "params": {
          "newOwner": "New owner contract"
        }
      },
      "setPaused(bool)": {
        "details": "pauser only",
        "params": {
          "newPaused": "New paused status"
        }
      },
      "setPauser(address)": {
        "details": "owner only - governance hook",
        "params": {
          "newPauser": "New pauser address"
        }
      },
      "setRegistry(address)": {
        "details": "Owner only - governance hook     If registry is already set, the new registry's timelock must match the current's",
        "params": {
          "newRegistry": "New registry contract"
        }
      },
      "setup()": {
        "details": "Governance hook     Does not ensure that it is only called once because it is permissioned to governance only"
      },
      "swap(address,address,uint256)": {
        "details": "Non-reentrant     Uses the state-defined price for the `makerToken`-`takerToken` order     Maker and taker tokens must be different     Cannot swap ESD",
        "params": {
          "makerToken": "Token that the caller wishes to buy",
          "takerAmount": "Amount of takerToken to sell",
          "takerToken": "Token that the caller wishes to sell"
        }
      },
      "takeOwnership()": {
        "details": "Needs to be called initialize ownership after deployment     Ensure that this has been properly set before using the protocol"
      },
      "totalDebt()": {
        "return": "Total debt"
      }
    },
    "title": "ReserveImpl"
  },
  "userdoc": {
    "methods": {
      "admin()": {
        "notice": "Returns the current proxy admin contract"
      },
      "borrow(address,uint256)": {
        "notice": "Lends `amount` ESD to `to` while recording the corresponding debt entry"
      },
      "burnStake()": {
        "notice": "Burns all reserve-held ESDS tokens"
      },
      "claimVault()": {
        "notice": "Claims all available governance rewards from the external protocol"
      },
      "debt(address)": {
        "notice": "Returns the total debt outstanding for `borrower`"
      },
      "delegateVault(address,address)": {
        "notice": "Delegates voting power to `delegatee` for `token` governance token held by the reserve"
      },
      "implementation()": {
        "notice": "Returns the current implementation"
      },
      "mint(uint256)": {
        "notice": "Mints `amount` ESD to the caller in exchange for an equivalent amount of USDC"
      },
      "mintStake(address,uint256)": {
        "notice": "Mints new ESDS tokens to a specified `account`"
      },
      "order(address,address)": {
        "notice": "Full state of the `makerToken`-`takerToken` order"
      },
      "owner()": {
        "notice": "Owner contract with admin permission over this contract"
      },
      "paused()": {
        "notice": "The paused status"
      },
      "pauser()": {
        "notice": "Pauser address with pausing permission over this contract"
      },
      "redeem(uint256)": {
        "notice": "Burns `amount` ESD from the caller in exchange for USDC at the rate of {redeemPrice}"
      },
      "redeemPrice()": {
        "notice": "The price that one ESD can currently be sold to the reserve for"
      },
      "registerOrder(address,address,uint256,uint256)": {
        "notice": "Sets the `price` and `amount` of the specified `makerToken`-`takerToken` order"
      },
      "registry()": {
        "notice": "Returns the current registry contract"
      },
      "repay(address,uint256)": {
        "notice": "Repays `amount` ESD on behalf of `to` while reducing its corresponding debt"
      },
      "reserveBalance()": {
        "notice": "The total value of the reserve-owned assets denominated in USDC"
      },
      "reserveRatio()": {
        "notice": "The ratio of the {reserveBalance} to total ESD issuance"
      },
      "setOwner(address)": {
        "notice": "Updates the owner contract"
      },
      "setPaused(bool)": {
        "notice": "Updates the paused status"
      },
      "setPauser(address)": {
        "notice": "Updates the pauser contract"
      },
      "setRegistry(address)": {
        "notice": "Updates the registry contract"
      },
      "setup()": {
        "notice": "Hook to surface arbitrary logic to be called after deployment by owner"
      },
      "swap(address,address,uint256)": {
        "notice": "Purchases `makerToken` from the reserve in exchange for `takerAmount` of `takerToken`"
      },
      "takeOwnership()": {
        "notice": "Takes ownership over a contract if none has been set yet"
      },
      "totalDebt()": {
        "notice": "Returns the total debt outstanding"
      }
    },
    "notice": "Top-level Reserve contract that extends all other reserve sub-contracts"
  }
}