{
  "contractName": "ReserveImpl",
  "abi": [
    {
      "anonymous": false,
      "inputs": [
        {
          "indexed": true,
          "internalType": "address",
          "name": "account",
          "type": "address"
        },
        {
          "indexed": false,
          "internalType": "uint256",
          "name": "borrowAmount",
          "type": "uint256"
        }
      ],
      "name": "Borrow",
      "type": "event"
    },
    {
      "anonymous": false,
      "inputs": [
        {
          "indexed": false,
          "internalType": "uint256",
          "name": "burnAmount",
          "type": "uint256"
        }
      ],
      "name": "BurnStake",
      "type": "event"
    },
    {
      "anonymous": false,
      "inputs": [
        {
          "indexed": true,
          "internalType": "address",
          "name": "account",
          "type": "address"
        },
        {
          "indexed": false,
          "internalType": "uint256",
          "name": "mintAmount",
          "type": "uint256"
        },
        {
          "indexed": false,
          "internalType": "uint256",
          "name": "costAmount",
          "type": "uint256"
        }
      ],
      "name": "Mint",
      "type": "event"
    },
    {
      "anonymous": false,
      "inputs": [
        {
          "indexed": false,
          "internalType": "address",
          "name": "account",
          "type": "address"
        },
        {
          "indexed": false,
          "internalType": "uint256",
          "name": "mintAmount",
          "type": "uint256"
        }
      ],
      "name": "MintStake",
      "type": "event"
    },
    {
      "anonymous": false,
      "inputs": [
        {
          "indexed": true,
          "internalType": "address",
          "name": "makerToken",
          "type": "address"
        },
        {
          "indexed": true,
          "internalType": "address",
          "name": "takerToken",
          "type": "address"
        },
        {
          "indexed": false,
          "internalType": "uint256",
          "name": "price",
          "type": "uint256"
        },
        {
          "indexed": false,
          "internalType": "uint256",
          "name": "amount",
          "type": "uint256"
        }
      ],
      "name": "OrderRegistered",
      "type": "event"
    },
    {
      "anonymous": false,
      "inputs": [
        {
          "indexed": false,
          "internalType": "address",
          "name": "newOwner",
          "type": "address"
        }
      ],
      "name": "OwnerUpdate",
      "type": "event"
    },
    {
      "anonymous": false,
      "inputs": [
        {
          "indexed": false,
          "internalType": "bool",
          "name": "newPaused",
          "type": "bool"
        }
      ],
      "name": "PausedUpdate",
      "type": "event"
    },
    {
      "anonymous": false,
      "inputs": [
        {
          "indexed": false,
          "internalType": "address",
          "name": "newPauser",
          "type": "address"
        }
      ],
      "name": "PauserUpdate",
      "type": "event"
    },
    {
      "anonymous": false,
      "inputs": [
        {
          "indexed": true,
          "internalType": "address",
          "name": "account",
          "type": "address"
        },
        {
          "indexed": false,
          "internalType": "uint256",
          "name": "costAmount",
          "type": "uint256"
        },
        {
          "indexed": false,
          "internalType": "uint256",
          "name": "redeemAmount",
          "type": "uint256"
        }
      ],
      "name": "Redeem",
      "type": "event"
    },
    {
      "anonymous": false,
      "inputs": [
        {
          "indexed": false,
          "internalType": "uint256",
          "name": "amount",
          "type": "uint256"
        }
      ],
      "name": "RedeemVault",
      "type": "event"
    },
    {
      "anonymous": false,
      "inputs": [
        {
          "indexed": false,
          "internalType": "address",
          "name": "newRegistry",
          "type": "address"
        }
      ],
      "name": "RegistryUpdate",
      "type": "event"
    },
    {
      "anonymous": false,
      "inputs": [
        {
          "indexed": true,
          "internalType": "address",
          "name": "account",
          "type": "address"
        },
        {
          "indexed": false,
          "internalType": "uint256",
          "name": "repayAmount",
          "type": "uint256"
        }
      ],
      "name": "Repay",
      "type": "event"
    },
    {
      "anonymous": false,
      "inputs": [
        {
          "indexed": false,
          "internalType": "uint256",
          "name": "amount",
          "type": "uint256"
        }
      ],
      "name": "SupplyVault",
      "type": "event"
    },
    {
      "anonymous": false,
      "inputs": [
        {
          "indexed": true,
          "internalType": "address",
          "name": "makerToken",
          "type": "address"
        },
        {
          "indexed": true,
          "internalType": "address",
          "name": "takerToken",
          "type": "address"
        },
        {
          "indexed": false,
          "internalType": "uint256",
          "name": "takerAmount",
          "type": "uint256"
        },
        {
          "indexed": false,
          "internalType": "uint256",
          "name": "makerAmount",
          "type": "uint256"
        }
      ],
      "name": "Swap",
      "type": "event"
    },
    {
      "constant": true,
      "inputs": [],
      "name": "admin",
      "outputs": [
        {
          "internalType": "address",
          "name": "adm",
          "type": "address"
        }
      ],
      "payable": false,
      "stateMutability": "view",
      "type": "function"
    },
    {
      "constant": false,
      "inputs": [
        {
          "internalType": "address",
          "name": "account",
          "type": "address"
        },
        {
          "internalType": "uint256",
          "name": "amount",
          "type": "uint256"
        }
      ],
      "name": "borrow",
      "outputs": [],
      "payable": false,
      "stateMutability": "nonpayable",
      "type": "function"
    },
    {
      "constant": false,
      "inputs": [],
      "name": "burnStake",
      "outputs": [],
      "payable": false,
      "stateMutability": "nonpayable",
      "type": "function"
    },
    {
      "constant": false,
      "inputs": [],
      "name": "claimVault",
      "outputs": [],
      "payable": false,
      "stateMutability": "nonpayable",
      "type": "function"
    },
    {
      "constant": true,
      "inputs": [
        {
          "internalType": "address",
          "name": "borrower",
          "type": "address"
        }
      ],
      "name": "debt",
      "outputs": [
        {
          "internalType": "uint256",
          "name": "",
          "type": "uint256"
        }
      ],
      "payable": false,
      "stateMutability": "view",
      "type": "function"
    },
    {
      "constant": false,
      "inputs": [
        {
          "internalType": "address",
          "name": "token",
          "type": "address"
        },
        {
          "internalType": "address",
          "name": "delegatee",
          "type": "address"
        }
      ],
      "name": "delegateVault",
      "outputs": [],
      "payable": false,
      "stateMutability": "nonpayable",
      "type": "function"
    },
    {
      "constant": true,
      "inputs": [],
      "name": "implementation",
      "outputs": [
        {
          "internalType": "address",
          "name": "impl",
          "type": "address"
        }
      ],
      "payable": false,
      "stateMutability": "view",
      "type": "function"
    },
    {
      "constant": false,
      "inputs": [
        {
          "internalType": "uint256",
          "name": "amount",
          "type": "uint256"
        }
      ],
      "name": "mint",
      "outputs": [],
      "payable": false,
      "stateMutability": "nonpayable",
      "type": "function"
    },
    {
      "constant": false,
      "inputs": [
        {
          "internalType": "address",
          "name": "account",
          "type": "address"
        },
        {
          "internalType": "uint256",
          "name": "amount",
          "type": "uint256"
        }
      ],
      "name": "mintStake",
      "outputs": [],
      "payable": false,
      "stateMutability": "nonpayable",
      "type": "function"
    },
    {
      "constant": true,
      "inputs": [
        {
          "internalType": "address",
          "name": "makerToken",
          "type": "address"
        },
        {
          "internalType": "address",
          "name": "takerToken",
          "type": "address"
        }
      ],
      "name": "order",
      "outputs": [
        {
          "components": [
            {
              "components": [
                {
                  "internalType": "uint256",
                  "name": "value",
                  "type": "uint256"
                }
              ],
              "internalType": "struct Decimal.D256",
              "name": "price",
              "type": "tuple"
            },
            {
              "internalType": "uint256",
              "name": "amount",
              "type": "uint256"
            }
          ],
          "internalType": "struct ReserveTypes.Order",
          "name": "",
          "type": "tuple"
        }
      ],
      "payable": false,
      "stateMutability": "view",
      "type": "function"
    },
    {
      "constant": true,
      "inputs": [],
      "name": "owner",
      "outputs": [
        {
          "internalType": "address",
          "name": "o",
          "type": "address"
        }
      ],
      "payable": false,
      "stateMutability": "view",
      "type": "function"
    },
    {
      "constant": true,
      "inputs": [],
      "name": "paused",
      "outputs": [
        {
          "internalType": "bool",
          "name": "p",
          "type": "bool"
        }
      ],
      "payable": false,
      "stateMutability": "view",
      "type": "function"
    },
    {
      "constant": true,
      "inputs": [],
      "name": "pauser",
      "outputs": [
        {
          "internalType": "address",
          "name": "p",
          "type": "address"
        }
      ],
      "payable": false,
      "stateMutability": "view",
      "type": "function"
    },
    {
      "constant": false,
      "inputs": [
        {
          "internalType": "uint256",
          "name": "amount",
          "type": "uint256"
        }
      ],
      "name": "redeem",
      "outputs": [],
      "payable": false,
      "stateMutability": "nonpayable",
      "type": "function"
    },
    {
      "constant": true,
      "inputs": [],
      "name": "redeemPrice",
      "outputs": [
        {
          "components": [
            {
              "internalType": "uint256",
              "name": "value",
              "type": "uint256"
            }
          ],
          "internalType": "struct Decimal.D256",
          "name": "",
          "type": "tuple"
        }
      ],
      "payable": false,
      "stateMutability": "view",
      "type": "function"
    },
    {
      "constant": false,
      "inputs": [
        {
          "internalType": "address",
          "name": "makerToken",
          "type": "address"
        },
        {
          "internalType": "address",
          "name": "takerToken",
          "type": "address"
        },
        {
          "internalType": "uint256",
          "name": "price",
          "type": "uint256"
        },
        {
          "internalType": "uint256",
          "name": "amount",
          "type": "uint256"
        }
      ],
      "name": "registerOrder",
      "outputs": [],
      "payable": false,
      "stateMutability": "nonpayable",
      "type": "function"
    },
    {
      "constant": true,
      "inputs": [],
      "name": "registry",
      "outputs": [
        {
          "internalType": "contract IRegistry",
          "name": "reg",
          "type": "address"
        }
      ],
      "payable": false,
      "stateMutability": "view",
      "type": "function"
    },
    {
      "constant": false,
      "inputs": [
        {
          "internalType": "address",
          "name": "account",
          "type": "address"
        },
        {
          "internalType": "uint256",
          "name": "amount",
          "type": "uint256"
        }
      ],
      "name": "repay",
      "outputs": [],
      "payable": false,
      "stateMutability": "nonpayable",
      "type": "function"
    },
    {
      "constant": true,
      "inputs": [],
      "name": "reserveBalance",
      "outputs": [
        {
          "internalType": "uint256",
          "name": "",
          "type": "uint256"
        }
      ],
      "payable": false,
      "stateMutability": "view",
      "type": "function"
    },
    {
      "constant": true,
      "inputs": [],
      "name": "reserveRatio",
      "outputs": [
        {
          "components": [
            {
              "internalType": "uint256",
              "name": "value",
              "type": "uint256"
            }
          ],
          "internalType": "struct Decimal.D256",
          "name": "",
          "type": "tuple"
        }
      ],
      "payable": false,
      "stateMutability": "view",
      "type": "function"
    },
    {
      "constant": false,
      "inputs": [
        {
          "internalType": "address",
          "name": "newOwner",
          "type": "address"
        }
      ],
      "name": "setOwner",
      "outputs": [],
      "payable": false,
      "stateMutability": "nonpayable",
      "type": "function"
    },
    {
      "constant": false,
      "inputs": [
        {
          "internalType": "bool",
          "name": "newPaused",
          "type": "bool"
        }
      ],
      "name": "setPaused",
      "outputs": [],
      "payable": false,
      "stateMutability": "nonpayable",
      "type": "function"
    },
    {
      "constant": false,
      "inputs": [
        {
          "internalType": "address",
          "name": "newPauser",
          "type": "address"
        }
      ],
      "name": "setPauser",
      "outputs": [],
      "payable": false,
      "stateMutability": "nonpayable",
      "type": "function"
    },
    {
      "constant": false,
      "inputs": [
        {
          "internalType": "address",
          "name": "newRegistry",
          "type": "address"
        }
      ],
      "name": "setRegistry",
      "outputs": [],
      "payable": false,
      "stateMutability": "nonpayable",
      "type": "function"
    },
    {
      "constant": false,
      "inputs": [],
      "name": "setup",
      "outputs": [],
      "payable": false,
      "stateMutability": "nonpayable",
      "type": "function"
    },
    {
      "constant": false,
      "inputs": [
        {
          "internalType": "address",
          "name": "makerToken",
          "type": "address"
        },
        {
          "internalType": "address",
          "name": "takerToken",
          "type": "address"
        },
        {
          "internalType": "uint256",
          "name": "takerAmount",
          "type": "uint256"
        }
      ],
      "name": "swap",
      "outputs": [],
      "payable": false,
      "stateMutability": "nonpayable",
      "type": "function"
    },
    {
      "constant": false,
      "inputs": [],
      "name": "takeOwnership",
      "outputs": [],
      "payable": false,
      "stateMutability": "nonpayable",
      "type": "function"
    },
    {
      "constant": true,
      "inputs": [],
      "name": "totalDebt",
      "outputs": [
        {
          "internalType": "uint256",
          "name": "",
          "type": "uint256"
        }
      ],
      "payable": false,
      "stateMutability": "view",
      "type": "function"
    }
  ],
  "bytecode": "0x608060405234801561001057600080fd5b506135f0806100206000396000f3fe608060405234801561001057600080fd5b50600436106101c45760003560e01c80638da5cb5b116100f9578063ba0bba4011610097578063df791e5011610071578063df791e5014610366578063ea15c2e314610379578063f851a4401461038c578063fc7b9c1814610394576101c4565b8063ba0bba4014610338578063ca43c38f14610340578063db006a7514610353576101c4565b8063a0712d68116100d3578063a0712d6814610302578063a10954fe14610315578063a91ee0dc1461031d578063ab518e6e14610330576101c4565b80638da5cb5b146102d25780639b6c56ec146102da5780639fd0506d146102fa576101c4565b80634b8a3529116101665780636053617211610140578063605361721461029a5780637a233fb3146102a25780637b103999146102aa578063844201c7146102bf576101c4565b80634b8a35291461025d5780635c60da1b146102705780635c975abb14610285576101c4565b8063206eeb81116101a2578063206eeb811461020f57806322867d78146102175780632d88af4a1461022a578063326931a91461023d576101c4565b80630c7d5cd8146101c957806313af4035146101e757806316c38b3c146101fc575b600080fd5b6101d161039c565b6040516101de9190613481565b60405180910390f35b6101fa6101f536600461294b565b610471565b005b6101fa61020a366004612a9f565b610543565b6101fa6105de565b6101fa610225366004612a6f565b6107d1565b6101fa61023836600461294b565b610922565b61025061024b366004612987565b6109bb565b6040516101de919061348f565b6101fa61026b366004612a6f565b610a0e565b610278610b0c565b6040516101de919061328a565b61028d610b31565b6040516101de9190613304565b6101fa610b50565b6101d1610bc2565b6102b2610be7565b6040516101de9190613312565b6101fa6102cd366004612a0e565b610bf6565b610278610cb2565b6102ed6102e836600461294b565b610cc1565b6040516101de919061349d565b610278610cdc565b6101fa610310366004612af9565b610ceb565b6102ed610e1b565b6101fa61032b36600461294b565b610ec4565b6101fa611099565b6101fa61123d565b6101fa61034e366004612a6f565b611285565b6101fa610361366004612af9565b611410565b6101fa6103743660046129c1565b6115e1565b6101fa610387366004612987565b61185c565b61027861191b565b6102ed611940565b6103a46128cb565b600061043d6103b1611940565b6104316103bc610be7565b6001600160a01b03166351adeb576040518163ffffffff1660e01b815260040160206040518083038186803b1580156103f457600080fd5b505afa158015610408573d6000803e3d6000fd5b505050506040513d601f19601f8201168201806040525061042c9190810190612969565b611946565b9063ffffffff6119b916565b905080156104635761045e610458610453610e1b565b611a02565b82611a19565b61046b565b61046b611a48565b91505090565b610479610cb2565b6001600160a01b0316336001600160a01b0316146104b25760405162461bcd60e51b81526004016104a9906133a1565b60405180910390fd5b6001600160a01b0381163014156104db5760405162461bcd60e51b81526004016104a990613461565b6104e481611a6a565b6105005760405162461bcd60e51b81526004016104a990613391565b61050981611aa6565b7f803b4c11a31d301bf4cd4a8af43f64cc758f16cfb69a35cb2ff60916ff017dab81604051610538919061328a565b60405180910390a150565b61054b610cdc565b6001600160a01b0316336001600160a01b03161461057b5760405162461bcd60e51b81526004016104a990613351565b610583610b31565b151581151514156105a65760405162461bcd60e51b81526004016104a990613371565b6105af81611ac4565b7f66c1341b77513e807e432ca12e9d04334ebf3897f9c252492d60f47a04351b08816040516105389190613304565b6105e6610cb2565b6001600160a01b0316336001600160a01b0316146106165760405162461bcd60e51b81526004016104a9906133a1565b61061e610b31565b1561063b5760405162461bcd60e51b81526004016104a990613411565b6000610645610be7565b6001600160a01b0316633a4b66f16040518163ffffffff1660e01b815260040160206040518083038186803b15801561067d57600080fd5b505afa158015610691573d6000803e3d6000fd5b505050506040513d601f19601f820116820180604052506106b59190810190612969565b90506000816001600160a01b03166370a08231306040518263ffffffff1660e01b81526004016106e5919061328a565b60206040518083038186803b1580156106fd57600080fd5b505afa158015610711573d6000803e3d6000fd5b505050506040513d601f19601f820116820180604052506107359190810190612b17565b604051630852cd8d60e31b81529091506001600160a01b038316906342966c689061076490849060040161349d565b600060405180830381600087803b15801561077e57600080fd5b505af1158015610792573d6000803e3d6000fd5b505050507fcaff56c810a7bea77b16777c65b4374182d3a35e80b026f411610b99ad90b6b3816040516107c5919061349d565b60405180910390a15050565b6107d9611ad2565b6107f55760405162461bcd60e51b81526004016104a990613331565b6107ff6000611ae1565b610807610b31565b156108245760405162461bcd60e51b81526004016104a990613411565b610847828260405180606001604052806025815260200161358960259139611aef565b6108ca610852610be7565b6001600160a01b03166351adeb576040518163ffffffff1660e01b815260040160206040518083038186803b15801561088a57600080fd5b505afa15801561089e573d6000803e3d6000fd5b505050506040513d601f19601f820116820180604052506108c29190810190612969565b333084611b50565b6108d381611b6b565b816001600160a01b03167f5c16de4f8b59bd9caf0f49a545f25819a895ed223294290b408242e72a5942318260405161090c919061349d565b60405180910390a261091e6001611ae1565b5050565b61092a610cb2565b6001600160a01b0316336001600160a01b03161461095a5760405162461bcd60e51b81526004016104a9906133a1565b6001600160a01b0381163014156109835760405162461bcd60e51b81526004016104a990613461565b61098c81611c43565b7f054d681c47a9f7c5030c12fdc6db3f76b9f00f04534476909f9c1d11a12e600681604051610538919061328a565b6109c36128de565b506001600160a01b0380831660009081526002602090815260408083209385168352928152908290208251606081018452815493810193845292835260010154908201525b92915050565b610a16610cb2565b6001600160a01b0316336001600160a01b031614610a465760405162461bcd60e51b81526004016104a9906133a1565b610a4e611ad2565b610a6a5760405162461bcd60e51b81526004016104a990613331565b610a746000611ae1565b610a7c610b31565b15610a995760405162461bcd60e51b81526004016104a990613411565b610aa38282611c51565b610abf5760405162461bcd60e51b81526004016104a9906133f1565b610ac98282611cbe565b610ad38282611d1c565b816001600160a01b03167fcbc04eca7e9da35cb1393a6135a199ca52e450d5e9251cbd99f7847d33a367508260405161090c919061349d565b7f360894a13ba1a3210667c828492db98dca3e2076cc3735a920a3ca505d382bbc5490565b600080604051610b4090613274565b6040519081900390205492915050565b6000610b5a610cb2565b6001600160a01b031614610b805760405162461bcd60e51b81526004016104a990613381565b610b8933611aa6565b7f803b4c11a31d301bf4cd4a8af43f64cc758f16cfb69a35cb2ff60916ff017dab33604051610bb89190613298565b60405180910390a1565b610bca6128cb565b610be2610bd561039c565b610bdd611a48565b611e0c565b905090565b600080604051610b409061325e565b610bfe610cb2565b6001600160a01b0316336001600160a01b031614610c2e5760405162461bcd60e51b81526004016104a9906133a1565b610c36610b31565b15610c535760405162461bcd60e51b81526004016104a990613411565b610c5f84848484611e2f565b826001600160a01b0316846001600160a01b03167ff229cd84adbeba8373898a1fe442b7c496d158d15a3478f290ae87d0da06da8e8484604051610ca49291906134ab565b60405180910390a350505050565b600080604051610b4090613269565b6001600160a01b031660009081526001602052604090205490565b600080604051610b4090613253565b610cf3611ad2565b610d0f5760405162461bcd60e51b81526004016104a990613331565b610d196000611ae1565b610d21610b31565b15610d3e5760405162461bcd60e51b81526004016104a990613411565b6000610d4982611e7d565b905081610d5582611a02565b14610d7057610d6b81600163ffffffff611e9416565b610d72565b805b9050610db7610d7f610be7565b6001600160a01b0316633e413bee6040518163ffffffff1660e01b815260040160206040518083038186803b15801561088a57600080fd5b610dc081611eb9565b610dca3383611d1c565b336001600160a01b03167f4c209b5fc8ad50758f13e2e1088ba56a560dff690a1c6fef26394f4c03821c4f8383604051610e059291906134ab565b60405180910390a250610e186001611ae1565b50565b600080610e9f610e29610be7565b6001600160a01b0316633e413bee6040518163ffffffff1660e01b815260040160206040518083038186803b158015610e6157600080fd5b505afa158015610e75573d6000803e3d6000fd5b505050506040513d601f19601f82011682018060405250610e999190810190612969565b30612092565b90506000610eab612111565b9050610ebd828263ffffffff611e9416565b9250505090565b610ecc610cb2565b6001600160a01b0316336001600160a01b031614610efc5760405162461bcd60e51b81526004016104a9906133a1565b6000610f06610be7565b90506001600160a01b038216610f2e5760405162461bcd60e51b81526004016104a9906133e1565b6001600160a01b038116158015610f495750610f4982611a6a565b806110455750806001600160a01b031663d33219b46040518163ffffffff1660e01b815260040160206040518083038186803b158015610f8857600080fd5b505afa158015610f9c573d6000803e3d6000fd5b505050506040513d601f19601f82011682018060405250610fc09190810190612969565b6001600160a01b0316826001600160a01b031663d33219b46040518163ffffffff1660e01b815260040160206040518083038186803b15801561100257600080fd5b505afa158015611016573d6000803e3d6000fd5b505050506040513d601f19601f8201168201806040525061103a9190810190612969565b6001600160a01b0316145b6110615760405162461bcd60e51b81526004016104a9906133d1565b61106a826122a6565b7f6eff2753cf483c93ef153a7361d0bd6b4f51aaa81c4e9fe09884bf833b8662fe826040516107c5919061328a565b6110a1610cb2565b6001600160a01b0316336001600160a01b0316146110d15760405162461bcd60e51b81526004016104a9906133a1565b6110d9610b31565b156110f65760405162461bcd60e51b81526004016104a990613411565b6110fe610be7565b6001600160a01b031663d08c96fc6040518163ffffffff1660e01b815260040160206040518083038186803b15801561113657600080fd5b505afa15801561114a573d6000803e3d6000fd5b505050506040513d601f19601f8201168201806040525061116e9190810190612969565b6001600160a01b0316635fe3b5676040518163ffffffff1660e01b815260040160206040518083038186803b1580156111a657600080fd5b505afa1580156111ba573d6000803e3d6000fd5b505050506040513d601f19601f820116820180604052506111de9190810190612adb565b6001600160a01b031663e9af0292306040518263ffffffff1660e01b8152600401611209919061328a565b600060405180830381600087803b15801561122357600080fd5b505af1158015611237573d6000803e3d6000fd5b50505050565b611245610cb2565b6001600160a01b0316336001600160a01b0316146112755760405162461bcd60e51b81526004016104a9906133a1565b61127f6001611ae1565b6112835b565b61128d610cb2565b6001600160a01b0316336001600160a01b0316146112bd5760405162461bcd60e51b81526004016104a9906133a1565b6112c5610b31565b156112e25760405162461bcd60e51b81526004016104a990613411565b60006112ec610be7565b6001600160a01b0316633a4b66f16040518163ffffffff1660e01b815260040160206040518083038186803b15801561132457600080fd5b505afa158015611338573d6000803e3d6000fd5b505050506040513d601f19601f8201168201806040525061135c9190810190612969565b60405163140e25ad60e31b81529091506001600160a01b0382169063a0712d689061138b90859060040161349d565b600060405180830381600087803b1580156113a557600080fd5b505af11580156113b9573d6000803e3d6000fd5b506113d2925050506001600160a01b03821684846122b4565b7f96a9a8981a322aeae183999165c1fa2610a0c066a01fe86ae3194afade9b496883836040516114039291906132e9565b60405180910390a1505050565b611418611ad2565b6114345760405162461bcd60e51b81526004016104a990613331565b61143e6000611ae1565b611446610b31565b156114635760405162461bcd60e51b81526004016104a990613411565b600061148d61148861148384611477610bc2565b9063ffffffff61230d16565b612334565b611e7d565b905061151261149a610be7565b6001600160a01b03166351adeb576040518163ffffffff1660e01b815260040160206040518083038186803b1580156114d257600080fd5b505afa1580156114e6573d6000803e3d6000fd5b505050506040513d601f19601f8201168201806040525061150a9190810190612969565b333085611b50565b61151b82611b6b565b61152481612351565b6115a661152f610be7565b6001600160a01b0316633e413bee6040518163ffffffff1660e01b815260040160206040518083038186803b15801561156757600080fd5b505afa15801561157b573d6000803e3d6000fd5b505050506040513d601f19601f8201168201806040525061159f9190810190612969565b3383612492565b336001600160a01b03167fe5b754fb1abb7f01b499791d0b820ae3b6af3424ac1c59768edb53f4ec31a9298383604051610e059291906134ab565b6115e9611ad2565b6116055760405162461bcd60e51b81526004016104a990613331565b61160f6000611ae1565b611617610b31565b156116345760405162461bcd60e51b81526004016104a990613411565b600061163e610be7565b6001600160a01b03166351adeb576040518163ffffffff1660e01b815260040160206040518083038186803b15801561167657600080fd5b505afa15801561168a573d6000803e3d6000fd5b505050506040513d601f19601f820116820180604052506116ae9190810190612969565b9050806001600160a01b0316846001600160a01b031614156116e25760405162461bcd60e51b81526004016104a9906133b1565b806001600160a01b0316836001600160a01b031614156117145760405162461bcd60e51b81526004016104a9906133b1565b826001600160a01b0316846001600160a01b031614156117465760405162461bcd60e51b81526004016104a990613401565b61174e6128de565b61175885856109bb565b905060006117b361148383600001516040518060400160405280601881526020017f52657365727665537761707065723a206e6f206f7264657200000000000000008152506117a6886124ac565b919063ffffffff6124e016565b90506000198260200151146117e6576117e686868360405180606001604052806023815260200161356660239139612519565b6117f285333087611b50565b6117fd863383612492565b846001600160a01b0316866001600160a01b03167ffa2dda1cc1b86e41239702756b13effbc1a092b5c57e3ad320fbe4f3b13fe23586846040516118429291906134ab565b60405180910390a35050506118576001611ae1565b505050565b611864610cb2565b6001600160a01b0316336001600160a01b0316146118945760405162461bcd60e51b81526004016104a9906133a1565b61189c610b31565b156118b95760405162461bcd60e51b81526004016104a990613411565b6040516317066a5760e21b81526001600160a01b03831690635c19a95c906118e590849060040161328a565b600060405180830381600087803b1580156118ff57600080fd5b505af1158015611913573d6000803e3d6000fd5b505050505050565b7fb53127684a568b3173ae13b9f8a6016e243e63b6e8ee1178d6a717850b5d61035490565b60005490565b6000816001600160a01b03166318160ddd6040518163ffffffff1660e01b815260040160206040518083038186803b15801561198157600080fd5b505afa158015611995573d6000803e3d6000fd5b505050506040513d601f19601f82011682018060405250610a089190810190612b17565b60006119fb83836040518060400160405280601e81526020017f536166654d6174683a207375627472616374696f6e206f766572666c6f770000815250612588565b9392505050565b6000610a088264e8d4a5100063ffffffff6125b416565b611a216128cb565b6040518060200160405280611a3f85670de0b6b3a7640000866125ee565b90529392505050565b611a506128cb565b506040805160208101909152670de0b6b3a7640000815290565b6000813f7fc5d2460186f7233c927e7db2dcc703c0e500b653ca82273b7bfad8045d85a470818114801590611a9e57508115155b949350505050565b6000604051611ab490613269565b6040519081900390209190915550565b6000604051611ab490613274565b600080604051610b409061327f565b6000604051611ab49061327f565b600054611b0390838363ffffffff61258816565b60009081556001600160a01b038416815260016020526040902054611b2f90838363ffffffff61258816565b6001600160a01b039093166000908152600160205260409020929092555050565b6112376001600160a01b03851684848463ffffffff61261016565b611b73610be7565b6001600160a01b03166351adeb576040518163ffffffff1660e01b815260040160206040518083038186803b158015611bab57600080fd5b505afa158015611bbf573d6000803e3d6000fd5b505050506040513d601f19601f82011682018060405250611be39190810190612969565b6001600160a01b03166342966c68826040518263ffffffff1660e01b8152600401611c0e919061349d565b600060405180830381600087803b158015611c2857600080fd5b505af1158015611c3c573d6000803e3d6000fd5b5050505050565b6000604051611ab490613253565b600080611c6d83611c6186610cc1565b9063ffffffff611e9416565b90506001600160a01b038416730b663ceacef01f2f88eb7451c70aa069f19db997148015611ca5575069d3c21bcecceda10000008111155b15611cb4576001915050610a08565b5060009392505050565b600054611cd1908263ffffffff611e9416565b60009081556001600160a01b038316815260016020526040902054611cfc908263ffffffff611e9416565b6001600160a01b0390921660009081526001602052604090209190915550565b6000611d26610be7565b6001600160a01b03166351adeb576040518163ffffffff1660e01b815260040160206040518083038186803b158015611d5e57600080fd5b505afa158015611d72573d6000803e3d6000fd5b505050506040513d601f19601f82011682018060405250611d969190810190612969565b60405163140e25ad60e31b81529091506001600160a01b0382169063a0712d6890611dc590859060040161349d565b600060405180830381600087803b158015611ddf57600080fd5b505af1158015611df3573d6000803e3d6000fd5b50611857925050506001600160a01b03821684846122b4565b611e146128cb565b611e1e8383612634565b611e2857816119fb565b5090919050565b6040805160608101825280820193845292835260208084019283526001600160a01b039586166000908152600282528281209590961686529390935291909220915151825551600190910155565b6000610a088264e8d4a5100063ffffffff61264816565b6000828201838110156119fb5760405162461bcd60e51b81526004016104a990613341565b6000611ec3610be7565b6001600160a01b031663d08c96fc6040518163ffffffff1660e01b815260040160206040518083038186803b158015611efb57600080fd5b505afa158015611f0f573d6000803e3d6000fd5b505050506040513d601f19601f82011682018060405250611f339190810190612969565b9050611fc88183611f42610be7565b6001600160a01b0316633e413bee6040518163ffffffff1660e01b815260040160206040518083038186803b158015611f7a57600080fd5b505afa158015611f8e573d6000803e3d6000fd5b505050506040513d601f19601f82011682018060405250611fb29190810190612969565b6001600160a01b0316919063ffffffff61268a16565b60405163140e25ad60e31b81526001600160a01b0382169063a0712d6890611ff490859060040161349d565b602060405180830381600087803b15801561200e57600080fd5b505af1158015612022573d6000803e3d6000fd5b505050506040513d601f19601f820116820180604052506120469190810190612b17565b156120635760405162461bcd60e51b81526004016104a990613431565b7f0d6d1d31f7ee9ff1c80dce62821dacd813b40a02222da6e5d8fec989c9c6485a826040516107c5919061349d565b6040516370a0823160e01b81526000906001600160a01b038416906370a08231906120c190859060040161328a565b60206040518083038186803b1580156120d957600080fd5b505afa1580156120ed573d6000803e3d6000fd5b505050506040513d601f19601f820116820180604052506119fb9190810190612b17565b60008061211c610be7565b6001600160a01b031663d08c96fc6040518163ffffffff1660e01b815260040160206040518083038186803b15801561215457600080fd5b505afa158015612168573d6000803e3d6000fd5b505050506040513d601f19601f8201168201806040525061218c9190810190612969565b90506121966128cb565b6040518060200160405280836001600160a01b031663182df0f56040518163ffffffff1660e01b815260040160206040518083038186803b1580156121da57600080fd5b505afa1580156121ee573d6000803e3d6000fd5b505050506040513d601f19601f820116820180604052506122129190810190612b17565b8152509050610ebd611483836001600160a01b03166370a08231306040518263ffffffff1660e01b8152600401612249919061328a565b60206040518083038186803b15801561226157600080fd5b505afa158015612275573d6000803e3d6000fd5b505050506040513d601f19601f820116820180604052506122999190810190612b17565b839063ffffffff61230d16565b6000604051611ab49061325e565b60405161185790849063a9059cbb60e01b906122d690869086906024016132e9565b60408051601f198184030181529190526020810180516001600160e01b03166001600160e01b031990931692909217909152612750565b6123156128cb565b604080516020810190915283518190611a3f908563ffffffff6125b416565b8051600090610a0890670de0b6b3a764000063ffffffff61264816565b612359610be7565b6001600160a01b031663d08c96fc6040518163ffffffff1660e01b815260040160206040518083038186803b15801561239157600080fd5b505afa1580156123a5573d6000803e3d6000fd5b505050506040513d601f19601f820116820180604052506123c99190810190612969565b6001600160a01b031663852a12e3826040518263ffffffff1660e01b81526004016123f4919061349d565b602060405180830381600087803b15801561240e57600080fd5b505af1158015612422573d6000803e3d6000fd5b505050506040513d601f19601f820116820180604052506124469190810190612b17565b156124635760405162461bcd60e51b81526004016104a990613421565b7ff8d6fd2fbdb71e78033abedb091ff65af12e5adf780a37fae3ca6da852dabe5381604051610538919061349d565b6118576001600160a01b038416838363ffffffff6122b416565b6124b46128cb565b6040805160208101909152806124d884670de0b6b3a764000063ffffffff6125b416565b905292915050565b6124e86128cb565b604051806020016040528061250f8660000151670de0b6b3a7640000876000015187612835565b9052949350505050565b6001600160a01b0380851660009081526002602090815260408083209387168352929052206001015461255390838363ffffffff61258816565b6001600160a01b0394851660009081526002602090815260408083209690971682529490945293909220600101929092555050565b600081848411156125ac5760405162461bcd60e51b81526004016104a99190613320565b505050900390565b6000826125c357506000610a08565b828202828482816125d057fe5b04146119fb5760405162461bcd60e51b81526004016104a9906133c1565b6000611a9e82612604868663ffffffff6125b416565b9063ffffffff61264816565b6040516112379085906323b872dd60e01b906122d6908790879087906024016132c1565b60006126408383612862565b159392505050565b60006119fb83836040518060400160405280601a81526020017f536166654d6174683a206469766973696f6e206279207a65726f000000000000815250612894565b8015806127125750604051636eb1769f60e11b81526001600160a01b0384169063dd62ed3e906126c090309086906004016132a6565b60206040518083038186803b1580156126d857600080fd5b505afa1580156126ec573d6000803e3d6000fd5b505050506040513d601f19601f820116820180604052506127109190810190612b17565b155b61272e5760405162461bcd60e51b81526004016104a990613451565b60405161185790849063095ea7b360e01b906122d690869086906024016132e9565b612762826001600160a01b0316611a6a565b61277e5760405162461bcd60e51b81526004016104a990613471565b60006060836001600160a01b03168360405161279a9190613247565b6000604051808303816000865af19150503d80600081146127d7576040519150601f19603f3d011682016040523d82523d6000602084013e6127dc565b606091505b5091509150816127fe5760405162461bcd60e51b81526004016104a990613361565b80511561123757808060200190516128199190810190612abd565b6112375760405162461bcd60e51b81526004016104a990613441565b6000612859838361284c888863ffffffff6125b416565b919063ffffffff61289416565b95945050505050565b80518251600091141561287757506001610a08565b815183511161288757600061288a565b60025b60ff169392505050565b600081836128b55760405162461bcd60e51b81526004016104a99190613320565b5060008385816128c157fe5b0495945050505050565b6040518060200160405280600081525090565b60405180604001604052806128f16128cb565b8152602001600081525090565b8035610a0881613536565b8051610a0881613536565b8035610a088161354a565b8051610a088161354a565b8051610a0881613553565b8035610a088161355c565b8051610a088161355c565b60006020828403121561295d57600080fd5b6000611a9e84846128fe565b60006020828403121561297b57600080fd5b6000611a9e8484612909565b6000806040838503121561299a57600080fd5b60006129a685856128fe565b92505060206129b7858286016128fe565b9150509250929050565b6000806000606084860312156129d657600080fd5b60006129e286866128fe565b93505060206129f3868287016128fe565b9250506040612a0486828701612935565b9150509250925092565b60008060008060808587031215612a2457600080fd5b6000612a3087876128fe565b9450506020612a41878288016128fe565b9350506040612a5287828801612935565b9250506060612a6387828801612935565b91505092959194509250565b60008060408385031215612a8257600080fd5b6000612a8e85856128fe565b92505060206129b785828601612935565b600060208284031215612ab157600080fd5b6000611a9e8484612914565b600060208284031215612acf57600080fd5b6000611a9e848461291f565b600060208284031215612aed57600080fd5b6000611a9e848461292a565b600060208284031215612b0b57600080fd5b6000611a9e8484612935565b600060208284031215612b2957600080fd5b6000611a9e8484612940565b612b3e816134f5565b82525050565b612b3e816134cb565b612b3e816134d6565b6000612b61826134b9565b612b6b81856134bd565b9350612b7b818560208601613500565b9290920192915050565b612b3e816134db565b6000612b99826134b9565b612ba381856134c2565b9350612bb3818560208601613500565b612bbc8161352c565b9093019392505050565b6000612bd36021836134bd565b7f656d7074797365742e76322e696d706c656d656e746174696f6e2e70617573658152603960f91b602082015260210192915050565b6000612c16601e836134c2565b7f496d706c656d656e746174696f6e3a207265656e7472616e742063616c6c0000815260200192915050565b6000612c4f601b836134c2565b7f536166654d6174683a206164646974696f6e206f766572666c6f770000000000815260200192915050565b6000612c886023836134bd565b7f656d7074797365742e76322e696d706c656d656e746174696f6e2e726567697381526274727960e81b602082015260230192915050565b6000612ccd6020836134bd565b7f656d7074797365742e76322e696d706c656d656e746174696f6e2e6f776e6572815260200192915050565b6000612d06601a836134c2565b7f496d706c656d656e746174696f6e3a206e6f7420706175736572000000000000815260200192915050565b6000612d3f6020836134c2565b7f5361666545524332303a206c6f772d6c6576656c2063616c6c206661696c6564815260200192915050565b6000612d78601a836134c2565b7f496d706c656d656e746174696f6e3a2073616d65207374617465000000000000815260200192915050565b6000612db16023836134c2565b7f496d706c656d656e746174696f6e3a20616c726561647920696e697469616c698152621e995960ea1b602082015260400192915050565b6000612df6601c836134c2565b7f496d706c656d656e746174696f6e3a206e6f7420636f6e747261637400000000815260200192915050565b6000612e2f6019836134c2565b7f496d706c656d656e746174696f6e3a206e6f74206f776e657200000000000000815260200192915050565b6000612e686021836134c2565b7f52657365727665537761707065723a20756e737570706f7274656420746f6b658152603760f91b602082015260400192915050565b6000612eab6021836134c2565b7f536166654d6174683a206d756c7469706c69636174696f6e206f766572666c6f8152607760f81b602082015260400192915050565b6000612eee6024836134c2565b7f496d706c656d656e746174696f6e3a2074696d656c6f636b73206d757374206d8152630c2e8c6d60e31b602082015260400192915050565b6000612f34601c836134c2565b7f496d706c656d656e746174696f6e3a207a65726f206164647265737300000000815260200192915050565b6000612f6d601f836134c2565b7f52657365727665436f6d7074726f6c6c65723a2063616e7420626f72726f7700815260200192915050565b6000612fa6601c836134c2565b7f52657365727665537761707065723a20746f6b656e7320657175616c00000000815260200192915050565b6000612fdf6016836134c2565b75125b5c1b195b595b9d185d1a5bdb8e881c185d5cd95960521b815260200192915050565b60006130116021836134bd565b7f656d7074797365742e76322e696d706c656d656e746174696f6e2e70617573658152601960fa1b602082015260210192915050565b60006130546025836134bd565b7f656d7074797365742e76322e696d706c656d656e746174696f6e2e6e6f74456e8152641d195c995960da1b602082015260250192915050565b600061309b601b836134c2565b7f526573657276655661756c743a2072656465656d206661696c65640000000000815260200192915050565b60006130d4601b836134c2565b7f526573657276655661756c743a20737570706c79206661696c65640000000000815260200192915050565b600061310d602a836134c2565b7f5361666545524332303a204552433230206f7065726174696f6e20646964206e8152691bdd081cdd58d8d9595960b21b602082015260400192915050565b60006131596036836134c2565b7f5361666545524332303a20617070726f76652066726f6d206e6f6e2d7a65726f81527520746f206e6f6e2d7a65726f20616c6c6f77616e636560501b602082015260400192915050565b60006131b16014836134c2565b73496d706c656d656e746174696f6e3a207468697360601b815260200192915050565b60006131e1601f836134c2565b7f5361666545524332303a2063616c6c20746f206e6f6e2d636f6e747261637400815260200192915050565b80516020830190611237848261323e565b8051604083019061322f848261320d565b50602082015161123760208501825b612b3e816134f2565b60006119fb8284612b56565b6000610a0882612bc6565b6000610a0882612c7b565b6000610a0882612cc0565b6000610a0882613004565b6000610a0882613047565b60208101610a088284612b44565b60208101610a088284612b35565b604081016132b48285612b44565b6119fb6020830184612b44565b606081016132cf8286612b44565b6132dc6020830185612b44565b611a9e604083018461323e565b604081016132f78285612b44565b6119fb602083018461323e565b60208101610a088284612b4d565b60208101610a088284612b85565b602080825281016119fb8184612b8e565b60208082528101610a0881612c09565b60208082528101610a0881612c42565b60208082528101610a0881612cf9565b60208082528101610a0881612d32565b60208082528101610a0881612d6b565b60208082528101610a0881612da4565b60208082528101610a0881612de9565b60208082528101610a0881612e22565b60208082528101610a0881612e5b565b60208082528101610a0881612e9e565b60208082528101610a0881612ee1565b60208082528101610a0881612f27565b60208082528101610a0881612f60565b60208082528101610a0881612f99565b60208082528101610a0881612fd2565b60208082528101610a088161308e565b60208082528101610a08816130c7565b60208082528101610a0881613100565b60208082528101610a088161314c565b60208082528101610a08816131a4565b60208082528101610a08816131d4565b60208101610a08828461320d565b60408101610a08828461321e565b60208101610a08828461323e565b604081016132f7828561323e565b5190565b919050565b90815260200190565b6000610a08826134e6565b151590565b6000610a08826134cb565b6001600160a01b031690565b90565b6000610a08826134db565b60005b8381101561351b578181015183820152602001613503565b838111156112375750506000910152565b601f01601f191690565b61353f816134cb565b8114610e1857600080fd5b61353f816134d6565b61353f816134db565b61353f816134f256fe52657365727665537761707065723a20696e73756666696369656e7420616d6f756e7452657365727665436f6d7074726f6c6c65723a20696e73756666696369656e742064656274a365627a7a723158200e9a0ab952c273262f23a2108651023d09d58fdc42598cf2648e1b551a0392136c6578706572696d656e74616cf564736f6c63430005110040",
  "source": "/*\n    Copyright 2021 Empty Set Squad <emptysetsquad@protonmail.com>\n\n    Licensed under the Apache License, Version 2.0 (the \"License\");\n    you may not use this file except in compliance with the License.\n    You may obtain a copy of the License at\n\n    http://www.apache.org/licenses/LICENSE-2.0\n\n    Unless required by applicable law or agreed to in writing, software\n    distributed under the License is distributed on an \"AS IS\" BASIS,\n    WITHOUT WARRANTIES OR CONDITIONS OF ANY KIND, either express or implied.\n    See the License for the specific language governing permissions and\n    limitations under the License.\n*/\n\npragma solidity 0.5.17;\npragma experimental ABIEncoderV2;\n\nimport \"./ReserveSwapper.sol\";\nimport \"../common/Implementation.sol\";\nimport \"./ReserveIssuer.sol\";\n\n/**\n * @title ReserveImpl\n * @notice Top-level Reserve contract that extends all other reserve sub-contracts\n * @dev This contract should be used an implementation contract for an AdminUpgradeabilityProxy\n */\ncontract ReserveImpl is IReserve, ReserveComptroller, ReserveIssuer, ReserveSwapper { }\n",
  "sourcePath": "/Users/arao/Code/equilibria-xyz/emptyset/protocol/contracts/src/reserve/ReserveImpl.sol",
  "compiler": {
    "name": "solc",
    "version": "0.5.17+commit.d19bba13.Emscripten.clang"
  },
  "schemaVersion": "3.3.4",
  "updatedAt": "2022-08-24T18:51:47.360Z",
  "devdoc": {
    "details": "This contract should be used an implementation contract for an AdminUpgradeabilityProxy",
    "methods": {
      "admin()": {
        "return": "Address of the current proxy admin contract"
      },
      "borrow(address,uint256)": {
        "details": "Non-reentrant     Caller must be owner     Used to pre-fund trusted contracts with ESD without backing (e.g. batchers)",
        "params": {
          "account": "Address to send the borrowed ESD to",
          "amount": "Amount of ESD to borrow"
        }
      },
      "burnStake()": {
        "details": "Non-reentrant     Owner only - governance hook"
      },
      "claimVault()": {
        "details": "Owner only - governance hook     Claims COMP accrued from lending on the USDC pool"
      },
      "debt(address)": {
        "return": "Total debt for borrower"
      },
      "delegateVault(address,address)": {
        "details": "Owner only - governance hook     Works for all COMP-based governance tokens",
        "params": {
          "delegatee": "Account to receive reserve's voting power",
          "token": "Governance token to delegate voting power"
        }
      },
      "implementation()": {
        "return": "Address of the current implementation"
      },
      "mint(uint256)": {
        "details": "Non-reentrant     Normalizes for decimals     Caller must approve reserve to transfer USDC",
        "params": {
          "amount": "Amount of ESD to mint"
        }
      },
      "mintStake(address,uint256)": {
        "details": "Non-reentrant     Owner only - governance hook     ESDS maxes out at ~79b total supply (2^96/10^18) due to its 96-bit limitation     Will revert if totalSupply exceeds this maximum",
        "params": {
          "account": "Account to mint ESDS to",
          "amount": "Amount of ESDS to mint"
        }
      },
      "order(address,address)": {
        "params": {
          "makerToken": "Token that the reserve wishes to sell",
          "takerToken": "Token that the reserve wishes to buy"
        },
        "return": "Specified order"
      },
      "owner()": {
        "return": "Owner contract"
      },
      "paused()": {
        "return": "paused status"
      },
      "pauser()": {
        "return": "Pauser address"
      },
      "redeem(uint256)": {
        "details": "Non-reentrant     Normalizes for decimals     Caller must approve reserve to transfer ESD",
        "params": {
          "amount": "Amount of ESD to mint"
        }
      },
      "redeemPrice()": {
        "details": "Returned as a Decimal.D256     Normalizes for decimals (e.g. 1.00 USDC == Decimal.one())     Equivalent to the current reserve ratio less the current redemption tax (if any)",
        "return": "Current ESD redemption price"
      },
      "registerOrder(address,address,uint256,uint256)": {
        "details": "Owner only - governance hook",
        "params": {
          "amount": "Amount of the makerToken that reserve wishes to sell - uint256(-1) indicates all reserve funds",
          "makerToken": "Token that the reserve wishes to sell",
          "price": "Price as a ratio of takerAmount:makerAmount times 10^18",
          "takerToken": "Token that the reserve wishes to buy"
        }
      },
      "registry()": {
        "return": "Address of the current registry contract"
      },
      "repay(address,uint256)": {
        "details": "Non-reentrant",
        "params": {
          "account": "Address to repay ESD on behalf of",
          "amount": "Amount of ESD to repay"
        }
      },
      "reserveBalance()": {
        "return": "Reserve total value"
      },
      "reserveRatio()": {
        "details": "Assumes 1 ESD = 1 USDC, normalizing for decimals",
        "return": "Reserve ratio"
      },
      "setOwner(address)": {
        "details": "Owner only - governance hook",
        "params": {
          "newOwner": "New owner contract"
        }
      },
      "setPaused(bool)": {
        "details": "pauser only",
        "params": {
          "newPaused": "New paused status"
        }
      },
      "setPauser(address)": {
        "details": "owner only - governance hook",
        "params": {
          "newPauser": "New pauser address"
        }
      },
      "setRegistry(address)": {
        "details": "Owner only - governance hook     If registry is already set, the new registry's timelock must match the current's",
        "params": {
          "newRegistry": "New registry contract"
        }
      },
      "setup()": {
        "details": "Governance hook     Does not ensure that it is only called once because it is permissioned to governance only"
      },
      "swap(address,address,uint256)": {
        "details": "Non-reentrant     Uses the state-defined price for the `makerToken`-`takerToken` order     Maker and taker tokens must be different     Cannot swap ESD",
        "params": {
          "makerToken": "Token that the caller wishes to buy",
          "takerAmount": "Amount of takerToken to sell",
          "takerToken": "Token that the caller wishes to sell"
        }
      },
      "takeOwnership()": {
        "details": "Needs to be called initialize ownership after deployment     Ensure that this has been properly set before using the protocol"
      },
      "totalDebt()": {
        "return": "Total debt"
      }
    },
    "title": "ReserveImpl"
  },
  "userdoc": {
    "methods": {
      "admin()": {
        "notice": "Returns the current proxy admin contract"
      },
      "borrow(address,uint256)": {
        "notice": "Lends `amount` ESD to `to` while recording the corresponding debt entry"
      },
      "burnStake()": {
        "notice": "Burns all reserve-held ESDS tokens"
      },
      "claimVault()": {
        "notice": "Claims all available governance rewards from the external protocol"
      },
      "debt(address)": {
        "notice": "Returns the total debt outstanding for `borrower`"
      },
      "delegateVault(address,address)": {
        "notice": "Delegates voting power to `delegatee` for `token` governance token held by the reserve"
      },
      "implementation()": {
        "notice": "Returns the current implementation"
      },
      "mint(uint256)": {
        "notice": "Mints `amount` ESD to the caller in exchange for an equivalent amount of USDC"
      },
      "mintStake(address,uint256)": {
        "notice": "Mints new ESDS tokens to a specified `account`"
      },
      "order(address,address)": {
        "notice": "Full state of the `makerToken`-`takerToken` order"
      },
      "owner()": {
        "notice": "Owner contract with admin permission over this contract"
      },
      "paused()": {
        "notice": "The paused status"
      },
      "pauser()": {
        "notice": "Pauser address with pausing permission over this contract"
      },
      "redeem(uint256)": {
        "notice": "Burns `amount` ESD from the caller in exchange for USDC at the rate of {redeemPrice}"
      },
      "redeemPrice()": {
        "notice": "The price that one ESD can currently be sold to the reserve for"
      },
      "registerOrder(address,address,uint256,uint256)": {
        "notice": "Sets the `price` and `amount` of the specified `makerToken`-`takerToken` order"
      },
      "registry()": {
        "notice": "Returns the current registry contract"
      },
      "repay(address,uint256)": {
        "notice": "Repays `amount` ESD on behalf of `to` while reducing its corresponding debt"
      },
      "reserveBalance()": {
        "notice": "The total value of the reserve-owned assets denominated in USDC"
      },
      "reserveRatio()": {
        "notice": "The ratio of the {reserveBalance} to total ESD issuance"
      },
      "setOwner(address)": {
        "notice": "Updates the owner contract"
      },
      "setPaused(bool)": {
        "notice": "Updates the paused status"
      },
      "setPauser(address)": {
        "notice": "Updates the pauser contract"
      },
      "setRegistry(address)": {
        "notice": "Updates the registry contract"
      },
      "setup()": {
        "notice": "Hook to surface arbitrary logic to be called after deployment by owner"
      },
      "swap(address,address,uint256)": {
        "notice": "Purchases `makerToken` from the reserve in exchange for `takerAmount` of `takerToken`"
      },
      "takeOwnership()": {
        "notice": "Takes ownership over a contract if none has been set yet"
      },
      "totalDebt()": {
        "notice": "Returns the total debt outstanding"
      }
    },
    "notice": "Top-level Reserve contract that extends all other reserve sub-contracts"
  }
}