{
  "contractName": "Implementation",
  "abi": [
    {
      "anonymous": false,
      "inputs": [
        {
          "indexed": true,
          "internalType": "uint256",
          "name": "epoch",
          "type": "uint256"
        },
        {
          "indexed": false,
          "internalType": "uint256",
          "name": "block",
          "type": "uint256"
        },
        {
          "indexed": false,
          "internalType": "uint256",
          "name": "timestamp",
          "type": "uint256"
        }
      ],
      "name": "Advance",
      "type": "event"
    },
    {
      "anonymous": false,
      "inputs": [
        {
          "indexed": true,
          "internalType": "address",
          "name": "account",
          "type": "address"
        },
        {
          "indexed": false,
          "internalType": "uint256",
          "name": "start",
          "type": "uint256"
        },
        {
          "indexed": false,
          "internalType": "uint256",
          "name": "value",
          "type": "uint256"
        },
        {
          "indexed": false,
          "internalType": "uint256",
          "name": "valueUnderlying",
          "type": "uint256"
        }
      ],
      "name": "Bond",
      "type": "event"
    },
    {
      "anonymous": false,
      "inputs": [
        {
          "indexed": true,
          "internalType": "address",
          "name": "account",
          "type": "address"
        },
        {
          "indexed": true,
          "internalType": "address",
          "name": "candidate",
          "type": "address"
        }
      ],
      "name": "Commit",
      "type": "event"
    },
    {
      "anonymous": false,
      "inputs": [
        {
          "indexed": true,
          "internalType": "address",
          "name": "owner",
          "type": "address"
        },
        {
          "indexed": true,
          "internalType": "address",
          "name": "spender",
          "type": "address"
        },
        {
          "indexed": false,
          "internalType": "uint256",
          "name": "value",
          "type": "uint256"
        }
      ],
      "name": "CouponApproval",
      "type": "event"
    },
    {
      "anonymous": false,
      "inputs": [
        {
          "indexed": true,
          "internalType": "uint256",
          "name": "epoch",
          "type": "uint256"
        },
        {
          "indexed": false,
          "internalType": "uint256",
          "name": "couponsExpired",
          "type": "uint256"
        },
        {
          "indexed": false,
          "internalType": "uint256",
          "name": "lessRedeemable",
          "type": "uint256"
        },
        {
          "indexed": false,
          "internalType": "uint256",
          "name": "lessDebt",
          "type": "uint256"
        },
        {
          "indexed": false,
          "internalType": "uint256",
          "name": "newBonded",
          "type": "uint256"
        }
      ],
      "name": "CouponExpiration",
      "type": "event"
    },
    {
      "anonymous": false,
      "inputs": [
        {
          "indexed": true,
          "internalType": "address",
          "name": "account",
          "type": "address"
        },
        {
          "indexed": true,
          "internalType": "uint256",
          "name": "epoch",
          "type": "uint256"
        },
        {
          "indexed": false,
          "internalType": "uint256",
          "name": "dollarAmount",
          "type": "uint256"
        },
        {
          "indexed": false,
          "internalType": "uint256",
          "name": "couponAmount",
          "type": "uint256"
        }
      ],
      "name": "CouponPurchase",
      "type": "event"
    },
    {
      "anonymous": false,
      "inputs": [
        {
          "indexed": true,
          "internalType": "address",
          "name": "account",
          "type": "address"
        },
        {
          "indexed": true,
          "internalType": "uint256",
          "name": "epoch",
          "type": "uint256"
        },
        {
          "indexed": false,
          "internalType": "uint256",
          "name": "amount",
          "type": "uint256"
        },
        {
          "indexed": false,
          "internalType": "uint256",
          "name": "couponAmount",
          "type": "uint256"
        }
      ],
      "name": "CouponRedemption",
      "type": "event"
    },
    {
      "anonymous": false,
      "inputs": [
        {
          "indexed": true,
          "internalType": "address",
          "name": "from",
          "type": "address"
        },
        {
          "indexed": true,
          "internalType": "address",
          "name": "to",
          "type": "address"
        },
        {
          "indexed": true,
          "internalType": "uint256",
          "name": "epoch",
          "type": "uint256"
        },
        {
          "indexed": false,
          "internalType": "uint256",
          "name": "value",
          "type": "uint256"
        }
      ],
      "name": "CouponTransfer",
      "type": "event"
    },
    {
      "anonymous": false,
      "inputs": [
        {
          "indexed": true,
          "internalType": "address",
          "name": "account",
          "type": "address"
        },
        {
          "indexed": false,
          "internalType": "uint256",
          "name": "value",
          "type": "uint256"
        }
      ],
      "name": "Deposit",
      "type": "event"
    },
    {
      "anonymous": false,
      "inputs": [
        {
          "indexed": true,
          "internalType": "address",
          "name": "account",
          "type": "address"
        },
        {
          "indexed": false,
          "internalType": "uint256",
          "name": "amount",
          "type": "uint256"
        }
      ],
      "name": "Incentivization",
      "type": "event"
    },
    {
      "anonymous": false,
      "inputs": [
        {
          "indexed": true,
          "internalType": "address",
          "name": "account",
          "type": "address"
        },
        {
          "indexed": false,
          "internalType": "uint256",
          "name": "amount",
          "type": "uint256"
        }
      ],
      "name": "IncentivizationWithStake",
      "type": "event"
    },
    {
      "anonymous": false,
      "inputs": [
        {
          "indexed": true,
          "internalType": "address",
          "name": "previousOwner",
          "type": "address"
        },
        {
          "indexed": true,
          "internalType": "address",
          "name": "newOwner",
          "type": "address"
        }
      ],
      "name": "OwnerChanged",
      "type": "event"
    },
    {
      "anonymous": false,
      "inputs": [
        {
          "indexed": true,
          "internalType": "address",
          "name": "candidate",
          "type": "address"
        },
        {
          "indexed": true,
          "internalType": "address",
          "name": "account",
          "type": "address"
        },
        {
          "indexed": true,
          "internalType": "uint256",
          "name": "start",
          "type": "uint256"
        },
        {
          "indexed": false,
          "internalType": "uint256",
          "name": "period",
          "type": "uint256"
        }
      ],
      "name": "Proposal",
      "type": "event"
    },
    {
      "anonymous": false,
      "inputs": [
        {
          "indexed": true,
          "internalType": "uint256",
          "name": "epoch",
          "type": "uint256"
        },
        {
          "indexed": false,
          "internalType": "uint256",
          "name": "rate",
          "type": "uint256"
        },
        {
          "indexed": false,
          "internalType": "uint256",
          "name": "amount",
          "type": "uint256"
        }
      ],
      "name": "StabilityReward",
      "type": "event"
    },
    {
      "anonymous": false,
      "inputs": [
        {
          "indexed": true,
          "internalType": "uint256",
          "name": "epoch",
          "type": "uint256"
        },
        {
          "indexed": false,
          "internalType": "uint256",
          "name": "price",
          "type": "uint256"
        },
        {
          "indexed": false,
          "internalType": "uint256",
          "name": "newDebt",
          "type": "uint256"
        }
      ],
      "name": "SupplyDecrease",
      "type": "event"
    },
    {
      "anonymous": false,
      "inputs": [
        {
          "indexed": true,
          "internalType": "uint256",
          "name": "epoch",
          "type": "uint256"
        },
        {
          "indexed": false,
          "internalType": "uint256",
          "name": "price",
          "type": "uint256"
        },
        {
          "indexed": false,
          "internalType": "uint256",
          "name": "newRedeemable",
          "type": "uint256"
        },
        {
          "indexed": false,
          "internalType": "uint256",
          "name": "lessDebt",
          "type": "uint256"
        },
        {
          "indexed": false,
          "internalType": "uint256",
          "name": "newBonded",
          "type": "uint256"
        }
      ],
      "name": "SupplyIncrease",
      "type": "event"
    },
    {
      "anonymous": false,
      "inputs": [
        {
          "indexed": true,
          "internalType": "uint256",
          "name": "epoch",
          "type": "uint256"
        }
      ],
      "name": "SupplyNeutral",
      "type": "event"
    },
    {
      "anonymous": false,
      "inputs": [
        {
          "indexed": false,
          "internalType": "uint256",
          "name": "totalBonded",
          "type": "uint256"
        },
        {
          "indexed": false,
          "internalType": "uint256",
          "name": "totalStake",
          "type": "uint256"
        }
      ],
      "name": "TokenSplitSnapshot",
      "type": "event"
    },
    {
      "anonymous": false,
      "inputs": [
        {
          "indexed": true,
          "internalType": "address",
          "name": "from",
          "type": "address"
        },
        {
          "indexed": true,
          "internalType": "address",
          "name": "to",
          "type": "address"
        },
        {
          "indexed": false,
          "internalType": "uint256",
          "name": "value",
          "type": "uint256"
        }
      ],
      "name": "Transfer",
      "type": "event"
    },
    {
      "anonymous": false,
      "inputs": [
        {
          "indexed": true,
          "internalType": "address",
          "name": "account",
          "type": "address"
        },
        {
          "indexed": false,
          "internalType": "uint256",
          "name": "start",
          "type": "uint256"
        },
        {
          "indexed": false,
          "internalType": "uint256",
          "name": "value",
          "type": "uint256"
        },
        {
          "indexed": false,
          "internalType": "uint256",
          "name": "valueUnderlying",
          "type": "uint256"
        }
      ],
      "name": "Unbond",
      "type": "event"
    },
    {
      "anonymous": false,
      "inputs": [
        {
          "indexed": true,
          "internalType": "address",
          "name": "implementation",
          "type": "address"
        }
      ],
      "name": "Upgraded",
      "type": "event"
    },
    {
      "anonymous": false,
      "inputs": [
        {
          "indexed": true,
          "internalType": "address",
          "name": "account",
          "type": "address"
        },
        {
          "indexed": true,
          "internalType": "address",
          "name": "candidate",
          "type": "address"
        },
        {
          "indexed": false,
          "internalType": "enum Candidate.Vote",
          "name": "vote",
          "type": "uint8"
        },
        {
          "indexed": false,
          "internalType": "uint256",
          "name": "bonded",
          "type": "uint256"
        }
      ],
      "name": "Vote",
      "type": "event"
    },
    {
      "anonymous": false,
      "inputs": [
        {
          "indexed": true,
          "internalType": "address",
          "name": "account",
          "type": "address"
        },
        {
          "indexed": false,
          "internalType": "uint256",
          "name": "value",
          "type": "uint256"
        }
      ],
      "name": "Withdraw",
      "type": "event"
    },
    {
      "constant": true,
      "inputs": [
        {
          "internalType": "address",
          "name": "owner",
          "type": "address"
        },
        {
          "internalType": "address",
          "name": "spender",
          "type": "address"
        }
      ],
      "name": "allowance",
      "outputs": [
        {
          "internalType": "uint256",
          "name": "",
          "type": "uint256"
        }
      ],
      "payable": false,
      "stateMutability": "view",
      "type": "function"
    },
    {
      "constant": true,
      "inputs": [
        {
          "internalType": "address",
          "name": "owner",
          "type": "address"
        },
        {
          "internalType": "address",
          "name": "spender",
          "type": "address"
        }
      ],
      "name": "allowanceCoupons",
      "outputs": [
        {
          "internalType": "uint256",
          "name": "",
          "type": "uint256"
        }
      ],
      "payable": false,
      "stateMutability": "view",
      "type": "function"
    },
    {
      "constant": false,
      "inputs": [
        {
          "internalType": "address",
          "name": "spender",
          "type": "address"
        },
        {
          "internalType": "uint256",
          "name": "amount",
          "type": "uint256"
        }
      ],
      "name": "approve",
      "outputs": [
        {
          "internalType": "bool",
          "name": "",
          "type": "bool"
        }
      ],
      "payable": false,
      "stateMutability": "nonpayable",
      "type": "function"
    },
    {
      "constant": true,
      "inputs": [
        {
          "internalType": "address",
          "name": "candidate",
          "type": "address"
        }
      ],
      "name": "approveFor",
      "outputs": [
        {
          "internalType": "uint256",
          "name": "",
          "type": "uint256"
        }
      ],
      "payable": false,
      "stateMutability": "view",
      "type": "function"
    },
    {
      "constant": true,
      "inputs": [
        {
          "internalType": "address",
          "name": "account",
          "type": "address"
        }
      ],
      "name": "balanceOf",
      "outputs": [
        {
          "internalType": "uint256",
          "name": "",
          "type": "uint256"
        }
      ],
      "payable": false,
      "stateMutability": "view",
      "type": "function"
    },
    {
      "constant": true,
      "inputs": [
        {
          "internalType": "address",
          "name": "account",
          "type": "address"
        }
      ],
      "name": "balanceOfBonded",
      "outputs": [
        {
          "internalType": "uint256",
          "name": "",
          "type": "uint256"
        }
      ],
      "payable": false,
      "stateMutability": "view",
      "type": "function"
    },
    {
      "constant": true,
      "inputs": [
        {
          "internalType": "address",
          "name": "account",
          "type": "address"
        },
        {
          "internalType": "uint256",
          "name": "epoch",
          "type": "uint256"
        }
      ],
      "name": "balanceOfCouponUnderlying",
      "outputs": [
        {
          "internalType": "uint256",
          "name": "",
          "type": "uint256"
        }
      ],
      "payable": false,
      "stateMutability": "view",
      "type": "function"
    },
    {
      "constant": true,
      "inputs": [
        {
          "internalType": "address",
          "name": "account",
          "type": "address"
        },
        {
          "internalType": "uint256",
          "name": "epoch",
          "type": "uint256"
        }
      ],
      "name": "balanceOfCoupons",
      "outputs": [
        {
          "internalType": "uint256",
          "name": "",
          "type": "uint256"
        }
      ],
      "payable": false,
      "stateMutability": "view",
      "type": "function"
    },
    {
      "constant": true,
      "inputs": [
        {
          "internalType": "address",
          "name": "account",
          "type": "address"
        }
      ],
      "name": "balanceOfStaged",
      "outputs": [
        {
          "internalType": "uint256",
          "name": "",
          "type": "uint256"
        }
      ],
      "payable": false,
      "stateMutability": "view",
      "type": "function"
    },
    {
      "constant": true,
      "inputs": [
        {
          "internalType": "uint256",
          "name": "epoch",
          "type": "uint256"
        }
      ],
      "name": "bootstrappingAt",
      "outputs": [
        {
          "internalType": "bool",
          "name": "",
          "type": "bool"
        }
      ],
      "payable": false,
      "stateMutability": "view",
      "type": "function"
    },
    {
      "constant": true,
      "inputs": [
        {
          "internalType": "uint256",
          "name": "amount",
          "type": "uint256"
        }
      ],
      "name": "couponPremium",
      "outputs": [
        {
          "internalType": "uint256",
          "name": "",
          "type": "uint256"
        }
      ],
      "payable": false,
      "stateMutability": "view",
      "type": "function"
    },
    {
      "constant": true,
      "inputs": [
        {
          "internalType": "uint256",
          "name": "epoch",
          "type": "uint256"
        }
      ],
      "name": "couponsExpiration",
      "outputs": [
        {
          "internalType": "uint256",
          "name": "",
          "type": "uint256"
        }
      ],
      "payable": false,
      "stateMutability": "view",
      "type": "function"
    },
    {
      "constant": true,
      "inputs": [],
      "name": "decimals",
      "outputs": [
        {
          "internalType": "uint8",
          "name": "",
          "type": "uint8"
        }
      ],
      "payable": false,
      "stateMutability": "view",
      "type": "function"
    },
    {
      "constant": true,
      "inputs": [],
      "name": "dollar",
      "outputs": [
        {
          "internalType": "contract IDollar",
          "name": "",
          "type": "address"
        }
      ],
      "payable": false,
      "stateMutability": "view",
      "type": "function"
    },
    {
      "constant": true,
      "inputs": [],
      "name": "epoch",
      "outputs": [
        {
          "internalType": "uint256",
          "name": "",
          "type": "uint256"
        }
      ],
      "payable": false,
      "stateMutability": "view",
      "type": "function"
    },
    {
      "constant": true,
      "inputs": [],
      "name": "epochTime",
      "outputs": [
        {
          "internalType": "uint256",
          "name": "",
          "type": "uint256"
        }
      ],
      "payable": false,
      "stateMutability": "view",
      "type": "function"
    },
    {
      "constant": true,
      "inputs": [],
      "name": "eraStart",
      "outputs": [
        {
          "internalType": "uint256",
          "name": "",
          "type": "uint256"
        }
      ],
      "payable": false,
      "stateMutability": "view",
      "type": "function"
    },
    {
      "constant": true,
      "inputs": [],
      "name": "eraStatus",
      "outputs": [
        {
          "internalType": "enum Era.Status",
          "name": "",
          "type": "uint8"
        }
      ],
      "payable": false,
      "stateMutability": "view",
      "type": "function"
    },
    {
      "constant": true,
      "inputs": [],
      "name": "ess",
      "outputs": [
        {
          "internalType": "contract IERC20",
          "name": "",
          "type": "address"
        }
      ],
      "payable": false,
      "stateMutability": "view",
      "type": "function"
    },
    {
      "constant": true,
      "inputs": [
        {
          "internalType": "uint256",
          "name": "epoch",
          "type": "uint256"
        }
      ],
      "name": "expiringCoupons",
      "outputs": [
        {
          "internalType": "uint256",
          "name": "",
          "type": "uint256"
        }
      ],
      "payable": false,
      "stateMutability": "view",
      "type": "function"
    },
    {
      "constant": true,
      "inputs": [
        {
          "internalType": "uint256",
          "name": "epoch",
          "type": "uint256"
        },
        {
          "internalType": "uint256",
          "name": "i",
          "type": "uint256"
        }
      ],
      "name": "expiringCouponsAtIndex",
      "outputs": [
        {
          "internalType": "uint256",
          "name": "",
          "type": "uint256"
        }
      ],
      "payable": false,
      "stateMutability": "view",
      "type": "function"
    },
    {
      "constant": true,
      "inputs": [
        {
          "internalType": "address",
          "name": "account",
          "type": "address"
        }
      ],
      "name": "fluidUntil",
      "outputs": [
        {
          "internalType": "uint256",
          "name": "",
          "type": "uint256"
        }
      ],
      "payable": false,
      "stateMutability": "view",
      "type": "function"
    },
    {
      "constant": true,
      "inputs": [],
      "name": "implementation",
      "outputs": [
        {
          "internalType": "address",
          "name": "impl",
          "type": "address"
        }
      ],
      "payable": false,
      "stateMutability": "view",
      "type": "function"
    },
    {
      "constant": true,
      "inputs": [
        {
          "internalType": "address",
          "name": "candidate",
          "type": "address"
        }
      ],
      "name": "isInitialized",
      "outputs": [
        {
          "internalType": "bool",
          "name": "",
          "type": "bool"
        }
      ],
      "payable": false,
      "stateMutability": "view",
      "type": "function"
    },
    {
      "constant": true,
      "inputs": [
        {
          "internalType": "address",
          "name": "candidate",
          "type": "address"
        }
      ],
      "name": "isNominated",
      "outputs": [
        {
          "internalType": "bool",
          "name": "",
          "type": "bool"
        }
      ],
      "payable": false,
      "stateMutability": "view",
      "type": "function"
    },
    {
      "constant": true,
      "inputs": [
        {
          "internalType": "address",
          "name": "account",
          "type": "address"
        }
      ],
      "name": "lockedUntil",
      "outputs": [
        {
          "internalType": "uint256",
          "name": "",
          "type": "uint256"
        }
      ],
      "payable": false,
      "stateMutability": "view",
      "type": "function"
    },
    {
      "constant": true,
      "inputs": [],
      "name": "name",
      "outputs": [
        {
          "internalType": "string",
          "name": "",
          "type": "string"
        }
      ],
      "payable": false,
      "stateMutability": "view",
      "type": "function"
    },
    {
      "constant": true,
      "inputs": [],
      "name": "oracle",
      "outputs": [
        {
          "internalType": "contract IOracle",
          "name": "",
          "type": "address"
        }
      ],
      "payable": false,
      "stateMutability": "view",
      "type": "function"
    },
    {
      "constant": true,
      "inputs": [
        {
          "internalType": "uint256",
          "name": "epoch",
          "type": "uint256"
        }
      ],
      "name": "outstandingCoupons",
      "outputs": [
        {
          "internalType": "uint256",
          "name": "",
          "type": "uint256"
        }
      ],
      "payable": false,
      "stateMutability": "view",
      "type": "function"
    },
    {
      "constant": true,
      "inputs": [],
      "name": "owner",
      "outputs": [
        {
          "internalType": "address",
          "name": "",
          "type": "address"
        }
      ],
      "payable": false,
      "stateMutability": "view",
      "type": "function"
    },
    {
      "constant": true,
      "inputs": [
        {
          "internalType": "address",
          "name": "candidate",
          "type": "address"
        }
      ],
      "name": "periodFor",
      "outputs": [
        {
          "internalType": "uint256",
          "name": "",
          "type": "uint256"
        }
      ],
      "payable": false,
      "stateMutability": "view",
      "type": "function"
    },
    {
      "constant": true,
      "inputs": [],
      "name": "pool",
      "outputs": [
        {
          "internalType": "contract IPool",
          "name": "",
          "type": "address"
        }
      ],
      "payable": false,
      "stateMutability": "view",
      "type": "function"
    },
    {
      "constant": true,
      "inputs": [],
      "name": "poolDollarWithdrawable",
      "outputs": [
        {
          "internalType": "uint256",
          "name": "",
          "type": "uint256"
        }
      ],
      "payable": false,
      "stateMutability": "view",
      "type": "function"
    },
    {
      "constant": true,
      "inputs": [
        {
          "internalType": "address",
          "name": "account",
          "type": "address"
        }
      ],
      "name": "poolHasWithdrawn",
      "outputs": [
        {
          "internalType": "bool",
          "name": "",
          "type": "bool"
        }
      ],
      "payable": false,
      "stateMutability": "view",
      "type": "function"
    },
    {
      "constant": true,
      "inputs": [],
      "name": "poolTotalRewarded",
      "outputs": [
        {
          "internalType": "uint256",
          "name": "",
          "type": "uint256"
        }
      ],
      "payable": false,
      "stateMutability": "view",
      "type": "function"
    },
    {
      "constant": true,
      "inputs": [
        {
          "internalType": "address",
          "name": "account",
          "type": "address"
        }
      ],
      "name": "poolWithdrawable",
      "outputs": [
        {
          "internalType": "uint256",
          "name": "",
          "type": "uint256"
        },
        {
          "internalType": "uint256",
          "name": "",
          "type": "uint256"
        }
      ],
      "payable": false,
      "stateMutability": "view",
      "type": "function"
    },
    {
      "constant": true,
      "inputs": [
        {
          "internalType": "address",
          "name": "account",
          "type": "address"
        },
        {
          "internalType": "address",
          "name": "candidate",
          "type": "address"
        }
      ],
      "name": "recordedVote",
      "outputs": [
        {
          "internalType": "enum Candidate.Vote",
          "name": "",
          "type": "uint8"
        }
      ],
      "payable": false,
      "stateMutability": "view",
      "type": "function"
    },
    {
      "constant": true,
      "inputs": [
        {
          "internalType": "address",
          "name": "candidate",
          "type": "address"
        }
      ],
      "name": "rejectFor",
      "outputs": [
        {
          "internalType": "uint256",
          "name": "",
          "type": "uint256"
        }
      ],
      "payable": false,
      "stateMutability": "view",
      "type": "function"
    },
    {
      "constant": true,
      "inputs": [
        {
          "internalType": "address",
          "name": "candidate",
          "type": "address"
        }
      ],
      "name": "startFor",
      "outputs": [
        {
          "internalType": "uint256",
          "name": "",
          "type": "uint256"
        }
      ],
      "payable": false,
      "stateMutability": "view",
      "type": "function"
    },
    {
      "constant": true,
      "inputs": [
        {
          "internalType": "address",
          "name": "account",
          "type": "address"
        }
      ],
      "name": "statusOf",
      "outputs": [
        {
          "internalType": "enum Account.Status",
          "name": "",
          "type": "uint8"
        }
      ],
      "payable": false,
      "stateMutability": "view",
      "type": "function"
    },
    {
      "constant": true,
      "inputs": [],
      "name": "symbol",
      "outputs": [
        {
          "internalType": "string",
          "name": "",
          "type": "string"
        }
      ],
      "payable": false,
      "stateMutability": "view",
      "type": "function"
    },
    {
      "constant": true,
      "inputs": [],
      "name": "totalBonded",
      "outputs": [
        {
          "internalType": "uint256",
          "name": "",
          "type": "uint256"
        }
      ],
      "payable": false,
      "stateMutability": "view",
      "type": "function"
    },
    {
      "constant": true,
      "inputs": [
        {
          "internalType": "uint256",
          "name": "epoch",
          "type": "uint256"
        }
      ],
      "name": "totalBondedAt",
      "outputs": [
        {
          "internalType": "uint256",
          "name": "",
          "type": "uint256"
        }
      ],
      "payable": false,
      "stateMutability": "view",
      "type": "function"
    },
    {
      "constant": true,
      "inputs": [],
      "name": "totalCouponUnderlying",
      "outputs": [
        {
          "internalType": "uint256",
          "name": "",
          "type": "uint256"
        }
      ],
      "payable": false,
      "stateMutability": "view",
      "type": "function"
    },
    {
      "constant": true,
      "inputs": [],
      "name": "totalCoupons",
      "outputs": [
        {
          "internalType": "uint256",
          "name": "",
          "type": "uint256"
        }
      ],
      "payable": false,
      "stateMutability": "view",
      "type": "function"
    },
    {
      "constant": true,
      "inputs": [],
      "name": "totalDebt",
      "outputs": [
        {
          "internalType": "uint256",
          "name": "",
          "type": "uint256"
        }
      ],
      "payable": false,
      "stateMutability": "view",
      "type": "function"
    },
    {
      "constant": true,
      "inputs": [],
      "name": "totalNet",
      "outputs": [
        {
          "internalType": "uint256",
          "name": "",
          "type": "uint256"
        }
      ],
      "payable": false,
      "stateMutability": "view",
      "type": "function"
    },
    {
      "constant": true,
      "inputs": [],
      "name": "totalRedeemable",
      "outputs": [
        {
          "internalType": "uint256",
          "name": "",
          "type": "uint256"
        }
      ],
      "payable": false,
      "stateMutability": "view",
      "type": "function"
    },
    {
      "constant": true,
      "inputs": [],
      "name": "totalStaged",
      "outputs": [
        {
          "internalType": "uint256",
          "name": "",
          "type": "uint256"
        }
      ],
      "payable": false,
      "stateMutability": "view",
      "type": "function"
    },
    {
      "constant": true,
      "inputs": [],
      "name": "totalSupply",
      "outputs": [
        {
          "internalType": "uint256",
          "name": "",
          "type": "uint256"
        }
      ],
      "payable": false,
      "stateMutability": "view",
      "type": "function"
    },
    {
      "constant": false,
      "inputs": [
        {
          "internalType": "address",
          "name": "recipient",
          "type": "address"
        },
        {
          "internalType": "uint256",
          "name": "amount",
          "type": "uint256"
        }
      ],
      "name": "transfer",
      "outputs": [
        {
          "internalType": "bool",
          "name": "",
          "type": "bool"
        }
      ],
      "payable": false,
      "stateMutability": "nonpayable",
      "type": "function"
    },
    {
      "constant": false,
      "inputs": [
        {
          "internalType": "address",
          "name": "sender",
          "type": "address"
        },
        {
          "internalType": "address",
          "name": "recipient",
          "type": "address"
        },
        {
          "internalType": "uint256",
          "name": "amount",
          "type": "uint256"
        }
      ],
      "name": "transferFrom",
      "outputs": [
        {
          "internalType": "bool",
          "name": "",
          "type": "bool"
        }
      ],
      "payable": false,
      "stateMutability": "nonpayable",
      "type": "function"
    },
    {
      "constant": true,
      "inputs": [],
      "name": "univ2",
      "outputs": [
        {
          "internalType": "contract IERC20",
          "name": "",
          "type": "address"
        }
      ],
      "payable": false,
      "stateMutability": "view",
      "type": "function"
    },
    {
      "constant": true,
      "inputs": [],
      "name": "v2Migrator",
      "outputs": [
        {
          "internalType": "address",
          "name": "",
          "type": "address"
        }
      ],
      "payable": false,
      "stateMutability": "view",
      "type": "function"
    },
    {
      "constant": true,
      "inputs": [],
      "name": "v2Reserve",
      "outputs": [
        {
          "internalType": "address",
          "name": "",
          "type": "address"
        }
      ],
      "payable": false,
      "stateMutability": "view",
      "type": "function"
    },
    {
      "constant": true,
      "inputs": [
        {
          "internalType": "address",
          "name": "candidate",
          "type": "address"
        }
      ],
      "name": "votesFor",
      "outputs": [
        {
          "internalType": "uint256",
          "name": "",
          "type": "uint256"
        }
      ],
      "payable": false,
      "stateMutability": "view",
      "type": "function"
    },
    {
      "constant": false,
      "inputs": [],
      "name": "initialize",
      "outputs": [],
      "payable": false,
      "stateMutability": "nonpayable",
      "type": "function"
    },
    {
      "constant": false,
      "inputs": [
        {
          "internalType": "address",
          "name": "account",
          "type": "address"
        },
        {
          "internalType": "uint256",
          "name": "amount",
          "type": "uint256"
        }
      ],
      "name": "burn",
      "outputs": [],
      "payable": false,
      "stateMutability": "nonpayable",
      "type": "function"
    },
    {
      "constant": false,
      "inputs": [],
      "name": "poolWithdraw",
      "outputs": [],
      "payable": false,
      "stateMutability": "nonpayable",
      "type": "function"
    },
    {
      "constant": false,
      "inputs": [
        {
          "internalType": "address",
          "name": "candidate",
          "type": "address"
        }
      ],
      "name": "commit",
      "outputs": [],
      "payable": false,
      "stateMutability": "nonpayable",
      "type": "function"
    },
    {
      "constant": false,
      "inputs": [
        {
          "internalType": "address",
          "name": "newOwner",
          "type": "address"
        }
      ],
      "name": "changeOwner",
      "outputs": [],
      "payable": false,
      "stateMutability": "nonpayable",
      "type": "function"
    },
    {
      "constant": false,
      "inputs": [
        {
          "internalType": "uint256",
          "name": "value",
          "type": "uint256"
        }
      ],
      "name": "withdraw",
      "outputs": [],
      "payable": false,
      "stateMutability": "nonpayable",
      "type": "function"
    },
    {
      "constant": false,
      "inputs": [
        {
          "internalType": "uint256",
          "name": "couponEpoch",
          "type": "uint256"
        },
        {
          "internalType": "uint256",
          "name": "amount",
          "type": "uint256"
        }
      ],
      "name": "redeemCoupons",
      "outputs": [],
      "payable": false,
      "stateMutability": "nonpayable",
      "type": "function"
    },
    {
      "constant": false,
      "inputs": [
        {
          "internalType": "address",
          "name": "spender",
          "type": "address"
        },
        {
          "internalType": "uint256",
          "name": "amount",
          "type": "uint256"
        }
      ],
      "name": "approveCoupons",
      "outputs": [],
      "payable": false,
      "stateMutability": "nonpayable",
      "type": "function"
    },
    {
      "constant": false,
      "inputs": [
        {
          "internalType": "address",
          "name": "sender",
          "type": "address"
        },
        {
          "internalType": "address",
          "name": "recipient",
          "type": "address"
        },
        {
          "internalType": "uint256",
          "name": "epoch",
          "type": "uint256"
        },
        {
          "internalType": "uint256",
          "name": "amount",
          "type": "uint256"
        }
      ],
      "name": "transferCoupons",
      "outputs": [],
      "payable": false,
      "stateMutability": "nonpayable",
      "type": "function"
    }
  ],
  "bytecode": "0x608060405234801561001057600080fd5b50612ea8806100206000396000f3fe608060405234801561001057600080fd5b50600436106103da5760003560e01c80637298d36e1161020a578063a50cd8e711610125578063d60b347f116100b8578063edb6b80a11610087578063edb6b80a1461076f578063f111af0014610784578063f1b7cf491461078c578063fc7b9c18146104b0578063ffbe3b731461079f576103da565b8063d60b347f1461073b578063d6a9cf081461074e578063d8f5413814610725578063dd62ed3e14610761576103da565b8063b739a7b8116100f4578063b739a7b8146104b0578063bc7513e214610717578063c9aff70c14610725578063cf02377914610733576103da565b8063a50cd8e7146106e9578063a6c409f1146106fc578063a6f9dae114610704578063a9059cbb14610432576103da565b806391051e061161019d5780639afc21921161016c5780639afc2192146106a85780639bc289f1146106b05780639dc29fac146106c35780639f6e1b26146106d6576103da565b806391051e061461068557806395d89b411461068d57806397a5d5b5146106955780639a649edc146104b0576103da565b8063825ad607116101d9578063825ad6071461064f57806386cf9f14146106625780638da5cb5b14610675578063900cf0cf1461067d576103da565b80637298d36e1461062457806375d5024b1461062c5780637dc0d1d01461063f5780638129fc1c14610647576103da565b8063369e8c1d116102fa5780634c7360991161028d5780635c60da1b1161025c5780635c60da1b146105e357806364668022146105eb5780636a39e328146105fe57806370a0823114610611576103da565b80634c736099146105ad5780635053e461146105c057806351adeb57146105c857806351bf21d8146105d0576103da565b806344a52156116102c957806344a521561461056757806344d96e951461057c5780634501c16c146105845780634a833feb146105a5576103da565b8063369e8c1d146105195780633a3e6c811461052c5780633fbba9a61461053f5780634303d4f71461055f576103da565b806316f0115b116103725780632e1a7d4d116103415780632e1a7d4d146104cb5780632f7f889e146104de578063313ce567146104f1578063353a420c14610506576103da565b806316f0115b1461049357806318160ddd146104a85780631edbcf6c146104b057806323b872dd146104b8576103da565b80630d78ceb4116103ae5780630d78ceb41461044557806310e95b6c14610465578063143193af1461047857806315e14bf614610480576103da565b80625edd37146103df57806303842fbd146103f457806306fdde031461041d578063095ea7b314610432575b600080fd5b6103f26103ed366004612593565b6107b2565b005b6104076104023660046124e6565b6108d5565b6040516104149190612b48565b60405180910390f35b6104256108f7565b6040516104149190612b8e565b6104076104403660046125f4565b610927565b6104586104533660046125f4565b610930565b6040516104149190612c5f565b610458610473366004612660565b610958565b61045861096d565b61045861048e3660046124e6565b610973565b61049b610991565b6040516104149190612b56565b6104586109a0565b6104586109a6565b6104076104c6366004612546565b6109ab565b6103f26104d9366004612660565b6109b5565b6103f26104ec3660046125f4565b610aa4565b6104f9610b24565b6040516104149190612c96565b6104586105143660046124e6565b610b29565b6103f26105273660046124e6565b610b47565b61040761053a3660046124e6565b610bc8565b61055261054d36600461250c565b610be5565b6040516104149190612b64565b610458610c18565b61056f610c1e565b6040516104149190612b11565b610458610c28565b6105976105923660046124e6565b610c2e565b604051610414929190612c88565b610458610db1565b6104586105bb36600461269c565b610db7565b610458610de7565b61049b610df1565b6104586105de3660046124e6565b610dfb565b61056f610e19565b6104586105f93660046124e6565b610e3e565b61045861060c366004612660565b610e5c565b61045861061f3660046124e6565b610e71565b61049b610e8f565b61040761063a366004612660565b610e99565b61049b610e9f565b6103f2610ea9565b61045861065d3660046124e6565b611441565b6104586106703660046124e6565b61148d565b61056f6114a8565b6104586114b7565b6103f26114bd565b6104256116b0565b6105526106a33660046124e6565b6116ce565b61056f611733565b6104586106be3660046124e6565b61173d565b6103f26106d13660046125f4565b61175b565b6104586106e436600461250c565b6117c0565b6104586106f73660046124e6565b6117ef565b610458611806565b6103f26107123660046124e6565b611897565b6104586104403660046125f4565b61045861063a366004612660565b6104586118fb565b6104076107493660046124e6565b611901565b6103f261075c36600461269c565b611922565b61045861044036600461250c565b610777611a54565b6040516104149190612b72565b61049b611a59565b61045861079a3660046124e6565b611a63565b6104586107ad366004612660565b611a7e565b6001600160a01b0384166107e15760405162461bcd60e51b81526004016107d890612c2f565b60405180910390fd5b6001600160a01b0383166108075760405162461bcd60e51b81526004016107d890612bdf565b61082b8483836040518060600160405280602e8152602001612dab602e9139611a90565b610836838383611b06565b336001600160a01b0385161480159061085a575060001961085785336117c0565b14155b1561088357610883843383604051806060016040528060248152602001612e1f60249139611b79565b81836001600160a01b0316856001600160a01b03167f0f1dbb1ccbe57a1590c7baad7b01d581b730c9ebc535dcde4345e6db424063d8846040516108c79190612c5f565b60405180910390a450505050565b6001600160a01b03811660009081526015602052604090205460ff165b919050565b604080518082019091526016815275456d7074792053657420446f6c6c6172205374616b6560501b602082015290565b60005b92915050565b6001600160a01b03919091166000908152600f60209081526040808320938352929052205490565b6000908152600d602052604090206002015490565b60145490565b6001600160a01b03166000908152600e602052604090206001015490565b600061099b611bea565b905090565b60035490565b600090565b60005b9392505050565b6109bd610df1565b6001600160a01b031663a9059cbb33836040518363ffffffff1660e01b81526004016109ea929190612b1f565b602060405180830381600087803b158015610a0457600080fd5b505af1158015610a18573d6000803e3d6000fd5b505050506040513d601f19601f82011682018060405250610a3c9190810190612624565b50610a603382604051806060016040528060248152602001612dfb60249139611c02565b336001600160a01b03167f884edad9ce6fa2440d8a54cc123490eb96d2768479d49ff9c7366125a942436482604051610a999190612c5f565b60405180910390a250565b6001600160a01b038216610aca5760405162461bcd60e51b81526004016107d890612c1f565b610ad5338383611c61565b816001600160a01b0316336001600160a01b03167f8ff27e6b95060c1ca851e7c2c28af8b413eb1a8bcb637b0290da9543a709cce383604051610b189190612c5f565b60405180910390a35050565b601290565b6001600160a01b03166000908152600e602052604090206003015490565b610b86610b526114a8565b6001600160a01b0316336001600160a01b031614692832b936b4b9b9b4b7b760b11b682737ba1037bbb732b960b91b611c91565b610b8f81611ceb565b6040516001600160a01b0382169033907f815ca4497ab9fc80c76f210e6e842a5e198e195aa136034557eee144f790e7bb90600090a350565b6001600160a01b03166000908152600e6020526040902054151590565b6001600160a01b038082166000908152600e60209081526040808320938616835260049093019052205460ff1692915050565b60105490565b600061099b611dd7565b60045490565b600080610c3a836108d5565b15610c4a57506000905080610dac565b6000610d61610c57610991565b6001600160a01b03166386cf9f14866040518263ffffffff1660e01b8152600401610c829190612b11565b60206040518083038186803b158015610c9a57600080fd5b505afa158015610cae573d6000803e3d6000fd5b505050506040513d601f19601f82011682018060405250610cd2919081019061267e565b610cda610991565b6001600160a01b031663825ad607876040518263ffffffff1660e01b8152600401610d059190612b11565b60206040518083038186803b158015610d1d57600080fd5b505afa158015610d31573d6000803e3d6000fd5b505050506040513d601f19601f82011682018060405250610d55919081019061267e565b9063ffffffff611def16565b90506000610da4610d7186611e14565b610d79610991565b6001600160a01b0316631667eb17886040518263ffffffff1660e01b8152600401610d059190612b11565b919350909150505b915091565b60135490565b6000828152600d60205260408120600301805483908110610dd457fe5b9060005260206000200154905092915050565b600061099b6114b7565b600061099b612078565b6001600160a01b03166000908152600c602052604090206004015490565b7f360894a13ba1a3210667c828492db98dca3e2076cc3735a920a3ca505d382bbc5490565b6001600160a01b03166000908152600e602052604090206002015490565b6000908152600d602052604090206003015490565b6001600160a01b03166000908152600c602052604090206001015490565b600061099b612090565b50600090565b600061099b6120a8565b610ee2610eb7610749610e19565b15692832b936b4b9b9b4b7b760b11b72105b1c9958591e481a5b9a5d1a585b1a5e9959606a1b611c91565b610ef2610eed610e19565b6120c0565b610efa610df1565b6001600160a01b03166340c10f1930610f11610c18565b6040518363ffffffff1660e01b8152600401610f2e929190612b3a565b602060405180830381600087803b158015610f4857600080fd5b505af1158015610f5c573d6000803e3d6000fd5b505050506040513d601f19601f82011682018060405250610f809190810190612624565b506000610f8b611a59565b6001600160a01b03166370a08231610fa1611733565b6040518263ffffffff1660e01b8152600401610fbd9190612b11565b60206040518083038186803b158015610fd557600080fd5b505afa158015610fe9573d6000803e3d6000fd5b505050506040513d601f19601f8201168201806040525061100d919081019061267e565b905061101930826120e7565b6000611023611a59565b6001600160a01b03166370a08231306040518263ffffffff1660e01b815260040161104e9190612b11565b60206040518083038186803b15801561106657600080fd5b505afa15801561107a573d6000803e3d6000fd5b505050506040513d601f19601f8201168201806040525061109e919081019061267e565b90506110a8611733565b6001600160a01b0316633e54bacb6000846040518363ffffffff1660e01b81526004016110d6929190612b80565b600060405180830381600087803b1580156110f057600080fd5b505af1158015611104573d6000803e3d6000fd5b505050506000611112611a59565b6001600160a01b03166370a08231611128610c1e565b6040518263ffffffff1660e01b81526004016111449190612b11565b60206040518083038186803b15801561115c57600080fd5b505afa158015611170573d6000803e3d6000fd5b505050506040513d601f19601f82011682018060405250611194919081019061267e565b905061119e611a59565b6001600160a01b031663a9059cbb6111b4610c1e565b6111c4868663ffffffff611def16565b6040518363ffffffff1660e01b81526004016111e1929190612b3a565b602060405180830381600087803b1580156111fb57600080fd5b505af115801561120f573d6000803e3d6000fd5b505050506040513d601f19601f820116820180604052506112339190810190612624565b50600061124a83610d55848763ffffffff611def16565b9050611254611a59565b6001600160a01b03166370a0823161126a611733565b6040518263ffffffff1660e01b81526004016112869190612b11565b60206040518083038186803b15801561129e57600080fd5b505afa1580156112b2573d6000803e3d6000fd5b505050506040513d601f19601f820116820180604052506112d6919081019061267e565b156112f35760405162461bcd60e51b81526004016107d890612c0f565b6112fb611a59565b6001600160a01b03166370a08231306040518263ffffffff1660e01b81526004016113269190612b11565b60206040518083038186803b15801561133e57600080fd5b505afa158015611352573d6000803e3d6000fd5b505050506040513d601f19601f82011682018060405250611376919081019061267e565b156113935760405162461bcd60e51b81526004016107d890612c4f565b8061139c611a59565b6001600160a01b03166370a082316113b2610c1e565b6040518263ffffffff1660e01b81526004016113ce9190612b11565b60206040518083038186803b1580156113e657600080fd5b505afa1580156113fa573d6000803e3d6000fd5b505050506040513d601f19601f8201168201806040525061141e919081019061267e565b1461143b5760405162461bcd60e51b81526004016107d890612b9f565b50505050565b60008061144c6109a0565b90508061145d5760009150506108f2565b6109ae8161148161146d86610e71565b611475610c28565b9063ffffffff61218316565b9063ffffffff6121bd16565b6001600160a01b03166000908152600c602052604090205490565b6016546001600160a01b031690565b60025490565b6114c6336108d5565b156114e35760405162461bcd60e51b81526004016107d890612bbf565b6000806114ef33610c2e565b909250905081156115f357611502610991565b6001600160a01b0316637298d36e6040518163ffffffff1660e01b815260040160206040518083038186803b15801561153a57600080fd5b505afa15801561154e573d6000803e3d6000fd5b505050506040513d601f19601f820116820180604052506115729190810190612642565b6001600160a01b031663a9059cbb33846040518363ffffffff1660e01b815260040161159f929190612b1f565b602060405180830381600087803b1580156115b957600080fd5b505af11580156115cd573d6000803e3d6000fd5b505050506040513d601f19601f820116820180604052506115f19190810190612624565b505b80156116a357611601610df1565b6001600160a01b031663a9059cbb33836040518363ffffffff1660e01b815260040161162e929190612b1f565b602060405180830381600087803b15801561164857600080fd5b505af115801561165c573d6000803e3d6000fd5b505050506040513d601f19601f820116820180604052506116809190810190612624565b506116a381604051806060016040528060228152602001612dd9602291396121ff565b6116ac3361221a565b5050565b6040805180820190915260048152634553445360e01b602082015290565b60006116d86114b7565b6001600160a01b0383166000908152600c60205260409020600501541115611702575060026108f2565b6001600160a01b0382166000908152600c60205260409020600401546117266114b7565b101561092757600161092a565b600061099b61223e565b6001600160a01b03166000908152600c602052604090206005015490565b61179d611766611733565b6001600160a01b0316336001600160a01b031614692832b936b4b9b9b4b7b760b11b6b2737ba1036b4b3b930ba37b960a11b611c91565b6116ac8282604051806060016040528060238152602001612e4360239139612256565b6001600160a01b039182166000908152600c602090815260408083209390941682526003909201909152205490565b600061092a6117fd83610b29565b610d5584610e3e565b600061099b6118136109a6565b61181b610df1565b6001600160a01b03166318160ddd6040518163ffffffff1660e01b815260040160206040518083038186803b15801561185357600080fd5b505afa158015611867573d6000803e3d6000fd5b505050506040513d601f19601f8201168201806040525061188b919081019061267e565b9063ffffffff61230116565b6118a2610b526114a8565b60006118ac6114a8565b90506118b782612343565b816001600160a01b0316816001600160a01b03167fb532073b38c83145e3e5135377a08bf9aab55bc0fd7c1179cd4fb995d2a5159c60405160405180910390a35050565b60055490565b6001600160a01b03166000908152600e602052604090206005015460ff1690565b60026119308361188b6114b7565b101561194e5760405162461bcd60e51b81526004016107d890612c3f565b8061196b5760405162461bcd60e51b81526004016107d890612bcf565b61198f3383836040518060600160405280602e8152602001612dab602e9139611a90565b611997610df1565b6001600160a01b031663a9059cbb33836040518363ffffffff1660e01b81526004016119c4929190612b1f565b602060405180830381600087803b1580156119de57600080fd5b505af11580156119f2573d6000803e3d6000fd5b505050506040513d601f19601f82011682018060405250611a169190810190612624565b5081336001600160a01b03167f652fd9d5d1fdb4fff834b67018ec390a5938bc4c86fae1b87a3a3b7cf8681a72836000604051610b18929190612c6d565b600190565b600061099b612365565b6001600160a01b03166000908152600e602052604090205490565b6000908152600d602052604090205490565b6001600160a01b0384166000908152600f60209081526040808320868452909152902054611ac590838363ffffffff61237d16565b6001600160a01b0385166000908152600f60209081526040808320878452909152902055601054611afd90838363ffffffff61237d16565b60105550505050565b6001600160a01b0383166000908152600f60209081526040808320858452909152902054611b3a908263ffffffff611def16565b6001600160a01b0384166000908152600f60209081526040808320868452909152902055601054611b71908263ffffffff611def16565b601055505050565b6001600160a01b038085166000908152600c602090815260408083209387168352600390930190522054611bb490838363ffffffff61237d16565b6001600160a01b039485166000908152600c60209081526040808320969097168252600390950190945293909220929092555050565b734082d11e506e3250009a991061acd2176077c88f90565b6001600160a01b0383166000908152600c6020526040902054611c2c90838363ffffffff61237d16565b6001600160a01b0384166000908152600c6020526040902055600554611c5990838363ffffffff61237d16565b600555505050565b6001600160a01b039283166000908152600c60209081526040808320949095168252600390930190925291902055565b82611ce657611c9f826123a9565b6101d160f51b611cae836123a9565b604051602001611cc093929190612ae0565b60408051601f198184030181529082905262461bcd60e51b82526107d891600401612b8e565b505050565b611cf481612429565b60408051600481526024810182526020810180516001600160e01b031663204a7f0760e21b17905290516000916060916001600160a01b03851691611d3891612ad4565b600060405180830381855af49150503d8060008114611d73576040519150601f19603f3d011682016040523d82523d6000602084013e611d78565b606091505b5091509150818190611d9d5760405162461bcd60e51b81526004016107d89190612b8e565b506040516001600160a01b038416907fbc7cd75a20ee27fd9adebab32041f755214dbc6bffa90cc0225b39da2e5c2d3b90600090a2505050565b73d05ace63789ccb35b9ce71d01e4d632a0486da4b90565b6000828201838110156109ae5760405162461bcd60e51b81526004016107d890612baf565b600080611e1f610991565b6001600160a01b03166344d96e956040518163ffffffff1660e01b815260040160206040518083038186803b158015611e5757600080fd5b505afa158015611e6b573d6000803e3d6000fd5b505050506040513d601f19601f82011682018060405250611e8f919081019061267e565b905080611ea05760009150506108f2565b6000611f25611ead610991565b6001600160a01b031663e0cf72856040518163ffffffff1660e01b815260040160206040518083038186803b158015611ee557600080fd5b505afa158015611ef9573d6000803e3d6000fd5b505050506040513d601f19601f82011682018060405250611f1d919081019061267e565b610d55610db1565b90506000611fc083611481611f38610991565b6001600160a01b031663825ad607896040518263ffffffff1660e01b8152600401611f639190612b11565b60206040518083038186803b158015611f7b57600080fd5b505afa158015611f8f573d6000803e3d6000fd5b505050506040513d601f19601f82011682018060405250611fb3919081019061267e565b859063ffffffff61218316565b90506000611fcc610991565b6001600160a01b03166329f32ed4876040518263ffffffff1660e01b8152600401611ff79190612b11565b60206040518083038186803b15801561200f57600080fd5b505afa158015612023573d6000803e3d6000fd5b505050506040513d601f19601f82011682018060405250612047919081019061267e565b90508082111561206c57612061828263ffffffff61230116565b9450505050506108f2565b50600095945050505050565b7336f3fd68e7325a35eb768f1aedaae9ea0689d72390565b7388ff79eb2bc5850f27315415da8685282c7610f990565b73ea9f8bb8b5e8ba3d38628f0e18ee82300eddba0e90565b6001600160a01b03166000908152600e60205260409020600501805460ff19166001179055565b6001600160a01b0382166000908152600c6020526040902060010154612113908263ffffffff611def16565b6001600160a01b0383166000908152600c6020526040902060010155600354612142908263ffffffff611def16565b6003556040516001600160a01b038316906000907fddf252ad1be2c89b69c2b068fc378daa952ba7f163c4a11628f55a4df523b3ef90610b18908590612c5f565b6000826121925750600061092a565b8282028284828161219f57fe5b04146109ae5760405162461bcd60e51b81526004016107d890612bef565b60006109ae83836040518060400160405280601a81526020017f536166654d6174683a206469766973696f6e206279207a65726f000000000000815250612472565b60145461221390838363ffffffff61237d16565b6014555050565b6001600160a01b03166000908152601560205260409020805460ff19166001179055565b73c61d12896421613b30d56f85c093cdda43ab2ce790565b6001600160a01b0383166000908152600c602052604090206001015461228390838363ffffffff61237d16565b6001600160a01b0384166000908152600c60205260409020600101556003546122b390838363ffffffff61237d16565b6003556040516000906001600160a01b038516907fddf252ad1be2c89b69c2b068fc378daa952ba7f163c4a11628f55a4df523b3ef906122f4908690612c5f565b60405180910390a3505050565b60006109ae83836040518060400160405280601e81526020017f536166654d6174683a207375627472616374696f6e206f766572666c6f77000081525061237d565b601680546001600160a01b0319166001600160a01b0392909216919091179055565b7324ae124c4cc33d6791f8e8b63520ed7107ac8b3e90565b600081848411156123a15760405162461bcd60e51b81526004016107d89190612b8e565b505050900390565b606080826040516020016123bd9190612abf565b60408051601f19818403018152919052905060205b8015612412578151600019909101908290829081106123ed57fe5b01602001516001600160f81b0319161561240d57600101815290506108f2565b6123d2565b505060408051600081526020810190915292915050565b612432816124a9565b61244e5760405162461bcd60e51b81526004016107d890612bff565b7f360894a13ba1a3210667c828492db98dca3e2076cc3735a920a3ca505d382bbc55565b600081836124935760405162461bcd60e51b81526004016107d89190612b8e565b50600083858161249f57fe5b0495945050505050565b3b151590565b803561092a81612d7b565b805161092a81612d8f565b805161092a81612d98565b803561092a81612da1565b805161092a81612da1565b6000602082840312156124f857600080fd5b600061250484846124af565b949350505050565b6000806040838503121561251f57600080fd5b600061252b85856124af565b925050602061253c858286016124af565b9150509250929050565b60008060006060848603121561255b57600080fd5b600061256786866124af565b9350506020612578868287016124af565b9250506040612589868287016124d0565b9150509250925092565b600080600080608085870312156125a957600080fd5b60006125b587876124af565b94505060206125c6878288016124af565b93505060406125d7878288016124d0565b92505060606125e8878288016124d0565b91505092959194509250565b6000806040838503121561260757600080fd5b600061261385856124af565b925050602061253c858286016124d0565b60006020828403121561263657600080fd5b600061250484846124ba565b60006020828403121561265457600080fd5b600061250484846124c5565b60006020828403121561267257600080fd5b600061250484846124d0565b60006020828403121561269057600080fd5b600061250484846124db565b600080604083850312156126af57600080fd5b600061261385856124d0565b6126c481612d02565b82525050565b6126c481612cb1565b6126c481612cbc565b6126c46126e882612cc1565b612cce565b6126c46126e882612cce565b600061270482612ca4565b61270e81856108f2565b935061271e818560208601612d2e565b9290920192915050565b6126c481612cd1565b6126c481612d0d565b6126c481612d18565b6126c481612d23565b600061275782612ca4565b6127618185612ca8565b9350612771818560208601612d2e565b61277a81612d5a565b9093019392505050565b6000612791602383612ca8565b7f496d706c656d656e746174696f6e3a20746f6b656e73206e6f742072657475728152621b995960ea1b602082015260400192915050565b60006127d6601b83612ca8565b7f536166654d6174683a206164646974696f6e206f766572666c6f770000000000815260200192915050565b600061280f602083612ca8565b7f506f6f6c2057697468647261773a20616c72656164792077697468647261776e815260200192915050565b6000612848601683612ca8565b754d61726b65743a20416d6f756e7420746f6f206c6f7760501b815260200192915050565b600061287a602b83612ca8565b7f4d61726b65743a20436f75706f6e207472616e7366657220746f20746865207a81526a65726f206164647265737360a81b602082015260400192915050565b60006128c7602183612ca8565b7f536166654d6174683a206d756c7469706c69636174696f6e206f766572666c6f8152607760f81b602082015260400192915050565b600061290a603b83612ca8565b7f43616e6e6f742073657420612070726f787920696d706c656d656e746174696f81527f6e20746f2061206e6f6e2d636f6e747261637420616464726573730000000000602082015260400192915050565b6000612969602283612ca8565b7f496d706c656d656e746174696f6e3a206d69677261746f72206e6f7420656d70815261747960f01b602082015260400192915050565b60006129ad602a83612ca8565b7f4d61726b65743a20436f75706f6e20617070726f766520746f20746865207a65815269726f206164647265737360b01b602082015260400192915050565b60006129f9602d83612ca8565b7f4d61726b65743a20436f75706f6e207472616e736665722066726f6d2074686581526c207a65726f206164647265737360981b602082015260400192915050565b6000612a48601b83612ca8565b7f4d61726b65743a20546f6f206561726c7920746f2072656465656d0000000000815260200192915050565b6000612a81602083612ca8565b7f496d706c656d656e746174696f6e3a2056312044414f206e6f7420656d707479815260200192915050565b6126c481612cce565b6126c481612cfc565b6000612acb82846126ed565b50602001919050565b60006109ae82846126f9565b6000612aec82866126f9565b9150612af882856126dc565b600282019150612b0882846126f9565b95945050505050565b6020810161092a82846126ca565b60408101612b2d82856126bb565b6109ae6020830184612aad565b60408101612b2d82856126ca565b6020810161092a82846126d3565b6020810161092a8284612728565b6020810161092a8284612731565b6020810161092a828461273a565b60408101612b2d8285612743565b602080825281016109ae818461274c565b6020808252810161092a81612784565b6020808252810161092a816127c9565b6020808252810161092a81612802565b6020808252810161092a8161283b565b6020808252810161092a8161286d565b6020808252810161092a816128ba565b6020808252810161092a816128fd565b6020808252810161092a8161295c565b6020808252810161092a816129a0565b6020808252810161092a816129ec565b6020808252810161092a81612a3b565b6020808252810161092a81612a74565b6020810161092a8284612aad565b60408101612c7b8285612aad565b6109ae6020830184612743565b60408101612b2d8285612aad565b6020810161092a8284612ab6565b5190565b90815260200190565b600061092a82612cf0565b151590565b6001600160f01b03191690565b90565b600061092a82612cb1565b806108f281612d64565b806108f281612d71565b6001600160a01b031690565b60ff1690565b600061092a82612cd1565b600061092a82612cdc565b600061092a82612ce6565b600061092a82612cce565b60005b83811015612d49578181015183820152602001612d31565b8381111561143b5750506000910152565b601f01601f191690565b60038110612d6e57fe5b50565b60028110612d6e57fe5b612d8481612cb1565b8114612d6e57600080fd5b612d8481612cbc565b612d8481612cd1565b612d8481612cce56fe4d61726b65743a20496e73756666696369656e7420636f75706f6e20756e6465726c79696e672062616c616e6365506f6f6c2057697468647261773a20696e73756666696369656e7420446f6c6c6172426f6e64696e673a20696e73756666696369656e74207374616765642062616c616e63654d61726b65743a20496e73756666696369656e7420636f75706f6e20617070726f76616c56315f44414f3a20696e73756666696369656e74207374616b65642062616c616e6365a365627a7a72315820e222abb4cf224a920edef10833fed0610b7d7f6add5468ff808e106612feaba16c6578706572696d656e74616cf564736f6c63430005110040",
  "source": "/*\n    Copyright 2020 Empty Set Squad <emptysetsquad@protonmail.com>\n\n    Licensed under the Apache License, Version 2.0 (the \"License\");\n    you may not use this file except in compliance with the License.\n    You may obtain a copy of the License at\n\n    http://www.apache.org/licenses/LICENSE-2.0\n\n    Unless required by applicable law or agreed to in writing, software\n    distributed under the License is distributed on an \"AS IS\" BASIS,\n    WITHOUT WARRANTIES OR CONDITIONS OF ANY KIND, either express or implied.\n    See the License for the specific language governing permissions and\n    limitations under the License.\n*/\n\npragma solidity ^0.5.17;\npragma experimental ABIEncoderV2;\n\nimport \"@openzeppelin/contracts/math/SafeMath.sol\";\n\nimport \"./interfaces/IDAO.sol\";\nimport \"./Setters.sol\";\nimport \"./Getters.sol\";\nimport \"./Permission.sol\";\nimport \"./Upgradeable.sol\";\n\nimport \"../Constants.sol\";\n\ncontract Implementation is IDAO, Setters, Permission, Upgradeable  {\n    using SafeMath for uint256;\n\n    function initialize() initializer public {\n        // Mint all remaining redeemable ESD for coupons to sunset programmatic ESD minting\n        dollar().mint(address(this), totalCouponUnderlying());\n\n        // Get current ESS balance of the v2 migrator\n        uint256 migratorEssBalance = ess().balanceOf(v2Migrator());\n\n        // Increment this DAO's balance of v1 ESDS to match migrators remaining ESS balance\n        incrementBalanceOf(address(this), migratorEssBalance);\n\n        // Exfiltrate remaining ESS from the v2 migrator\n        uint256 latestV1DaoBalance = ess().balanceOf(address(this));\n        IV2Migrator(v2Migrator()).migrate(0, migratorEssBalance);\n\n        // Return ESS tokens to the Empty Set DAO\n        uint256 latestReserveBalance = ess().balanceOf(v2Reserve());\n        ess().transfer(v2Reserve(), migratorEssBalance.add(latestV1DaoBalance));\n\n        // Verify ESS balances across affected contracts\n        uint256 expectedReserveBalance = latestReserveBalance.add(migratorEssBalance).add(latestV1DaoBalance);\n        require(ess().balanceOf(v2Migrator()) == 0, \"Implementation: migrator not empty\");\n        require(ess().balanceOf(address(this)) == 0, \"Implementation: V1 DAO not empty\");\n        require(ess().balanceOf(v2Reserve()) == expectedReserveBalance, \"Implementation: tokens not returned\");\n    }\n\n    /*\n     * Continuous Dollar Migration\n    */\n    function burn(address account, uint256 amount) external onlyV2Migrator {\n        decrementBalanceOf(account, amount, \"V1_DAO: insufficient staked balance\");\n    }\n\n    /**\n     * Pool Withdraw\n     */\n    function poolWithdraw() external {\n        require(!poolHasWithdrawn(msg.sender), \"Pool Withdraw: already withdrawn\");\n\n        (uint256 univ2Amount, uint256 dollarAmount) = poolWithdrawable(msg.sender);\n\n        if (univ2Amount > 0) {\n            // Transfer univ2\n            pool().univ2().transfer(msg.sender, univ2Amount);\n        }\n\n        if (dollarAmount > 0) {\n            // Transfer dollar\n            dollar().transfer(msg.sender, dollarAmount);\n            decrementPoolDollarWithdrawable(dollarAmount, \"Pool Withdraw: insufficient Dollar\");\n        }\n\n        poolMarkWithdrawn(msg.sender);\n    }\n\n    function incentivize(address account, uint256 amount) private {\n        dollar().mint(account, amount);\n        emit Incentivization(account, amount);\n    }\n\n    function incentivizeWithStake(address account, uint256 amount) private {\n        incrementBalanceOf(account, amount);\n        emit IncentivizationWithStake(account, amount);\n    }\n\n    /*\n     * Admin\n     */\n    function commit(address candidate) external onlyOwner {\n        upgradeTo(candidate);\n        emit Commit(msg.sender, candidate);\n    }\n\n    function changeOwner(address newOwner) external onlyOwner {\n        address prevOwner = owner();\n        setOwner(newOwner);\n        emit OwnerChanged(prevOwner, newOwner);\n    }\n\n    /*\n     * Bonding Functions\n     */\n    function withdraw(uint256 value) external {\n        dollar().transfer(msg.sender, value);\n        decrementBalanceOfStaged(msg.sender, value, \"Bonding: insufficient staged balance\");\n\n        emit Withdraw(msg.sender, value);\n    }\n\n    /*\n     * Market Functions\n    */\n\n    // @notice: logic overview\n    // Redeem `amount` of underlying at the given `couponEpoch`\n    // Reverts if balance of underlying at `couponEpoch` is less than `amount`\n    function redeemCoupons(uint256 couponEpoch, uint256 amount) external {\n        require(epoch().sub(couponEpoch) >= 2, \"Market: Too early to redeem\");\n        require(amount != 0, \"Market: Amount too low\");\n\n        decrementBalanceOfCouponUnderlying(msg.sender, couponEpoch, amount, \"Market: Insufficient coupon underlying balance\");\n        dollar().transfer(msg.sender, amount);\n\n        emit CouponRedemption(msg.sender, couponEpoch, amount, 0);\n    }\n\n    function approveCoupons(address spender, uint256 amount) external {\n        require(spender != address(0), \"Market: Coupon approve to the zero address\");\n\n        updateAllowanceCoupons(msg.sender, spender, amount);\n\n        emit CouponApproval(msg.sender, spender, amount);\n    }\n\n    function transferCoupons(address sender, address recipient, uint256 epoch, uint256 amount) external {\n        require(sender != address(0), \"Market: Coupon transfer from the zero address\");\n        require(recipient != address(0), \"Market: Coupon transfer to the zero address\");\n\n        decrementBalanceOfCouponUnderlying(sender, epoch, amount, \"Market: Insufficient coupon underlying balance\");\n        incrementBalanceOfCouponUnderlying(recipient, epoch, amount);\n\n        if (msg.sender != sender && allowanceCoupons(sender, msg.sender) != uint256(-1)) {\n            decrementAllowanceCoupons(sender, msg.sender, amount, \"Market: Insufficient coupon approval\");\n        }\n\n        emit CouponTransfer(sender, recipient, epoch, amount);\n    }\n}\n",
  "sourcePath": "/Users/kbrizzle/code/dollar/protocol/contracts/dao/Implementation.sol",
  "compiler": {
    "name": "solc",
    "version": "0.5.17+commit.d19bba13.Emscripten.clang"
  },
  "schemaVersion": "3.4.10",
  "updatedAt": "2022-11-07T21:18:58.499Z",
  "devdoc": {
    "methods": {}
  },
  "userdoc": {
    "methods": {
      "balanceOfStaged(address)": {
        "notice": "Account"
      },
      "dollar()": {
        "notice": "Global"
      },
      "epoch()": {
        "notice": "Epoch"
      },
      "name()": {
        "notice": "ERC20 Interface"
      },
      "poolTotalRewarded()": {
        "notice": "Pool Migration"
      },
      "poolWithdraw()": {
        "notice": "Pool Withdraw"
      },
      "recordedVote(address,address)": {
        "notice": "Governance"
      },
      "transfer(address,uint256)": {
        "notice": "ERC20 Interface"
      }
    }
  }
}