{
  "contractName": "Implementation",
  "abi": [
    {
      "anonymous": false,
      "inputs": [
        {
          "indexed": true,
          "internalType": "uint256",
          "name": "epoch",
          "type": "uint256"
        },
        {
          "indexed": false,
          "internalType": "uint256",
          "name": "block",
          "type": "uint256"
        },
        {
          "indexed": false,
          "internalType": "uint256",
          "name": "timestamp",
          "type": "uint256"
        }
      ],
      "name": "Advance",
      "type": "event"
    },
    {
      "anonymous": false,
      "inputs": [
        {
          "indexed": true,
          "internalType": "address",
          "name": "account",
          "type": "address"
        },
        {
          "indexed": false,
          "internalType": "uint256",
          "name": "start",
          "type": "uint256"
        },
        {
          "indexed": false,
          "internalType": "uint256",
          "name": "value",
          "type": "uint256"
        },
        {
          "indexed": false,
          "internalType": "uint256",
          "name": "valueUnderlying",
          "type": "uint256"
        }
      ],
      "name": "Bond",
      "type": "event"
    },
    {
      "anonymous": false,
      "inputs": [
        {
          "indexed": true,
          "internalType": "address",
          "name": "account",
          "type": "address"
        },
        {
          "indexed": true,
          "internalType": "address",
          "name": "candidate",
          "type": "address"
        }
      ],
      "name": "Commit",
      "type": "event"
    },
    {
      "anonymous": false,
      "inputs": [
        {
          "indexed": true,
          "internalType": "address",
          "name": "owner",
          "type": "address"
        },
        {
          "indexed": true,
          "internalType": "address",
          "name": "spender",
          "type": "address"
        },
        {
          "indexed": false,
          "internalType": "uint256",
          "name": "value",
          "type": "uint256"
        }
      ],
      "name": "CouponApproval",
      "type": "event"
    },
    {
      "anonymous": false,
      "inputs": [
        {
          "indexed": true,
          "internalType": "uint256",
          "name": "epoch",
          "type": "uint256"
        },
        {
          "indexed": false,
          "internalType": "uint256",
          "name": "couponsExpired",
          "type": "uint256"
        },
        {
          "indexed": false,
          "internalType": "uint256",
          "name": "lessRedeemable",
          "type": "uint256"
        },
        {
          "indexed": false,
          "internalType": "uint256",
          "name": "lessDebt",
          "type": "uint256"
        },
        {
          "indexed": false,
          "internalType": "uint256",
          "name": "newBonded",
          "type": "uint256"
        }
      ],
      "name": "CouponExpiration",
      "type": "event"
    },
    {
      "anonymous": false,
      "inputs": [
        {
          "indexed": true,
          "internalType": "address",
          "name": "account",
          "type": "address"
        },
        {
          "indexed": true,
          "internalType": "uint256",
          "name": "epoch",
          "type": "uint256"
        },
        {
          "indexed": false,
          "internalType": "uint256",
          "name": "dollarAmount",
          "type": "uint256"
        },
        {
          "indexed": false,
          "internalType": "uint256",
          "name": "couponAmount",
          "type": "uint256"
        }
      ],
      "name": "CouponPurchase",
      "type": "event"
    },
    {
      "anonymous": false,
      "inputs": [
        {
          "indexed": true,
          "internalType": "address",
          "name": "account",
          "type": "address"
        },
        {
          "indexed": true,
          "internalType": "uint256",
          "name": "epoch",
          "type": "uint256"
        },
        {
          "indexed": false,
          "internalType": "uint256",
          "name": "amount",
          "type": "uint256"
        },
        {
          "indexed": false,
          "internalType": "uint256",
          "name": "couponAmount",
          "type": "uint256"
        }
      ],
      "name": "CouponRedemption",
      "type": "event"
    },
    {
      "anonymous": false,
      "inputs": [
        {
          "indexed": true,
          "internalType": "address",
          "name": "from",
          "type": "address"
        },
        {
          "indexed": true,
          "internalType": "address",
          "name": "to",
          "type": "address"
        },
        {
          "indexed": true,
          "internalType": "uint256",
          "name": "epoch",
          "type": "uint256"
        },
        {
          "indexed": false,
          "internalType": "uint256",
          "name": "value",
          "type": "uint256"
        }
      ],
      "name": "CouponTransfer",
      "type": "event"
    },
    {
      "anonymous": false,
      "inputs": [
        {
          "indexed": true,
          "internalType": "address",
          "name": "account",
          "type": "address"
        },
        {
          "indexed": false,
          "internalType": "uint256",
          "name": "value",
          "type": "uint256"
        }
      ],
      "name": "Deposit",
      "type": "event"
    },
    {
      "anonymous": false,
      "inputs": [
        {
          "indexed": true,
          "internalType": "address",
          "name": "account",
          "type": "address"
        },
        {
          "indexed": false,
          "internalType": "uint256",
          "name": "amount",
          "type": "uint256"
        }
      ],
      "name": "Incentivization",
      "type": "event"
    },
    {
      "anonymous": false,
      "inputs": [
        {
          "indexed": true,
          "internalType": "address",
          "name": "account",
          "type": "address"
        },
        {
          "indexed": false,
          "internalType": "uint256",
          "name": "amount",
          "type": "uint256"
        }
      ],
      "name": "IncentivizationWithStake",
      "type": "event"
    },
    {
      "anonymous": false,
      "inputs": [
        {
          "indexed": true,
          "internalType": "address",
          "name": "previousOwner",
          "type": "address"
        },
        {
          "indexed": true,
          "internalType": "address",
          "name": "newOwner",
          "type": "address"
        }
      ],
      "name": "OwnerChanged",
      "type": "event"
    },
    {
      "anonymous": false,
      "inputs": [
        {
          "indexed": true,
          "internalType": "address",
          "name": "candidate",
          "type": "address"
        },
        {
          "indexed": true,
          "internalType": "address",
          "name": "account",
          "type": "address"
        },
        {
          "indexed": true,
          "internalType": "uint256",
          "name": "start",
          "type": "uint256"
        },
        {
          "indexed": false,
          "internalType": "uint256",
          "name": "period",
          "type": "uint256"
        }
      ],
      "name": "Proposal",
      "type": "event"
    },
    {
      "anonymous": false,
      "inputs": [
        {
          "indexed": true,
          "internalType": "uint256",
          "name": "epoch",
          "type": "uint256"
        },
        {
          "indexed": false,
          "internalType": "uint256",
          "name": "rate",
          "type": "uint256"
        },
        {
          "indexed": false,
          "internalType": "uint256",
          "name": "amount",
          "type": "uint256"
        }
      ],
      "name": "StabilityReward",
      "type": "event"
    },
    {
      "anonymous": false,
      "inputs": [
        {
          "indexed": true,
          "internalType": "uint256",
          "name": "epoch",
          "type": "uint256"
        },
        {
          "indexed": false,
          "internalType": "uint256",
          "name": "price",
          "type": "uint256"
        },
        {
          "indexed": false,
          "internalType": "uint256",
          "name": "newDebt",
          "type": "uint256"
        }
      ],
      "name": "SupplyDecrease",
      "type": "event"
    },
    {
      "anonymous": false,
      "inputs": [
        {
          "indexed": true,
          "internalType": "uint256",
          "name": "epoch",
          "type": "uint256"
        },
        {
          "indexed": false,
          "internalType": "uint256",
          "name": "price",
          "type": "uint256"
        },
        {
          "indexed": false,
          "internalType": "uint256",
          "name": "newRedeemable",
          "type": "uint256"
        },
        {
          "indexed": false,
          "internalType": "uint256",
          "name": "lessDebt",
          "type": "uint256"
        },
        {
          "indexed": false,
          "internalType": "uint256",
          "name": "newBonded",
          "type": "uint256"
        }
      ],
      "name": "SupplyIncrease",
      "type": "event"
    },
    {
      "anonymous": false,
      "inputs": [
        {
          "indexed": true,
          "internalType": "uint256",
          "name": "epoch",
          "type": "uint256"
        }
      ],
      "name": "SupplyNeutral",
      "type": "event"
    },
    {
      "anonymous": false,
      "inputs": [
        {
          "indexed": false,
          "internalType": "uint256",
          "name": "totalBonded",
          "type": "uint256"
        },
        {
          "indexed": false,
          "internalType": "uint256",
          "name": "totalStake",
          "type": "uint256"
        }
      ],
      "name": "TokenSplitSnapshot",
      "type": "event"
    },
    {
      "anonymous": false,
      "inputs": [
        {
          "indexed": true,
          "internalType": "address",
          "name": "from",
          "type": "address"
        },
        {
          "indexed": true,
          "internalType": "address",
          "name": "to",
          "type": "address"
        },
        {
          "indexed": false,
          "internalType": "uint256",
          "name": "value",
          "type": "uint256"
        }
      ],
      "name": "Transfer",
      "type": "event"
    },
    {
      "anonymous": false,
      "inputs": [
        {
          "indexed": true,
          "internalType": "address",
          "name": "account",
          "type": "address"
        },
        {
          "indexed": false,
          "internalType": "uint256",
          "name": "start",
          "type": "uint256"
        },
        {
          "indexed": false,
          "internalType": "uint256",
          "name": "value",
          "type": "uint256"
        },
        {
          "indexed": false,
          "internalType": "uint256",
          "name": "valueUnderlying",
          "type": "uint256"
        }
      ],
      "name": "Unbond",
      "type": "event"
    },
    {
      "anonymous": false,
      "inputs": [
        {
          "indexed": true,
          "internalType": "address",
          "name": "implementation",
          "type": "address"
        }
      ],
      "name": "Upgraded",
      "type": "event"
    },
    {
      "anonymous": false,
      "inputs": [
        {
          "indexed": true,
          "internalType": "address",
          "name": "account",
          "type": "address"
        },
        {
          "indexed": true,
          "internalType": "address",
          "name": "candidate",
          "type": "address"
        },
        {
          "indexed": false,
          "internalType": "enum Candidate.Vote",
          "name": "vote",
          "type": "uint8"
        },
        {
          "indexed": false,
          "internalType": "uint256",
          "name": "bonded",
          "type": "uint256"
        }
      ],
      "name": "Vote",
      "type": "event"
    },
    {
      "anonymous": false,
      "inputs": [
        {
          "indexed": true,
          "internalType": "address",
          "name": "account",
          "type": "address"
        },
        {
          "indexed": false,
          "internalType": "uint256",
          "name": "value",
          "type": "uint256"
        }
      ],
      "name": "Withdraw",
      "type": "event"
    },
    {
      "constant": true,
      "inputs": [
        {
          "internalType": "address",
          "name": "owner",
          "type": "address"
        },
        {
          "internalType": "address",
          "name": "spender",
          "type": "address"
        }
      ],
      "name": "allowance",
      "outputs": [
        {
          "internalType": "uint256",
          "name": "",
          "type": "uint256"
        }
      ],
      "payable": false,
      "stateMutability": "view",
      "type": "function"
    },
    {
      "constant": true,
      "inputs": [
        {
          "internalType": "address",
          "name": "owner",
          "type": "address"
        },
        {
          "internalType": "address",
          "name": "spender",
          "type": "address"
        }
      ],
      "name": "allowanceCoupons",
      "outputs": [
        {
          "internalType": "uint256",
          "name": "",
          "type": "uint256"
        }
      ],
      "payable": false,
      "stateMutability": "view",
      "type": "function"
    },
    {
      "constant": false,
      "inputs": [
        {
          "internalType": "address",
          "name": "spender",
          "type": "address"
        },
        {
          "internalType": "uint256",
          "name": "amount",
          "type": "uint256"
        }
      ],
      "name": "approve",
      "outputs": [
        {
          "internalType": "bool",
          "name": "",
          "type": "bool"
        }
      ],
      "payable": false,
      "stateMutability": "nonpayable",
      "type": "function"
    },
    {
      "constant": true,
      "inputs": [
        {
          "internalType": "address",
          "name": "candidate",
          "type": "address"
        }
      ],
      "name": "approveFor",
      "outputs": [
        {
          "internalType": "uint256",
          "name": "",
          "type": "uint256"
        }
      ],
      "payable": false,
      "stateMutability": "view",
      "type": "function"
    },
    {
      "constant": true,
      "inputs": [
        {
          "internalType": "address",
          "name": "account",
          "type": "address"
        }
      ],
      "name": "balanceOf",
      "outputs": [
        {
          "internalType": "uint256",
          "name": "",
          "type": "uint256"
        }
      ],
      "payable": false,
      "stateMutability": "view",
      "type": "function"
    },
    {
      "constant": true,
      "inputs": [
        {
          "internalType": "address",
          "name": "account",
          "type": "address"
        }
      ],
      "name": "balanceOfBonded",
      "outputs": [
        {
          "internalType": "uint256",
          "name": "",
          "type": "uint256"
        }
      ],
      "payable": false,
      "stateMutability": "view",
      "type": "function"
    },
    {
      "constant": true,
      "inputs": [
        {
          "internalType": "address",
          "name": "account",
          "type": "address"
        },
        {
          "internalType": "uint256",
          "name": "epoch",
          "type": "uint256"
        }
      ],
      "name": "balanceOfCouponUnderlying",
      "outputs": [
        {
          "internalType": "uint256",
          "name": "",
          "type": "uint256"
        }
      ],
      "payable": false,
      "stateMutability": "view",
      "type": "function"
    },
    {
      "constant": true,
      "inputs": [
        {
          "internalType": "address",
          "name": "account",
          "type": "address"
        },
        {
          "internalType": "uint256",
          "name": "epoch",
          "type": "uint256"
        }
      ],
      "name": "balanceOfCoupons",
      "outputs": [
        {
          "internalType": "uint256",
          "name": "",
          "type": "uint256"
        }
      ],
      "payable": false,
      "stateMutability": "view",
      "type": "function"
    },
    {
      "constant": true,
      "inputs": [
        {
          "internalType": "address",
          "name": "account",
          "type": "address"
        }
      ],
      "name": "balanceOfStaged",
      "outputs": [
        {
          "internalType": "uint256",
          "name": "",
          "type": "uint256"
        }
      ],
      "payable": false,
      "stateMutability": "view",
      "type": "function"
    },
    {
      "constant": true,
      "inputs": [
        {
          "internalType": "uint256",
          "name": "epoch",
          "type": "uint256"
        }
      ],
      "name": "bootstrappingAt",
      "outputs": [
        {
          "internalType": "bool",
          "name": "",
          "type": "bool"
        }
      ],
      "payable": false,
      "stateMutability": "view",
      "type": "function"
    },
    {
      "constant": true,
      "inputs": [
        {
          "internalType": "uint256",
          "name": "amount",
          "type": "uint256"
        }
      ],
      "name": "couponPremium",
      "outputs": [
        {
          "internalType": "uint256",
          "name": "",
          "type": "uint256"
        }
      ],
      "payable": false,
      "stateMutability": "view",
      "type": "function"
    },
    {
      "constant": true,
      "inputs": [
        {
          "internalType": "uint256",
          "name": "epoch",
          "type": "uint256"
        }
      ],
      "name": "couponsExpiration",
      "outputs": [
        {
          "internalType": "uint256",
          "name": "",
          "type": "uint256"
        }
      ],
      "payable": false,
      "stateMutability": "view",
      "type": "function"
    },
    {
      "constant": true,
      "inputs": [],
      "name": "decimals",
      "outputs": [
        {
          "internalType": "uint8",
          "name": "",
          "type": "uint8"
        }
      ],
      "payable": false,
      "stateMutability": "view",
      "type": "function"
    },
    {
      "constant": true,
      "inputs": [],
      "name": "dollar",
      "outputs": [
        {
          "internalType": "contract IDollar",
          "name": "",
          "type": "address"
        }
      ],
      "payable": false,
      "stateMutability": "view",
      "type": "function"
    },
    {
      "constant": true,
      "inputs": [],
      "name": "epoch",
      "outputs": [
        {
          "internalType": "uint256",
          "name": "",
          "type": "uint256"
        }
      ],
      "payable": false,
      "stateMutability": "view",
      "type": "function"
    },
    {
      "constant": true,
      "inputs": [],
      "name": "epochTime",
      "outputs": [
        {
          "internalType": "uint256",
          "name": "",
          "type": "uint256"
        }
      ],
      "payable": false,
      "stateMutability": "view",
      "type": "function"
    },
    {
      "constant": true,
      "inputs": [],
      "name": "eraStart",
      "outputs": [
        {
          "internalType": "uint256",
          "name": "",
          "type": "uint256"
        }
      ],
      "payable": false,
      "stateMutability": "view",
      "type": "function"
    },
    {
      "constant": true,
      "inputs": [],
      "name": "eraStatus",
      "outputs": [
        {
          "internalType": "enum Era.Status",
          "name": "",
          "type": "uint8"
        }
      ],
      "payable": false,
      "stateMutability": "view",
      "type": "function"
    },
    {
      "constant": true,
      "inputs": [],
      "name": "ess",
      "outputs": [
        {
          "internalType": "contract IERC20",
          "name": "",
          "type": "address"
        }
      ],
      "payable": false,
      "stateMutability": "view",
      "type": "function"
    },
    {
      "constant": true,
      "inputs": [
        {
          "internalType": "uint256",
          "name": "epoch",
          "type": "uint256"
        }
      ],
      "name": "expiringCoupons",
      "outputs": [
        {
          "internalType": "uint256",
          "name": "",
          "type": "uint256"
        }
      ],
      "payable": false,
      "stateMutability": "view",
      "type": "function"
    },
    {
      "constant": true,
      "inputs": [
        {
          "internalType": "uint256",
          "name": "epoch",
          "type": "uint256"
        },
        {
          "internalType": "uint256",
          "name": "i",
          "type": "uint256"
        }
      ],
      "name": "expiringCouponsAtIndex",
      "outputs": [
        {
          "internalType": "uint256",
          "name": "",
          "type": "uint256"
        }
      ],
      "payable": false,
      "stateMutability": "view",
      "type": "function"
    },
    {
      "constant": true,
      "inputs": [
        {
          "internalType": "address",
          "name": "account",
          "type": "address"
        }
      ],
      "name": "fluidUntil",
      "outputs": [
        {
          "internalType": "uint256",
          "name": "",
          "type": "uint256"
        }
      ],
      "payable": false,
      "stateMutability": "view",
      "type": "function"
    },
    {
      "constant": true,
      "inputs": [],
      "name": "implementation",
      "outputs": [
        {
          "internalType": "address",
          "name": "impl",
          "type": "address"
        }
      ],
      "payable": false,
      "stateMutability": "view",
      "type": "function"
    },
    {
      "constant": true,
      "inputs": [
        {
          "internalType": "address",
          "name": "candidate",
          "type": "address"
        }
      ],
      "name": "isInitialized",
      "outputs": [
        {
          "internalType": "bool",
          "name": "",
          "type": "bool"
        }
      ],
      "payable": false,
      "stateMutability": "view",
      "type": "function"
    },
    {
      "constant": true,
      "inputs": [
        {
          "internalType": "address",
          "name": "candidate",
          "type": "address"
        }
      ],
      "name": "isNominated",
      "outputs": [
        {
          "internalType": "bool",
          "name": "",
          "type": "bool"
        }
      ],
      "payable": false,
      "stateMutability": "view",
      "type": "function"
    },
    {
      "constant": true,
      "inputs": [
        {
          "internalType": "address",
          "name": "account",
          "type": "address"
        }
      ],
      "name": "lockedUntil",
      "outputs": [
        {
          "internalType": "uint256",
          "name": "",
          "type": "uint256"
        }
      ],
      "payable": false,
      "stateMutability": "view",
      "type": "function"
    },
    {
      "constant": true,
      "inputs": [],
      "name": "name",
      "outputs": [
        {
          "internalType": "string",
          "name": "",
          "type": "string"
        }
      ],
      "payable": false,
      "stateMutability": "view",
      "type": "function"
    },
    {
      "constant": true,
      "inputs": [],
      "name": "oracle",
      "outputs": [
        {
          "internalType": "contract IOracle",
          "name": "",
          "type": "address"
        }
      ],
      "payable": false,
      "stateMutability": "view",
      "type": "function"
    },
    {
      "constant": true,
      "inputs": [
        {
          "internalType": "uint256",
          "name": "epoch",
          "type": "uint256"
        }
      ],
      "name": "outstandingCoupons",
      "outputs": [
        {
          "internalType": "uint256",
          "name": "",
          "type": "uint256"
        }
      ],
      "payable": false,
      "stateMutability": "view",
      "type": "function"
    },
    {
      "constant": true,
      "inputs": [],
      "name": "owner",
      "outputs": [
        {
          "internalType": "address",
          "name": "",
          "type": "address"
        }
      ],
      "payable": false,
      "stateMutability": "view",
      "type": "function"
    },
    {
      "constant": true,
      "inputs": [
        {
          "internalType": "address",
          "name": "candidate",
          "type": "address"
        }
      ],
      "name": "periodFor",
      "outputs": [
        {
          "internalType": "uint256",
          "name": "",
          "type": "uint256"
        }
      ],
      "payable": false,
      "stateMutability": "view",
      "type": "function"
    },
    {
      "constant": true,
      "inputs": [],
      "name": "pool",
      "outputs": [
        {
          "internalType": "contract IPool",
          "name": "",
          "type": "address"
        }
      ],
      "payable": false,
      "stateMutability": "view",
      "type": "function"
    },
    {
      "constant": true,
      "inputs": [],
      "name": "poolDollarWithdrawable",
      "outputs": [
        {
          "internalType": "uint256",
          "name": "",
          "type": "uint256"
        }
      ],
      "payable": false,
      "stateMutability": "view",
      "type": "function"
    },
    {
      "constant": true,
      "inputs": [
        {
          "internalType": "address",
          "name": "account",
          "type": "address"
        }
      ],
      "name": "poolHasWithdrawn",
      "outputs": [
        {
          "internalType": "bool",
          "name": "",
          "type": "bool"
        }
      ],
      "payable": false,
      "stateMutability": "view",
      "type": "function"
    },
    {
      "constant": true,
      "inputs": [],
      "name": "poolTotalRewarded",
      "outputs": [
        {
          "internalType": "uint256",
          "name": "",
          "type": "uint256"
        }
      ],
      "payable": false,
      "stateMutability": "view",
      "type": "function"
    },
    {
      "constant": true,
      "inputs": [
        {
          "internalType": "address",
          "name": "account",
          "type": "address"
        }
      ],
      "name": "poolWithdrawable",
      "outputs": [
        {
          "internalType": "uint256",
          "name": "",
          "type": "uint256"
        },
        {
          "internalType": "uint256",
          "name": "",
          "type": "uint256"
        }
      ],
      "payable": false,
      "stateMutability": "view",
      "type": "function"
    },
    {
      "constant": true,
      "inputs": [
        {
          "internalType": "address",
          "name": "account",
          "type": "address"
        },
        {
          "internalType": "address",
          "name": "candidate",
          "type": "address"
        }
      ],
      "name": "recordedVote",
      "outputs": [
        {
          "internalType": "enum Candidate.Vote",
          "name": "",
          "type": "uint8"
        }
      ],
      "payable": false,
      "stateMutability": "view",
      "type": "function"
    },
    {
      "constant": true,
      "inputs": [
        {
          "internalType": "address",
          "name": "candidate",
          "type": "address"
        }
      ],
      "name": "rejectFor",
      "outputs": [
        {
          "internalType": "uint256",
          "name": "",
          "type": "uint256"
        }
      ],
      "payable": false,
      "stateMutability": "view",
      "type": "function"
    },
    {
      "constant": true,
      "inputs": [
        {
          "internalType": "address",
          "name": "candidate",
          "type": "address"
        }
      ],
      "name": "startFor",
      "outputs": [
        {
          "internalType": "uint256",
          "name": "",
          "type": "uint256"
        }
      ],
      "payable": false,
      "stateMutability": "view",
      "type": "function"
    },
    {
      "constant": true,
      "inputs": [
        {
          "internalType": "address",
          "name": "account",
          "type": "address"
        }
      ],
      "name": "statusOf",
      "outputs": [
        {
          "internalType": "enum Account.Status",
          "name": "",
          "type": "uint8"
        }
      ],
      "payable": false,
      "stateMutability": "view",
      "type": "function"
    },
    {
      "constant": true,
      "inputs": [],
      "name": "symbol",
      "outputs": [
        {
          "internalType": "string",
          "name": "",
          "type": "string"
        }
      ],
      "payable": false,
      "stateMutability": "view",
      "type": "function"
    },
    {
      "constant": true,
      "inputs": [],
      "name": "totalBonded",
      "outputs": [
        {
          "internalType": "uint256",
          "name": "",
          "type": "uint256"
        }
      ],
      "payable": false,
      "stateMutability": "view",
      "type": "function"
    },
    {
      "constant": true,
      "inputs": [
        {
          "internalType": "uint256",
          "name": "epoch",
          "type": "uint256"
        }
      ],
      "name": "totalBondedAt",
      "outputs": [
        {
          "internalType": "uint256",
          "name": "",
          "type": "uint256"
        }
      ],
      "payable": false,
      "stateMutability": "view",
      "type": "function"
    },
    {
      "constant": true,
      "inputs": [],
      "name": "totalCouponUnderlying",
      "outputs": [
        {
          "internalType": "uint256",
          "name": "",
          "type": "uint256"
        }
      ],
      "payable": false,
      "stateMutability": "view",
      "type": "function"
    },
    {
      "constant": true,
      "inputs": [],
      "name": "totalCoupons",
      "outputs": [
        {
          "internalType": "uint256",
          "name": "",
          "type": "uint256"
        }
      ],
      "payable": false,
      "stateMutability": "view",
      "type": "function"
    },
    {
      "constant": true,
      "inputs": [],
      "name": "totalDebt",
      "outputs": [
        {
          "internalType": "uint256",
          "name": "",
          "type": "uint256"
        }
      ],
      "payable": false,
      "stateMutability": "view",
      "type": "function"
    },
    {
      "constant": true,
      "inputs": [],
      "name": "totalNet",
      "outputs": [
        {
          "internalType": "uint256",
          "name": "",
          "type": "uint256"
        }
      ],
      "payable": false,
      "stateMutability": "view",
      "type": "function"
    },
    {
      "constant": true,
      "inputs": [],
      "name": "totalRedeemable",
      "outputs": [
        {
          "internalType": "uint256",
          "name": "",
          "type": "uint256"
        }
      ],
      "payable": false,
      "stateMutability": "view",
      "type": "function"
    },
    {
      "constant": true,
      "inputs": [],
      "name": "totalStaged",
      "outputs": [
        {
          "internalType": "uint256",
          "name": "",
          "type": "uint256"
        }
      ],
      "payable": false,
      "stateMutability": "view",
      "type": "function"
    },
    {
      "constant": true,
      "inputs": [],
      "name": "totalSupply",
      "outputs": [
        {
          "internalType": "uint256",
          "name": "",
          "type": "uint256"
        }
      ],
      "payable": false,
      "stateMutability": "view",
      "type": "function"
    },
    {
      "constant": false,
      "inputs": [
        {
          "internalType": "address",
          "name": "recipient",
          "type": "address"
        },
        {
          "internalType": "uint256",
          "name": "amount",
          "type": "uint256"
        }
      ],
      "name": "transfer",
      "outputs": [
        {
          "internalType": "bool",
          "name": "",
          "type": "bool"
        }
      ],
      "payable": false,
      "stateMutability": "nonpayable",
      "type": "function"
    },
    {
      "constant": false,
      "inputs": [
        {
          "internalType": "address",
          "name": "sender",
          "type": "address"
        },
        {
          "internalType": "address",
          "name": "recipient",
          "type": "address"
        },
        {
          "internalType": "uint256",
          "name": "amount",
          "type": "uint256"
        }
      ],
      "name": "transferFrom",
      "outputs": [
        {
          "internalType": "bool",
          "name": "",
          "type": "bool"
        }
      ],
      "payable": false,
      "stateMutability": "nonpayable",
      "type": "function"
    },
    {
      "constant": true,
      "inputs": [],
      "name": "univ2",
      "outputs": [
        {
          "internalType": "contract IERC20",
          "name": "",
          "type": "address"
        }
      ],
      "payable": false,
      "stateMutability": "view",
      "type": "function"
    },
    {
      "constant": true,
      "inputs": [],
      "name": "v2Migrator",
      "outputs": [
        {
          "internalType": "address",
          "name": "",
          "type": "address"
        }
      ],
      "payable": false,
      "stateMutability": "view",
      "type": "function"
    },
    {
      "constant": true,
      "inputs": [],
      "name": "v2Reserve",
      "outputs": [
        {
          "internalType": "address",
          "name": "",
          "type": "address"
        }
      ],
      "payable": false,
      "stateMutability": "view",
      "type": "function"
    },
    {
      "constant": true,
      "inputs": [
        {
          "internalType": "address",
          "name": "candidate",
          "type": "address"
        }
      ],
      "name": "votesFor",
      "outputs": [
        {
          "internalType": "uint256",
          "name": "",
          "type": "uint256"
        }
      ],
      "payable": false,
      "stateMutability": "view",
      "type": "function"
    },
    {
      "constant": false,
      "inputs": [],
      "name": "initialize",
      "outputs": [],
      "payable": false,
      "stateMutability": "nonpayable",
      "type": "function"
    },
    {
      "constant": false,
      "inputs": [
        {
          "internalType": "address",
          "name": "account",
          "type": "address"
        },
        {
          "internalType": "uint256",
          "name": "amount",
          "type": "uint256"
        }
      ],
      "name": "burn",
      "outputs": [],
      "payable": false,
      "stateMutability": "nonpayable",
      "type": "function"
    },
    {
      "constant": false,
      "inputs": [],
      "name": "poolWithdraw",
      "outputs": [],
      "payable": false,
      "stateMutability": "nonpayable",
      "type": "function"
    },
    {
      "constant": false,
      "inputs": [
        {
          "internalType": "address",
          "name": "candidate",
          "type": "address"
        }
      ],
      "name": "commit",
      "outputs": [],
      "payable": false,
      "stateMutability": "nonpayable",
      "type": "function"
    },
    {
      "constant": false,
      "inputs": [
        {
          "internalType": "address",
          "name": "newOwner",
          "type": "address"
        }
      ],
      "name": "changeOwner",
      "outputs": [],
      "payable": false,
      "stateMutability": "nonpayable",
      "type": "function"
    },
    {
      "constant": false,
      "inputs": [
        {
          "internalType": "uint256",
          "name": "value",
          "type": "uint256"
        }
      ],
      "name": "withdraw",
      "outputs": [],
      "payable": false,
      "stateMutability": "nonpayable",
      "type": "function"
    },
    {
      "constant": false,
      "inputs": [
        {
          "internalType": "uint256",
          "name": "couponEpoch",
          "type": "uint256"
        },
        {
          "internalType": "uint256",
          "name": "amount",
          "type": "uint256"
        }
      ],
      "name": "redeemCoupons",
      "outputs": [],
      "payable": false,
      "stateMutability": "nonpayable",
      "type": "function"
    },
    {
      "constant": false,
      "inputs": [
        {
          "internalType": "address",
          "name": "spender",
          "type": "address"
        },
        {
          "internalType": "uint256",
          "name": "amount",
          "type": "uint256"
        }
      ],
      "name": "approveCoupons",
      "outputs": [],
      "payable": false,
      "stateMutability": "nonpayable",
      "type": "function"
    },
    {
      "constant": false,
      "inputs": [
        {
          "internalType": "address",
          "name": "sender",
          "type": "address"
        },
        {
          "internalType": "address",
          "name": "recipient",
          "type": "address"
        },
        {
          "internalType": "uint256",
          "name": "epoch",
          "type": "uint256"
        },
        {
          "internalType": "uint256",
          "name": "amount",
          "type": "uint256"
        }
      ],
      "name": "transferCoupons",
      "outputs": [],
      "payable": false,
      "stateMutability": "nonpayable",
      "type": "function"
    }
  ],
  "bytecode": "0x608060405234801561001057600080fd5b50612e07806100206000396000f3fe608060405234801561001057600080fd5b50600436106103da5760003560e01c80637298d36e1161020a578063a50cd8e711610125578063d60b347f116100b8578063edb6b80a11610087578063edb6b80a1461076f578063f111af0014610784578063f1b7cf491461078c578063fc7b9c18146104b0578063ffbe3b731461079f576103da565b8063d60b347f1461073b578063d6a9cf081461074e578063d8f5413814610725578063dd62ed3e14610761576103da565b8063b739a7b8116100f4578063b739a7b8146104b0578063bc7513e214610717578063c9aff70c14610725578063cf02377914610733576103da565b8063a50cd8e7146106e9578063a6c409f1146106fc578063a6f9dae114610704578063a9059cbb14610432576103da565b806391051e061161019d5780639afc21921161016c5780639afc2192146106a85780639bc289f1146106b05780639dc29fac146106c35780639f6e1b26146106d6576103da565b806391051e061461068557806395d89b411461068d57806397a5d5b5146106955780639a649edc146104b0576103da565b8063825ad607116101d9578063825ad6071461064f57806386cf9f14146106625780638da5cb5b14610675578063900cf0cf1461067d576103da565b80637298d36e1461062457806375d5024b1461062c5780637dc0d1d01461063f5780638129fc1c14610647576103da565b8063369e8c1d116102fa5780634c7360991161028d5780635c60da1b1161025c5780635c60da1b146105e357806364668022146105eb5780636a39e328146105fe57806370a0823114610611576103da565b80634c736099146105ad5780635053e461146105c057806351adeb57146105c857806351bf21d8146105d0576103da565b806344a52156116102c957806344a521561461056757806344d96e951461057c5780634501c16c146105845780634a833feb146105a5576103da565b8063369e8c1d146105195780633a3e6c811461052c5780633fbba9a61461053f5780634303d4f71461055f576103da565b806316f0115b116103725780632e1a7d4d116103415780632e1a7d4d146104cb5780632f7f889e146104de578063313ce567146104f1578063353a420c14610506576103da565b806316f0115b1461049357806318160ddd146104a85780631edbcf6c146104b057806323b872dd146104b8576103da565b80630d78ceb4116103ae5780630d78ceb41461044557806310e95b6c14610465578063143193af1461047857806315e14bf614610480576103da565b80625edd37146103df57806303842fbd146103f457806306fdde031461041d578063095ea7b314610432575b600080fd5b6103f26103ed3660046124ee565b6107b2565b005b610407610402366004612441565b6108d5565b6040516104149190612aa3565b60405180910390f35b6104256108f7565b6040516104149190612ae9565b61040761044036600461254f565b610927565b61045861045336600461254f565b610930565b6040516104149190612bba565b6104586104733660046125bb565b610958565b61045861096d565b61045861048e366004612441565b610973565b61049b610991565b6040516104149190612ab1565b6104586109a0565b6104586109a6565b6104076104c63660046124a1565b6109ab565b6103f26104d93660046125bb565b6109b5565b6103f26104ec36600461254f565b610aa4565b6104f9610b24565b6040516104149190612bf1565b610458610514366004612441565b610b29565b6103f2610527366004612441565b610b47565b61040761053a366004612441565b610bc8565b61055261054d366004612467565b610be5565b6040516104149190612abf565b610458610c18565b61056f610c1e565b6040516104149190612a6c565b610458610c28565b610597610592366004612441565b610c2e565b604051610414929190612be3565b610458610db1565b6104586105bb3660046125f7565b610db7565b610458610de7565b61049b610df1565b6104586105de366004612441565b610dfb565b61056f610e19565b6104586105f9366004612441565b610e3e565b61045861060c3660046125bb565b610e5c565b61045861061f366004612441565b610e71565b61049b610e8f565b61040761063a3660046125bb565b610e99565b61049b610e9f565b6103f2610ea9565b61045861065d366004612441565b6113a0565b610458610670366004612441565b6113ec565b61056f611407565b610458611416565b6103f261141c565b61042561160b565b6105526106a3366004612441565b611629565b61056f61168e565b6104586106be366004612441565b611698565b6103f26106d136600461254f565b6116b6565b6104586106e4366004612467565b61171b565b6104586106f7366004612441565b61174a565b610458611761565b6103f2610712366004612441565b6117f2565b61045861044036600461254f565b61045861063a3660046125bb565b610458611856565b610407610749366004612441565b61185c565b6103f261075c3660046125f7565b61187d565b610458610440366004612467565b6107776119af565b6040516104149190612acd565b61049b6119b4565b61045861079a366004612441565b6119be565b6104586107ad3660046125bb565b6119d9565b6001600160a01b0384166107e15760405162461bcd60e51b81526004016107d890612b8a565b60405180910390fd5b6001600160a01b0383166108075760405162461bcd60e51b81526004016107d890612b3a565b61082b8483836040518060600160405280602e8152602001612d0a602e91396119eb565b610836838383611a61565b336001600160a01b0385161480159061085a5750600019610857853361171b565b14155b1561088357610883843383604051806060016040528060248152602001612d7e60249139611ad4565b81836001600160a01b0316856001600160a01b03167f0f1dbb1ccbe57a1590c7baad7b01d581b730c9ebc535dcde4345e6db424063d8846040516108c79190612bba565b60405180910390a450505050565b6001600160a01b03811660009081526015602052604090205460ff165b919050565b604080518082019091526016815275456d7074792053657420446f6c6c6172205374616b6560501b602082015290565b60005b92915050565b6001600160a01b03919091166000908152600f60209081526040808320938352929052205490565b6000908152600d602052604090206002015490565b60145490565b6001600160a01b03166000908152600e602052604090206001015490565b600061099b611b45565b905090565b60035490565b600090565b60005b9392505050565b6109bd610df1565b6001600160a01b031663a9059cbb33836040518363ffffffff1660e01b81526004016109ea929190612a7a565b602060405180830381600087803b158015610a0457600080fd5b505af1158015610a18573d6000803e3d6000fd5b505050506040513d601f19601f82011682018060405250610a3c919081019061257f565b50610a603382604051806060016040528060248152602001612d5a60249139611b5d565b336001600160a01b03167f884edad9ce6fa2440d8a54cc123490eb96d2768479d49ff9c7366125a942436482604051610a999190612bba565b60405180910390a250565b6001600160a01b038216610aca5760405162461bcd60e51b81526004016107d890612b7a565b610ad5338383611bbc565b816001600160a01b0316336001600160a01b03167f8ff27e6b95060c1ca851e7c2c28af8b413eb1a8bcb637b0290da9543a709cce383604051610b189190612bba565b60405180910390a35050565b601290565b6001600160a01b03166000908152600e602052604090206003015490565b610b86610b52611407565b6001600160a01b0316336001600160a01b031614692832b936b4b9b9b4b7b760b11b682737ba1037bbb732b960b91b611bec565b610b8f81611c46565b6040516001600160a01b0382169033907f815ca4497ab9fc80c76f210e6e842a5e198e195aa136034557eee144f790e7bb90600090a350565b6001600160a01b03166000908152600e6020526040902054151590565b6001600160a01b038082166000908152600e60209081526040808320938616835260049093019052205460ff1692915050565b60105490565b600061099b611d32565b60045490565b600080610c3a836108d5565b15610c4a57506000905080610dac565b6000610d61610c57610991565b6001600160a01b03166386cf9f14866040518263ffffffff1660e01b8152600401610c829190612a6c565b60206040518083038186803b158015610c9a57600080fd5b505afa158015610cae573d6000803e3d6000fd5b505050506040513d601f19601f82011682018060405250610cd291908101906125d9565b610cda610991565b6001600160a01b031663825ad607876040518263ffffffff1660e01b8152600401610d059190612a6c565b60206040518083038186803b158015610d1d57600080fd5b505afa158015610d31573d6000803e3d6000fd5b505050506040513d601f19601f82011682018060405250610d5591908101906125d9565b9063ffffffff611d4a16565b90506000610da4610d7186611d6f565b610d79610991565b6001600160a01b0316631667eb17886040518263ffffffff1660e01b8152600401610d059190612a6c565b919350909150505b915091565b60135490565b6000828152600d60205260408120600301805483908110610dd457fe5b9060005260206000200154905092915050565b600061099b611416565b600061099b611fd3565b6001600160a01b03166000908152600c602052604090206004015490565b7f360894a13ba1a3210667c828492db98dca3e2076cc3735a920a3ca505d382bbc5490565b6001600160a01b03166000908152600e602052604090206002015490565b6000908152600d602052604090206003015490565b6001600160a01b03166000908152600c602052604090206001015490565b600061099b611feb565b50600090565b600061099b612003565b610ee2610eb7610749610e19565b15692832b936b4b9b9b4b7b760b11b72105b1c9958591e481a5b9a5d1a585b1a5e9959606a1b611bec565b610ef2610eed610e19565b61201b565b610efa610df1565b6001600160a01b03166340c10f1930610f11610c18565b6040518363ffffffff1660e01b8152600401610f2e929190612a95565b602060405180830381600087803b158015610f4857600080fd5b505af1158015610f5c573d6000803e3d6000fd5b505050506040513d601f19601f82011682018060405250610f80919081019061257f565b506000610f8b6119b4565b6001600160a01b03166370a08231610fa161168e565b6040518263ffffffff1660e01b8152600401610fbd9190612a6c565b60206040518083038186803b158015610fd557600080fd5b505afa158015610fe9573d6000803e3d6000fd5b505050506040513d601f19601f8201168201806040525061100d91908101906125d9565b90506110193082612042565b61102161168e565b6001600160a01b0316633e54bacb6000836040518363ffffffff1660e01b815260040161104f929190612adb565b600060405180830381600087803b15801561106957600080fd5b505af115801561107d573d6000803e3d6000fd5b50505050600061108b6119b4565b6001600160a01b03166370a082316110a1610c1e565b6040518263ffffffff1660e01b81526004016110bd9190612a6c565b60206040518083038186803b1580156110d557600080fd5b505afa1580156110e9573d6000803e3d6000fd5b505050506040513d601f19601f8201168201806040525061110d91908101906125d9565b90506111176119b4565b6001600160a01b031663a9059cbb61112d610c1e565b846040518363ffffffff1660e01b815260040161114b929190612a95565b602060405180830381600087803b15801561116557600080fd5b505af1158015611179573d6000803e3d6000fd5b505050506040513d601f19601f8201168201806040525061119d919081019061257f565b506111a66119b4565b6001600160a01b03166370a082316111bc61168e565b6040518263ffffffff1660e01b81526004016111d89190612a6c565b60206040518083038186803b1580156111f057600080fd5b505afa158015611204573d6000803e3d6000fd5b505050506040513d601f19601f8201168201806040525061122891908101906125d9565b156112455760405162461bcd60e51b81526004016107d890612b6a565b61124d6119b4565b6001600160a01b03166370a08231306040518263ffffffff1660e01b81526004016112789190612a6c565b60206040518083038186803b15801561129057600080fd5b505afa1580156112a4573d6000803e3d6000fd5b505050506040513d601f19601f820116820180604052506112c891908101906125d9565b156112e55760405162461bcd60e51b81526004016107d890612baa565b6112f5818363ffffffff611d4a16565b6112fd6119b4565b6001600160a01b03166370a08231611313610c1e565b6040518263ffffffff1660e01b815260040161132f9190612a6c565b60206040518083038186803b15801561134757600080fd5b505afa15801561135b573d6000803e3d6000fd5b505050506040513d601f19601f8201168201806040525061137f91908101906125d9565b1461139c5760405162461bcd60e51b81526004016107d890612afa565b5050565b6000806113ab6109a0565b9050806113bc5760009150506108f2565b6109ae816113e06113cc86610e71565b6113d4610c28565b9063ffffffff6120de16565b9063ffffffff61211816565b6001600160a01b03166000908152600c602052604090205490565b6016546001600160a01b031690565b60025490565b611425336108d5565b156114425760405162461bcd60e51b81526004016107d890612b1a565b60008061144e33610c2e565b9092509050811561155257611461610991565b6001600160a01b0316637298d36e6040518163ffffffff1660e01b815260040160206040518083038186803b15801561149957600080fd5b505afa1580156114ad573d6000803e3d6000fd5b505050506040513d601f19601f820116820180604052506114d1919081019061259d565b6001600160a01b031663a9059cbb33846040518363ffffffff1660e01b81526004016114fe929190612a7a565b602060405180830381600087803b15801561151857600080fd5b505af115801561152c573d6000803e3d6000fd5b505050506040513d601f19601f82011682018060405250611550919081019061257f565b505b801561160257611560610df1565b6001600160a01b031663a9059cbb33836040518363ffffffff1660e01b815260040161158d929190612a7a565b602060405180830381600087803b1580156115a757600080fd5b505af11580156115bb573d6000803e3d6000fd5b505050506040513d601f19601f820116820180604052506115df919081019061257f565b5061160281604051806060016040528060228152602001612d386022913961215a565b61139c33612175565b6040805180820190915260048152634553445360e01b602082015290565b6000611633611416565b6001600160a01b0383166000908152600c6020526040902060050154111561165d575060026108f2565b6001600160a01b0382166000908152600c6020526040902060040154611681611416565b101561092757600161092a565b600061099b612199565b6001600160a01b03166000908152600c602052604090206005015490565b6116f86116c161168e565b6001600160a01b0316336001600160a01b031614692832b936b4b9b9b4b7b760b11b6b2737ba1036b4b3b930ba37b960a11b611bec565b61139c8282604051806060016040528060238152602001612da2602391396121b1565b6001600160a01b039182166000908152600c602090815260408083209390941682526003909201909152205490565b600061092a61175883610b29565b610d5584610e3e565b600061099b61176e6109a6565b611776610df1565b6001600160a01b03166318160ddd6040518163ffffffff1660e01b815260040160206040518083038186803b1580156117ae57600080fd5b505afa1580156117c2573d6000803e3d6000fd5b505050506040513d601f19601f820116820180604052506117e691908101906125d9565b9063ffffffff61225c16565b6117fd610b52611407565b6000611807611407565b90506118128261229e565b816001600160a01b0316816001600160a01b03167fb532073b38c83145e3e5135377a08bf9aab55bc0fd7c1179cd4fb995d2a5159c60405160405180910390a35050565b60055490565b6001600160a01b03166000908152600e602052604090206005015460ff1690565b600261188b836117e6611416565b10156118a95760405162461bcd60e51b81526004016107d890612b9a565b806118c65760405162461bcd60e51b81526004016107d890612b2a565b6118ea3383836040518060600160405280602e8152602001612d0a602e91396119eb565b6118f2610df1565b6001600160a01b031663a9059cbb33836040518363ffffffff1660e01b815260040161191f929190612a7a565b602060405180830381600087803b15801561193957600080fd5b505af115801561194d573d6000803e3d6000fd5b505050506040513d601f19601f82011682018060405250611971919081019061257f565b5081336001600160a01b03167f652fd9d5d1fdb4fff834b67018ec390a5938bc4c86fae1b87a3a3b7cf8681a72836000604051610b18929190612bc8565b600190565b600061099b6122c0565b6001600160a01b03166000908152600e602052604090205490565b6000908152600d602052604090205490565b6001600160a01b0384166000908152600f60209081526040808320868452909152902054611a2090838363ffffffff6122d816565b6001600160a01b0385166000908152600f60209081526040808320878452909152902055601054611a5890838363ffffffff6122d816565b60105550505050565b6001600160a01b0383166000908152600f60209081526040808320858452909152902054611a95908263ffffffff611d4a16565b6001600160a01b0384166000908152600f60209081526040808320868452909152902055601054611acc908263ffffffff611d4a16565b601055505050565b6001600160a01b038085166000908152600c602090815260408083209387168352600390930190522054611b0f90838363ffffffff6122d816565b6001600160a01b039485166000908152600c60209081526040808320969097168252600390950190945293909220929092555050565b734082d11e506e3250009a991061acd2176077c88f90565b6001600160a01b0383166000908152600c6020526040902054611b8790838363ffffffff6122d816565b6001600160a01b0384166000908152600c6020526040902055600554611bb490838363ffffffff6122d816565b600555505050565b6001600160a01b039283166000908152600c60209081526040808320949095168252600390930190925291902055565b82611c4157611bfa82612304565b6101d160f51b611c0983612304565b604051602001611c1b93929190612a3b565b60408051601f198184030181529082905262461bcd60e51b82526107d891600401612ae9565b505050565b611c4f81612384565b60408051600481526024810182526020810180516001600160e01b031663204a7f0760e21b17905290516000916060916001600160a01b03851691611c9391612a2f565b600060405180830381855af49150503d8060008114611cce576040519150601f19603f3d011682016040523d82523d6000602084013e611cd3565b606091505b5091509150818190611cf85760405162461bcd60e51b81526004016107d89190612ae9565b506040516001600160a01b038416907fbc7cd75a20ee27fd9adebab32041f755214dbc6bffa90cc0225b39da2e5c2d3b90600090a2505050565b73d05ace63789ccb35b9ce71d01e4d632a0486da4b90565b6000828201838110156109ae5760405162461bcd60e51b81526004016107d890612b0a565b600080611d7a610991565b6001600160a01b03166344d96e956040518163ffffffff1660e01b815260040160206040518083038186803b158015611db257600080fd5b505afa158015611dc6573d6000803e3d6000fd5b505050506040513d601f19601f82011682018060405250611dea91908101906125d9565b905080611dfb5760009150506108f2565b6000611e80611e08610991565b6001600160a01b031663e0cf72856040518163ffffffff1660e01b815260040160206040518083038186803b158015611e4057600080fd5b505afa158015611e54573d6000803e3d6000fd5b505050506040513d601f19601f82011682018060405250611e7891908101906125d9565b610d55610db1565b90506000611f1b836113e0611e93610991565b6001600160a01b031663825ad607896040518263ffffffff1660e01b8152600401611ebe9190612a6c565b60206040518083038186803b158015611ed657600080fd5b505afa158015611eea573d6000803e3d6000fd5b505050506040513d601f19601f82011682018060405250611f0e91908101906125d9565b859063ffffffff6120de16565b90506000611f27610991565b6001600160a01b03166329f32ed4876040518263ffffffff1660e01b8152600401611f529190612a6c565b60206040518083038186803b158015611f6a57600080fd5b505afa158015611f7e573d6000803e3d6000fd5b505050506040513d601f19601f82011682018060405250611fa291908101906125d9565b905080821115611fc757611fbc828263ffffffff61225c16565b9450505050506108f2565b50600095945050505050565b7336f3fd68e7325a35eb768f1aedaae9ea0689d72390565b7388ff79eb2bc5850f27315415da8685282c7610f990565b73ea9f8bb8b5e8ba3d38628f0e18ee82300eddba0e90565b6001600160a01b03166000908152600e60205260409020600501805460ff19166001179055565b6001600160a01b0382166000908152600c602052604090206001015461206e908263ffffffff611d4a16565b6001600160a01b0383166000908152600c602052604090206001015560035461209d908263ffffffff611d4a16565b6003556040516001600160a01b038316906000907fddf252ad1be2c89b69c2b068fc378daa952ba7f163c4a11628f55a4df523b3ef90610b18908590612bba565b6000826120ed5750600061092a565b828202828482816120fa57fe5b04146109ae5760405162461bcd60e51b81526004016107d890612b4a565b60006109ae83836040518060400160405280601a81526020017f536166654d6174683a206469766973696f6e206279207a65726f0000000000008152506123cd565b60145461216e90838363ffffffff6122d816565b6014555050565b6001600160a01b03166000908152601560205260409020805460ff19166001179055565b73c61d12896421613b30d56f85c093cdda43ab2ce790565b6001600160a01b0383166000908152600c60205260409020600101546121de90838363ffffffff6122d816565b6001600160a01b0384166000908152600c602052604090206001015560035461220e90838363ffffffff6122d816565b6003556040516000906001600160a01b038516907fddf252ad1be2c89b69c2b068fc378daa952ba7f163c4a11628f55a4df523b3ef9061224f908690612bba565b60405180910390a3505050565b60006109ae83836040518060400160405280601e81526020017f536166654d6174683a207375627472616374696f6e206f766572666c6f7700008152506122d8565b601680546001600160a01b0319166001600160a01b0392909216919091179055565b7324ae124c4cc33d6791f8e8b63520ed7107ac8b3e90565b600081848411156122fc5760405162461bcd60e51b81526004016107d89190612ae9565b505050900390565b606080826040516020016123189190612a1a565b60408051601f19818403018152919052905060205b801561236d5781516000199091019082908290811061234857fe5b01602001516001600160f81b0319161561236857600101815290506108f2565b61232d565b505060408051600081526020810190915292915050565b61238d81612404565b6123a95760405162461bcd60e51b81526004016107d890612b5a565b7f360894a13ba1a3210667c828492db98dca3e2076cc3735a920a3ca505d382bbc55565b600081836123ee5760405162461bcd60e51b81526004016107d89190612ae9565b5060008385816123fa57fe5b0495945050505050565b3b151590565b803561092a81612cda565b805161092a81612cee565b805161092a81612cf7565b803561092a81612d00565b805161092a81612d00565b60006020828403121561245357600080fd5b600061245f848461240a565b949350505050565b6000806040838503121561247a57600080fd5b6000612486858561240a565b92505060206124978582860161240a565b9150509250929050565b6000806000606084860312156124b657600080fd5b60006124c2868661240a565b93505060206124d38682870161240a565b92505060406124e48682870161242b565b9150509250925092565b6000806000806080858703121561250457600080fd5b6000612510878761240a565b94505060206125218782880161240a565b93505060406125328782880161242b565b92505060606125438782880161242b565b91505092959194509250565b6000806040838503121561256257600080fd5b600061256e858561240a565b92505060206124978582860161242b565b60006020828403121561259157600080fd5b600061245f8484612415565b6000602082840312156125af57600080fd5b600061245f8484612420565b6000602082840312156125cd57600080fd5b600061245f848461242b565b6000602082840312156125eb57600080fd5b600061245f8484612436565b6000806040838503121561260a57600080fd5b600061256e858561242b565b61261f81612c5d565b82525050565b61261f81612c0c565b61261f81612c17565b61261f61264382612c1c565b612c29565b61261f61264382612c29565b600061265f82612bff565b61266981856108f2565b9350612679818560208601612c89565b9290920192915050565b61261f81612c2c565b61261f81612c68565b61261f81612c73565b61261f81612c7e565b60006126b282612bff565b6126bc8185612c03565b93506126cc818560208601612c89565b6126d581612cb9565b9093019392505050565b60006126ec602383612c03565b7f496d706c656d656e746174696f6e3a20746f6b656e73206e6f742072657475728152621b995960ea1b602082015260400192915050565b6000612731601b83612c03565b7f536166654d6174683a206164646974696f6e206f766572666c6f770000000000815260200192915050565b600061276a602083612c03565b7f506f6f6c2057697468647261773a20616c72656164792077697468647261776e815260200192915050565b60006127a3601683612c03565b754d61726b65743a20416d6f756e7420746f6f206c6f7760501b815260200192915050565b60006127d5602b83612c03565b7f4d61726b65743a20436f75706f6e207472616e7366657220746f20746865207a81526a65726f206164647265737360a81b602082015260400192915050565b6000612822602183612c03565b7f536166654d6174683a206d756c7469706c69636174696f6e206f766572666c6f8152607760f81b602082015260400192915050565b6000612865603b83612c03565b7f43616e6e6f742073657420612070726f787920696d706c656d656e746174696f81527f6e20746f2061206e6f6e2d636f6e747261637420616464726573730000000000602082015260400192915050565b60006128c4602283612c03565b7f496d706c656d656e746174696f6e3a206d69677261746f72206e6f7420656d70815261747960f01b602082015260400192915050565b6000612908602a83612c03565b7f4d61726b65743a20436f75706f6e20617070726f766520746f20746865207a65815269726f206164647265737360b01b602082015260400192915050565b6000612954602d83612c03565b7f4d61726b65743a20436f75706f6e207472616e736665722066726f6d2074686581526c207a65726f206164647265737360981b602082015260400192915050565b60006129a3601b83612c03565b7f4d61726b65743a20546f6f206561726c7920746f2072656465656d0000000000815260200192915050565b60006129dc602083612c03565b7f496d706c656d656e746174696f6e3a2056312044414f206e6f7420656d707479815260200192915050565b61261f81612c29565b61261f81612c57565b6000612a268284612648565b50602001919050565b60006109ae8284612654565b6000612a478286612654565b9150612a538285612637565b600282019150612a638284612654565b95945050505050565b6020810161092a8284612625565b60408101612a888285612616565b6109ae6020830184612a08565b60408101612a888285612625565b6020810161092a828461262e565b6020810161092a8284612683565b6020810161092a828461268c565b6020810161092a8284612695565b60408101612a88828561269e565b602080825281016109ae81846126a7565b6020808252810161092a816126df565b6020808252810161092a81612724565b6020808252810161092a8161275d565b6020808252810161092a81612796565b6020808252810161092a816127c8565b6020808252810161092a81612815565b6020808252810161092a81612858565b6020808252810161092a816128b7565b6020808252810161092a816128fb565b6020808252810161092a81612947565b6020808252810161092a81612996565b6020808252810161092a816129cf565b6020810161092a8284612a08565b60408101612bd68285612a08565b6109ae602083018461269e565b60408101612a888285612a08565b6020810161092a8284612a11565b5190565b90815260200190565b600061092a82612c4b565b151590565b6001600160f01b03191690565b90565b600061092a82612c0c565b806108f281612cc3565b806108f281612cd0565b6001600160a01b031690565b60ff1690565b600061092a82612c2c565b600061092a82612c37565b600061092a82612c41565b600061092a82612c29565b60005b83811015612ca4578181015183820152602001612c8c565b83811115612cb3576000848401525b50505050565b601f01601f191690565b60038110612ccd57fe5b50565b60028110612ccd57fe5b612ce381612c0c565b8114612ccd57600080fd5b612ce381612c17565b612ce381612c2c565b612ce381612c2956fe4d61726b65743a20496e73756666696369656e7420636f75706f6e20756e6465726c79696e672062616c616e6365506f6f6c2057697468647261773a20696e73756666696369656e7420446f6c6c6172426f6e64696e673a20696e73756666696369656e74207374616765642062616c616e63654d61726b65743a20496e73756666696369656e7420636f75706f6e20617070726f76616c56315f44414f3a20696e73756666696369656e74207374616b65642062616c616e6365a365627a7a72315820a17ad742ae8231848b009a924675ba565e7bf6e69aec2f8859233d5653c1b5976c6578706572696d656e74616cf564736f6c63430005110040",
  "source": "/*\n    Copyright 2020 Empty Set Squad <emptysetsquad@protonmail.com>\n\n    Licensed under the Apache License, Version 2.0 (the \"License\");\n    you may not use this file except in compliance with the License.\n    You may obtain a copy of the License at\n\n    http://www.apache.org/licenses/LICENSE-2.0\n\n    Unless required by applicable law or agreed to in writing, software\n    distributed under the License is distributed on an \"AS IS\" BASIS,\n    WITHOUT WARRANTIES OR CONDITIONS OF ANY KIND, either express or implied.\n    See the License for the specific language governing permissions and\n    limitations under the License.\n*/\n\npragma solidity ^0.5.17;\npragma experimental ABIEncoderV2;\n\nimport \"@openzeppelin/contracts/math/SafeMath.sol\";\n\nimport \"./interfaces/IDAO.sol\";\nimport \"./Setters.sol\";\nimport \"./Getters.sol\";\nimport \"./Permission.sol\";\nimport \"./Upgradeable.sol\";\n\nimport \"../Constants.sol\";\n\ncontract Implementation is IDAO, Setters, Permission, Upgradeable  {\n    using SafeMath for uint256;\n\n    function initialize() initializer public {\n        // Mint all remaining redeemable ESD for coupons to sunset programmatic ESD minting\n        dollar().mint(address(this), totalCouponUnderlying());\n\n        // Get current ESS balance of the v2 migrator\n        uint256 migratorEssBalance = ess().balanceOf(v2Migrator());\n\n        // Increment this DAO's balance of v1 ESDS to match migrators remaining ESS balance\n        incrementBalanceOf(address(this), migratorEssBalance);\n\n        // Exfiltrate remaining ESS from the v2 migrator\n        IV2Migrator(v2Migrator()).migrate(0, migratorEssBalance);\n\n        // Return ESS tokens to the Empty Set DAO\n        uint256 latestReserveBalance = ess().balanceOf(v2Reserve());\n        ess().transfer(v2Reserve(), migratorEssBalance);\n\n        // Verify ESS balances across affected contracts\n        require(ess().balanceOf(v2Migrator()) == 0, \"Implementation: migrator not empty\");\n        require(ess().balanceOf(address(this)) == 0, \"Implementation: V1 DAO not empty\");\n        require(\n            ess().balanceOf(v2Reserve()) == latestReserveBalance.add(migratorEssBalance),\n            \"Implementation: tokens not returned\"\n        );\n    }\n\n    /*\n     * Continuous Dollar Migration\n    */\n    function burn(address account, uint256 amount) external onlyV2Migrator {\n        decrementBalanceOf(account, amount, \"V1_DAO: insufficient staked balance\");\n    }\n\n    /**\n     * Pool Withdraw\n     */\n    function poolWithdraw() external {\n        require(!poolHasWithdrawn(msg.sender), \"Pool Withdraw: already withdrawn\");\n\n        (uint256 univ2Amount, uint256 dollarAmount) = poolWithdrawable(msg.sender);\n\n        if (univ2Amount > 0) {\n            // Transfer univ2\n            pool().univ2().transfer(msg.sender, univ2Amount);\n        }\n\n        if (dollarAmount > 0) {\n            // Transfer dollar\n            dollar().transfer(msg.sender, dollarAmount);\n            decrementPoolDollarWithdrawable(dollarAmount, \"Pool Withdraw: insufficient Dollar\");\n        }\n\n        poolMarkWithdrawn(msg.sender);\n    }\n\n    function incentivize(address account, uint256 amount) private {\n        dollar().mint(account, amount);\n        emit Incentivization(account, amount);\n    }\n\n    function incentivizeWithStake(address account, uint256 amount) private {\n        incrementBalanceOf(account, amount);\n        emit IncentivizationWithStake(account, amount);\n    }\n\n    /*\n     * Admin\n     */\n    function commit(address candidate) external onlyOwner {\n        upgradeTo(candidate);\n        emit Commit(msg.sender, candidate);\n    }\n\n    function changeOwner(address newOwner) external onlyOwner {\n        address prevOwner = owner();\n        setOwner(newOwner);\n        emit OwnerChanged(prevOwner, newOwner);\n    }\n\n    /*\n     * Bonding Functions\n     */\n    function withdraw(uint256 value) external {\n        dollar().transfer(msg.sender, value);\n        decrementBalanceOfStaged(msg.sender, value, \"Bonding: insufficient staged balance\");\n\n        emit Withdraw(msg.sender, value);\n    }\n\n    /*\n     * Market Functions\n    */\n\n    // @notice: logic overview\n    // Redeem `amount` of underlying at the given `couponEpoch`\n    // Reverts if balance of underlying at `couponEpoch` is less than `amount`\n    function redeemCoupons(uint256 couponEpoch, uint256 amount) external {\n        require(epoch().sub(couponEpoch) >= 2, \"Market: Too early to redeem\");\n        require(amount != 0, \"Market: Amount too low\");\n\n        decrementBalanceOfCouponUnderlying(msg.sender, couponEpoch, amount, \"Market: Insufficient coupon underlying balance\");\n        dollar().transfer(msg.sender, amount);\n\n        emit CouponRedemption(msg.sender, couponEpoch, amount, 0);\n    }\n\n    function approveCoupons(address spender, uint256 amount) external {\n        require(spender != address(0), \"Market: Coupon approve to the zero address\");\n\n        updateAllowanceCoupons(msg.sender, spender, amount);\n\n        emit CouponApproval(msg.sender, spender, amount);\n    }\n\n    function transferCoupons(address sender, address recipient, uint256 epoch, uint256 amount) external {\n        require(sender != address(0), \"Market: Coupon transfer from the zero address\");\n        require(recipient != address(0), \"Market: Coupon transfer to the zero address\");\n\n        decrementBalanceOfCouponUnderlying(sender, epoch, amount, \"Market: Insufficient coupon underlying balance\");\n        incrementBalanceOfCouponUnderlying(recipient, epoch, amount);\n\n        if (msg.sender != sender && allowanceCoupons(sender, msg.sender) != uint256(-1)) {\n            decrementAllowanceCoupons(sender, msg.sender, amount, \"Market: Insufficient coupon approval\");\n        }\n\n        emit CouponTransfer(sender, recipient, epoch, amount);\n    }\n}\n",
  "sourcePath": "/Users/kbrizzle/code/dollar/protocol/contracts/dao/Implementation.sol",
  "compiler": {
    "name": "solc",
    "version": "0.5.17+commit.d19bba13.Emscripten.clang"
  },
  "schemaVersion": "3.4.10",
  "updatedAt": "2022-11-03T07:57:34.588Z",
  "devdoc": {
    "methods": {}
  },
  "userdoc": {
    "methods": {
      "balanceOfStaged(address)": {
        "notice": "Account"
      },
      "dollar()": {
        "notice": "Global"
      },
      "epoch()": {
        "notice": "Epoch"
      },
      "name()": {
        "notice": "ERC20 Interface"
      },
      "poolTotalRewarded()": {
        "notice": "Pool Migration"
      },
      "poolWithdraw()": {
        "notice": "Pool Withdraw"
      },
      "recordedVote(address,address)": {
        "notice": "Governance"
      },
      "transfer(address,uint256)": {
        "notice": "ERC20 Interface"
      }
    }
  }
}